:020000040800F2
:1000000000200020A1230008890C00088B0C0008A8
:1000100000000000000000000000000000000000E0
:100020000000000000000000000000008D0C00082F
:1000300000000000000000008F0C0008910C000878
:10004000F1230008F1230008F1230008F123000840
:10005000F1230008F1230008F1230008F123000830
:1000600000000000F1230008F1230008F12300083C
:10007000950C0008F123000800000000E10C0008C6
:100080000000000000000000000000000000000070
:10009000F123000800000000FD0C0008F123000817
:1000A00000000000F1230008000000000000000034
:1000B000250D00082D0D00080000000000000000C4
:1000C00010B5064C2378002B07D1054B002B02D02E
:1000D000044800E000BF0123237010BD8800002009
:1000E000000000006C330008044B10B5002B03D057
:1000F0000349044800E000BF10BDC04600000000F6
:100100008C0000206C3300080023C25C0133002AFD
:10011000FBD1581E7047000003B4714649084000E7
:100120004900095E49008E4403BC70470022430821
:100130008B4274D303098B425FD3030A8B4244D3AF
:10014000030B8B4228D3030C8B420DD3FF220902F1
:1001500012BA030C8B4202D31212090265D0030BB0
:100160008B4219D300E0090AC30B8B4201D3CB03A6
:10017000C01A5241830B8B4201D38B03C01A5241E8
:10018000430B8B4201D34B03C01A5241030B8B42EA
:1001900001D30B03C01A5241C30A8B4201D3CB02D5
:1001A000C01A5241830A8B4201D38B02C01A5241BA
:1001B000430A8B4201D34B02C01A5241030A8B42BD
:1001C00001D30B02C01A5241CDD2C3098B4201D3D5
:1001D000CB01C01A524183098B4201D38B01C01A53
:1001E000524143098B4201D34B01C01A52410309CA
:1001F0008B4201D30B01C01A5241C3088B4201D379
:10020000CB00C01A524183088B4201D38B00C01A25
:10021000524143088B4201D34B00C01A5241411A4C
:1002200000D20146524110467047FFE701B5002059
:1002300000F0F0F802BDC0460029F7D076E770471D
:1002400003460B437FD4002243088B4274D3030937
:100250008B425FD3030A8B4244D3030B8B4228D3D8
:10026000030C8B420DD3FF22090212BA030C8B42FE
:1002700002D31212090265D0030B8B4219D300E09E
:10028000090AC30B8B4201D3CB03C01A5241830B23
:100290008B4201D38B03C01A5241430B8B4201D3D3
:1002A0004B03C01A5241030B8B4201D30B03C01AFC
:1002B0005241C30A8B4201D3CB02C01A5241830A76
:1002C0008B4201D38B02C01A5241430A8B4201D3A5
:1002D0004B02C01A5241030A8B4201D30B02C01ACF
:1002E0005241CDD2C3098B4201D3CB01C01A524136
:1002F00083098B4201D38B01C01A524143098B42BF
:1003000001D34B01C01A524103098B4201D30B01A7
:10031000C01A5241C3088B4201D3CB00C01A5241CC
:1003200083088B4201D38B00C01A524143088B4291
:1003300001D34B00C01A5241411A00D2014652412A
:10034000104670475DE0CA0F00D04942031000D349
:100350004042534000229C4603098B422DD3030A9E
:100360008B4212D3FC22890112BA030A8B420CD3AE
:10037000890192118B4208D3890192118B4204D3D7
:1003800089013AD0921100E08909C3098B4201D357
:10039000CB01C01A524183098B4201D38B01C01A91
:1003A000524143098B4201D34B01C01A5241030908
:1003B0008B4201D30B01C01A5241C3088B4201D3B7
:1003C000CB00C01A524183088B4201D38B00C01A64
:1003D0005241D9D243088B4201D34B00C01A52413B
:1003E000411A00D20146634652415B10104601D3C8
:1003F0004042002B00D54942704763465B1000D352
:10040000404201B5002000F005F802BD0029F8D0F7
:1004100016E770477047C046002B11D1002A0FD154
:10042000002900D1002802D00021C943081C07B4CC
:10043000024802A14018029003BDC046D9FFFFFF49
:1004400003B4684601B5029800F006F8019B9E4689
:1004500002B00CBC7047C046F0B557464E46454604
:10046000DE46E0B504000D009246994683B08B420B
:1004700030D82DD04946504600F0BAF82900060081
:10048000200000F0B5F8331A9846203B9B4633D441
:100490005A465346934042461F00534693401E001F
:1004A000AF423AD8AF4200D178E05B46A41BBD41D1
:1004B000002B00DA75E00022002300920193012353
:1004C0005A4693400193012342469340009328E00B
:1004D0008242CFD900220023009201930C9B002B73
:1004E00001D01C605D600098019903B0F0BCBB4670
:1004F000B246A946A046F0BD424620239B1A52466A
:10050000DA40414613004A468A40170042461F43DC
:10051000534693401E00AF42C4D9002200230092EC
:1005200001934346002BD9D0FB0772081A43464675
:100530007B080EE0AB4201D1A2420CD8A41A9D4127
:10054000012024196D410021013E24184D41002E47
:1005500006D0AB42EED9013E24196D41002EF8D1F0
:10056000009801995B4600196941002B24DB2B00A0
:100570005A464446D3402A00E2401C005B46150020
:10058000002B2ADB26009E40330026004746BE4053
:100590003200801A9941009001919FE7A342BCD894
:1005A00083E74246202300219B1A002200910192FA
:1005B0000122DA40019286E7424620239B1A2A0054
:1005C00046469A402300F340444613432A00E24043
:1005D0001C005B461500002BD4DA42462F00202376
:1005E000260097409B1ADE403B003343CDE7C046D0
:1005F00010B5002903D100F007F8203002E0081CF4
:1006000000F002F810BDC0461C2101231B049842D3
:1006100001D3000C10391B0A984201D3000A083993
:100620001B09984201D30009043902A2105C40184A
:100630007047C046040302020101010100000000EE
:1006400000000000F0B593B0142200210DA802F0C4
:1006500052FA1022002109A802F04DFA10220021BE
:1006600005A802F048FA4C4B596B802080000143EA
:1006700059635A6B02400292029ADA6A01273A439E
:10068000DA62DB6A3B400193019B039703230493E7
:10069000002507956138FF3803A9C00501F0DCFE8D
:1006A0003E4BC32189005A58FF2082435A50802272
:1006B00052011A603A4CA36A3B43A362A26A8023A8
:1006C000DB021343A362374E3068374A1040802163
:1006D000090401433160A36A802189021943A162A0
:1006E00033681A408023DB03134333600D95802366
:1006F0005B020E930F95109511950DA9200001F046
:1007000093FE636907229343023A134363612369AB
:10071000BB431F4327612369244A1A408E235B0091
:10072000134323612369224A13402361E3680421B0
:100730008B43E36033681F4A1A4080239B041343B2
:10074000336063688B43636063680822934363602C
:100750008023DB0509930A950B950C9509A92000C8
:1007600001F048FEA368144A1A4080235B05134336
:10077000A360124B18681249FFF7D8FC03008000F1
:10078000C01840000A21FFF7D1FC002801D0013831
:10079000FBE713B0F0BDC0460010024000E100E0EE
:1007A0000024014008270140FFFF3FFF03FEFFFF39
:1007B000FFFDFFFFFFFFFFFDE8FFFF6F1C000020B4
:1007C000400D030082B00F4A116B802040010143AD
:1007D0001163136B03400193019B0B4B9A686021DB
:1007E0008A439A609A6820318A439A60074A5A611C
:1007F0009A6868398A439A60012252421A6102B0AB
:100800007047C0460010024000300240B71DC104CE
:1008100010B5094A936801242343936000238B4257
:1008200006D29A008458044A14600133DBB2F6E71A
:10083000014B186810BDC0460030024010B58AB0A8
:1008400000220992124BD86A04210843D862D86A60
:10085000014003910399D96A01242143D962D96ADD
:10086000214002910299D86A02210843D862DB6ACA
:100870000B400193019B0748816204910594069205
:100880000792089204A901F0E7FD0AB010BDC04626
:100890000010024000040050F0B5C64600B590B00C
:1008A0001C22002109A802F026F92A4CE36A02263C
:1008B0003343E362E36A33400293029B4023039392
:1008C00004963D3B984605930125069507950895A6
:1008D000214F03A9380001F0BFFD80230393049644
:1008E0004346059306950795089503A9380001F03E
:1008F000B3FDA26B802189030A43A263A36B0B4063
:100900000193019B154C626880239B041343636031
:10091000E368134A1340E3602368124A13402360DC
:100920002368114A134023600023099304220A928A
:100930000B930C930D930E930F9309A9200001F0D4
:10094000E3FDE368094A1340E36010B080BCB84699
:10095000F0BDC046001002400004005000540040AA
:10096000FF7FFFFFFFFFF7FFFFFFFDFF01F8FFFF26
:1009700000B587B0002308E0144A1168DA00D140BE
:100980000222D21A05A881540133022BF4DD05ABF3
:100990000022DA70002308E00D4A1168DA00D14025
:1009A0000322D21A03A881540133032BF4DD03ABD5
:1009B00000221A71074AD178054A1268009205AAE6
:1009C000054800F035FC07B000BDC0465000F81FD8
:1009D0005400F81F6400F81F8433000810B53C4A27
:1009E000136801218B431360394B1B68DB07FBD471
:1009F00038490B68384A1A4080231B0113430B60A7
:100A0000364A136801210B431360344B1B685B07A4
:100A1000FBD5324B5A6832491140802252010A43B9
:100A20005A601968802252000A431A602B4B1B68D7
:100A30009B05FBD5294B5A682A491140C022D20197
:100A40000A435A605A681202120A5A602148016821
:100A50008022520011430160196D1F480140196541
:100A6000196D0A431A651D4B1B6D9B05FBD51B4B6E
:100A7000DA68F0218A43DA60DA681B490A40DA60F2
:100A8000DA681A490A40DA60DA6803218A43DA60D0
:100A9000124BDB680C221A42FAD180242403200076
:100AA00001F0CCFF200001F0EDFF0C4BDA6C0C21C3
:100AB0008A4304390A43DA64DA6C0D491140C022D2
:100AC00012010A43DA64DA6C0A490A40DA6410BD9A
:100AD0000020024000700040FFE7FFFF00100240CE
:100AE000FFE0FFFFFF1FFFFFFFF8FFFFFFC7FFFF54
:100AF000FFF3FFFFFFCFFFFF00B583B0524B596BF1
:100B0000012211435963596B0A400192019A9A6B71
:100B1000802149050A439A639B6B0B400093009B1D
:100B2000FFF75CFFFFF78AFEFFF78CFDFFF7B4FECF
:100B300000F0BEF900F026FA00F022F900F060F9AA
:100B4000FFF740FE00F046FB404A4149414800F0B3
:100B50006FFBFFF70DFF404A116880231B040B4316
:100B600013603E498B683E4A1A4080231B0613439C
:100B70008B603A4B9B68002BFBDB022001F06EFF81
:100B800000F0FAFD00F062FC364B1968364800F0C0
:100B90004FFB01F067FB00F097FF072000F046FFD6
:100BA0002E4A93682E490B4001210B4393605368F2
:100BB0000420034353608023DB05DA680A43DA60CC
:100BC0001A680A431A60294AD36801310B43D3607B
:100BD000274B1A68274B1A6014E0274B00221A7023
:100BE00000F046FC00F098FE12E0244B1B78002B2E
:100BF0001DD11F4B1A681F4B1B68D31AE121090135
:100C00008B421AD201F0EEFA1B4B1B78002BE4D179
:100C10001B4B1B78002BE8D0194B00221A700F4A8F
:100C200093680F490B4004210B439360DDE7134B9E
:100C300000221A7000F046FCDBE70E4B1A601148E8
:100C400000F0F6FADEE7C046001002401000002077
:100C500000000020A03300080827014000240140C4
:100C6000E8FFFF7F08030020AC33000800140140B8
:100C7000A8000020B0000020B600002014030020CF
:100C8000B5000020B8330008FEE7FEE77047704764
:100C90007047000010B5C04600F0F8FB0D4B1A6815
:100CA0001A681B685B0702D50A4B04221A60094BBD
:100CB0001B681B0706D5074B08221A60064B00224B
:100CC0001A7010BD034A936804490B4004210B437A
:100CD0009360F6E700240140B4000020E8FFFF7FA6
:100CE00010B58023DB051B69DB0704D58023DB05FA
:100CF000022252421A6100F01FFB10BD10B5084BD2
:100D00001B699B0703D5064B032252421A6101F06F
:100D1000BFFA034A136801218B43136010BDC0461C
:100D20000014014010B500F0E7FA10BD10B501F055
:100D300005FB10BD10B503000C4A0D49521A0D49B0
:100D40000968002907D00B490868C318934206D8E0
:100D5000084A136010BD074907480860F3E701F02F
:100D600097FE0C23036001204042F3E7002000209F
:100D700000040000A400002060050020704700006F
:100D800010B586B000226B465A811949886B012341
:100D900018438863896B0B400193019B1549C3205D
:100DA00080000B581B021B0A0B5080231B020B6098
:100DB0006B461A810392104B049305928024E4053C
:100DC00002A9200001F094FD2368802213432360D0
:100DD000A3680A490B40A360636870218B436039A4
:100DE0000B436360A3689343A36006B010BDC04685
:100DF0000010024000E100E0FF0F0000F8BFFFFF1D
:100E0000F0B58BB000256B465D831022002102A84F
:100E100001F071FE204A516B202319435163526B3C
:100E200013400193019B1D4BC52189005A581C4852
:100E300002405A508022D2031A606B461D830795E8
:100E4000184F08970995184C06A9200001F050FD8D
:100E500023688026B3432360A368144A1340A36029
:100E6000029503950497059502AA0121200001F03F
:100E70006DFDA36904229343A36123680432934365
:100E8000134323606368683293436360A368B3438A
:100E9000A3600BB0F0BDC0460010024000E100E0CE
:100EA000FFFF00FF7707000000140140F8BFFFFFBD
:100EB00030B58FB01822002108A801F01CFE2A4B83
:100EC000996B8020C002014399639A6B02400192A2
:100ED000019ADA6A01252A43DA62DB6A2B40009321
:100EE000009B04230293023B039301330493059573
:100EF000069503330793A02002A9C00501F0ACFAC0
:100F00001A4BC72189005A58194802405A5080226A
:100F100092051A6096239B010893002309930A9374
:100F20000B930C330C93134C08A9200001F028FB01
:100F3000A36808221343A360A3680F4A1340A36069
:100F4000A3680E4A1340A360A26880239B0013434A
:100F5000A360A368AB43A360A368094A1340A360DE
:100F6000E3690FB030BDC0460010024000E100E070
:100F7000FF00FFFF00480040FFFEFFFFFFFBFFFFF9
:100F8000FFFDFFFFF0B5CE46474680B591B01C226D
:100F9000002109A801F0AFFD2F4B996B8020800242
:100FA000014399639A6B02400292029ADA6A012520
:100FB0002A43DA62DB6A2B400193019B80239B006A
:100FC0000393FF3BFF3B99460493013398460593F7
:100FD00000240694079404270897A026F60503A981
:100FE000300001F039FA8023DB0003934B46049371
:100FF0004346059306940794089703A9300001F02F
:101000002BFA164AC72189005358FF2083437F38A3
:101010000343535080235B051360E1235B02099374
:101020000A940B940C940C230D930E940F940C4C77
:1010300009A9200001F0AAFC63680A4A1340636012
:10104000A3682A229343A36023682B43236011B033
:10105000C0BCB946B046F0BD0010024000E100E05F
:1010600000440040FFB7FFFF044BE822995A223AA0
:1010700099524832995A463A99527047F0010020E5
:10108000044BE822995A1E3A99524432995A423AEC
:1010900099527047F0010020F0B5CE46474680B522
:1010A00083B02C4B6622995E68229E5A02329C5E67
:1010B000A4466C229A5A002E42D0002A42D0814285
:1010C00040DC844207DA0027002399460133FA24E2
:1010D000A400019403E00127F6E701339BB2052B3E
:1010E0001ED83C004D462C431AD11A4C1A00183217
:1010F0009200A2180626915F16891A0019329200F2
:10110000A2180624155FAC461289002A02D1019666
:101110000124A1468842E0DB6045DEDC0127DCE7F4
:10112000002F09D0401A03B2901B58436346591A46
:10113000FEF7FCFF361805E0844509DB019E01E05F
:10114000FA26B600300003B0C0BCB946B046F0BDC8
:101150001600F7E7F001002070B51B4B8722520004
:101160009C5A463A9B5A9C422AD9E41A1649CC22E8
:10117000895AC91A002925DD134B9B891348584306
:10118000FFF75EF86043124B9C4660440F49FEF740
:10119000CDFF06000C4D86235B00E852423BE85E23
:1011A000FFF77AFF0400E823E85EFFF775FF010010
:1011B000744340080019FEF7B9FFE223E85270BDFE
:1011C0000024D3E70148DDE7F001002010270000EC
:1011D0008813000030B587B0114B5A6801210A43CB
:1011E0005A605A6801310A435A605A6802310A4308
:1011F0005A606A460023138053800133FF33938083
:10120000084B936003AB190031CA31C1064A13CBB6
:1012100013C2064A136820210B43136007B030BD88
:1012200000580140D8000020DC01002000440040AC
:101230000FB430B5AFB032AB04CB0093B42101A8EA
:1012400001F08CFC01A8FEF75FFFC0B2002205E0B0
:1012500001339BB20F490B80013292B283B29342A9
:101260000DD901AB9C5C0B490B888D68EC540B8845
:101270009BB2898801398B42EAD10023EAE7064A0A
:10128000136880210B4313602FB030BC08BC04B03E
:101290001847C046DC010020004400400F4B5A882C
:1012A00092B21B889BB29A4210D00C4A5388916824
:1012B000C95C53889BB29288013A93420CD00133A7
:1012C0009BB2064A5380064B99627047044A1368E2
:1012D00080218B431360F8E70023F2E7DC01002054
:1012E00000440040024B5A6A024B1A707047C046D5
:1012F00000440040D801002010B50E4B1B681B06AF
:1013000005D50C4BDB691B0601D5FFF7C7FF094B61
:101310001B689B0605D5074BDB699B0601D5FFF7CC
:10132000E1FF044BDB691B0702D5024B08221A625E
:1013300010BDC04600440040144A136801331360D6
:10134000134B1B781E2B03D80133114A13707047BF
:10135000104B01221A700E4B00221A700E4B1B7894
:10136000002B0ED10D4A012111700D490A78012080
:101370004240D2B20A70002A03D10A490A680132F7
:101380000A6001225340044A1370E0E7180300206A
:1013900004030020B500002005030020B600002053
:1013A000AC000020A8000020014B18807047C04608
:1013B0002803002010B50023084A1370084888212C
:1013C0004900425A0424A243425206490A80064A6E
:1013D0001370064A1380064A138010BD3A0300209A
:1013E000F00100203C0300204403002040030020C3
:1013F0002803002010B5064B1B88012B03D9013BA5
:10140000034A138010BD012BFCD1FFF7D3FFF9E78E
:10141000280300200B4BFA2292005A81F53AFF3A3A
:101420009A81094A1A82CC215A520622FF325A87DF
:1014300000229A870132DA873F32E021C9009952AF
:101440007047C046F0010020FF0F0000064BD82275
:101450000649995202320221FF319952D93A25396F
:101460005A5234315A527047F001002018200000BF
:1014700010B5FFF7BFFF034A88235B00D25A024B27
:101480001A8010BDF00100203C030020094B1B789E
:10149000094A106C5A0009498852012B06D9084B99
:1014A00001221A70034B00221A7070470133014A5F
:1014B0001370FAE7B400002000240140E801002086
:1014C0001403002070B53A4B18883A4E70433A4DD9
:1014D0006988FEF72BFE0400384B186028886043AB
:1014E0003749FEF723FE374B1880A8886043310048
:1014F000FEF71CFE344B1A88831A64205843334B82
:101500001988891AFEF79CFE8300C01840002D3010
:10151000FF302F4B18802F4B1B78002B14D0072047
:1015200000F084FA274B1A882B4B1A80224B19881B
:101530002A4A87235B00D152FFF70EFE254A137813
:1015400059424B41137070BD032000F06FFA1A4BE3
:101550001A88234B1A801B4B1A88224B1A8090053D
:10156000801A8001801840008018C0001E4B9C46E5
:101570006044830018184000002810DD1B4B9C4677
:1015800060441B49FEF75CFE1A4B1880194B198802
:10159000124AE823D152184B01221A70CEE7174B9A
:1015A0009C4660441249FEF74BFE124B1880EDE753
:1015B0007800F81FB80B0000E80100202000002090
:1015C000FF0F0000220300207A00F81F7E00F81FA2
:1015D0001C0300202A03002024030020F001002027
:1015E000200300201E030020C0C11700B50F00001B
:1015F0006A1F000026030020B70000204BF0FFFF09
:101600000A22084B9B699B0708D4074B1B68DB0326
:10161000F7D5531E002A04D01A00F2E7014B02222C
:101620009A6170470020024010E000E010B5054BC1
:101630009C46604403688B4200D110BD0160FFF7F7
:10164000DFFFFAE700000808F8B507000E001500F4
:101650000024A54207DDA300F158F81880B2FFF777
:10166000E5FF0134F5E7F8BD70B504000E4E3521F5
:101670003000FFF7CDF8D423F050EFF3108372B6AB
:101680000A4D0B4AEA600B4AEA6083F31088D820BF
:10169000604380B236223100FFF7D6FF6B6801222B
:1016A00013436B6070BDC046F00100200020024073
:1016B000EFCDAB890504030210B5084A1368013366
:1016C0001360074C2078FFF7CFFF237801225340A7
:1016D00023700448FFF7ACFD10BDC046F0010020A8
:1016E000B8000020E833000810B50220FFF7BCFF67
:1016F0000148FFF79DFD10BDF833000810B5B6B0E6
:10170000002307E09B001849591809686846C15032
:10171000013253B2DAB2352AF4D935216846FFF7DF
:1017200077F8D4236A46D358834206D000210F4865
:10173000FFF77EFD002036B010BD0D48FFF778FDA5
:101740000C4B1C68002306E09B006946C8580949F9
:10175000C850013253B2DAB2352AF5D9054B1C60B4
:10176000FFF7AAFF0120E6E7B001080810340008DF
:1017700024340008F001002030B5EFB00023DAB2C5
:101780006B2A08D89B0041495918086802A9C8501B
:10179000013253B2F3E7002404E001AB01221A55F1
:1017A000013464B2012C12DCD825654302AB581910
:1017B0003521FFF72DF802AB9C4665442B00D4334E
:1017C0001B688342E9D001AB00221A55E8E701AB60
:1017D0001B78012B10D0002B03D101AA5278012ACB
:1017E0001ED02B4A00211170002B4CD101AB5B782D
:1017F000002B19D0002335E001AA5278012AEAD142
:10180000D7326946082009188A580299914203D2B2
:101810001F4A01211170E7E71D4A00211170E3E71B
:101820001B4A01211170DFE7FFF768FF002823D171
:10183000FFF7F0FD00211748FFF7FAFC144C0025D4
:101840002570FFF739FF257016E011490878D82177
:10185000414302A8844661449B00C8580E49C850C1
:10186000013253B2DAB2352AEFD90B4B1A68084B62
:1018700019780A48FFF7DCFC054A137801214B4030
:1018800013706FB030BD0023ECE7C04600000808BD
:10189000B800002034340008F00100204034000873
:1018A000194A3B23D15C383B19403733D05C800068
:1018B0001E3B03400B4315490B703D23D15C2E3B6F
:1018C00019402D33D05C00012C3B03400B433F21DA
:1018D000505C4001213101400B433E21515CC90164
:1018E0000B430B490B704123D25C3A3B1A40052A4B
:1018F00007D005494023CB5CDB011343054A137035
:1019000070470232F5E7C046F001002030030020A6
:10191000390300203803002010B5FFF7C1FF10BDC8
:1019200082B0044B1B680193019B0130024B18608D
:1019300002B0704710E000E02C03002010B50B4B04
:101940001B68DB0303D50A4A1368013B1360084B8D
:101950001B68002B01D0002010BD064B1A68511CDB
:1019600019600548FFF764FC0120F5E710E000E08E
:101970002C030020340300205834000810B5040064
:101980000120FFF7CDFFFFF7D9FF002803D1034B5C
:101990009B699B07F7D5014B9C6210BD005400402A
:1019A00010B50C000E494B680E4A1A400E4B1343FB
:1019B0004B60FFF7E3FF2000FFF7E0FF0120FFF798
:1019C000AFFFFFF7BBFF002803D1054B9B699B06C8
:1019D000F7D5034AD36920210B43D36110BDC0461C
:1019E00000540040008000FC9020028210B50021CD
:1019F0000120FFF7D5FF0A4B19781020FFF7D0FF21
:101A0000084B19781120FFF7CBFF074B19781220EC
:101A1000FFF7C6FF01210120FFF7C2FF10BDC0463E
:101A200030030020390300203803002010B50723BD
:101A3000034005494022885CC0011843034B1870DD
:101A4000FFF7D4FF10BDC046F0010020380300208E
:101A500070B5194C6268194D2A40194B13436360E5
:101A6000FFF78CFF63681D40164B2B43636001201A
:101A7000FFF756FFFFF762FF002803D10E4B9B696B
:101A80005B07F7D50C4B5C6AE4B259688022D2013F
:101A90000A435A600120FFF743FFFFF74FFF00287A
:101AA00003D1054B9B699B06F7D5034AD3692021D7
:101AB0000B43D361200070BD00540040008000FC47
:101AC000902001819024018010B50020FFF7C0FF15
:101AD00001000E48FFF7ACFBFFF7E2FEFFF786FFC1
:101AE0001020FFF7B5FF01000948FFF7A1FB112007
:101AF000FFF7AEFF01000748FFF79AFB1220FFF740
:101B0000A7FF01000448FFF793FB10BD68340008ED
:101B10007C340008883400089434000830B505008F
:101B200000240A480BE04008013B002B06D0C20706
:101B3000F9D54008064A504080B2F5E701348C429E
:101B400003DA2B5D58400823EFE730BDFFFF0000AC
:101B500001A0FFFF124B1B78002B14D0114B012268
:101B60001A80114B1B78002B11D01049882252008B
:101B70008B5A042003438B520C4A88235B00D25AB1
:101B80000B4B1A807047074B00221A80E9E7074980
:101B9000882252008B5A042083438B52ECE7C046C4
:101BA00044030020400300203A030020F0010020FD
:101BB0003C0300200C490B68020A1A7058700B4A4B
:101BC000106802780232027009480288013A0280E5
:101BD00002330B60074A137802331370064A1388E6
:101BE000013313807047C046C8000020C0000020A9
:101BF000BE000020BC000020BA00002010B5140078
:101C00000378137043785370294B82785A70C278E6
:101C10001A70284B02795A7042791A70E11C264AD0
:101C20001160A11C254A1160254A03211170002270
:101C3000A2701A88531E9BB27C2B14D81C4B1B8895
:101C4000802149018B4223D31E498B4220D8702A20
:101C50001ED89A181C498A421ADC1C4A94466344CE
:101C6000134A138010E0627880235B421343637051
:101C70000223A370032011E00D4B1B88DB00144AE4
:101C80009B581888FFF796FF0A4B1B88002BF3D14F
:101C9000084B1B88002B02D1094B187810BD6278C5
:101CA00080235B42134363700223A3700320F5E794
:101CB000BA000020BE000020C8000020C0000020A4
:101CC000BC0000206F1000007010000000F0FFFF4B
:101CD0008C35000810B514000378137043785370E6
:101CE000244B82785A70C2781A70234B02795A704A
:101CF00042791A70E11C214A1160A11C204A11602E
:101D0000204A032111700022A2701A88531E9BB230
:101D10007C2B15D8174B1B88312B1AD8322A18D890
:101D20009A18322A15DC144B1B88002B11D0114B4A
:101D30001B889B00144A9B581888FFF73BFFF2E76B
:101D4000627880235B42134363700223A3700320F5
:101D500005E0094B1B88002B02D10A4B187810BDF7
:101D6000627880235B42134363700223A3700320D5
:101D7000F5E7C046BA000020BE000020C8000020E1
:101D8000C0000020BC0000200C3900080C4B1B6870
:101D90001A7801684A705A7801680A700279002A34
:101DA00001D008490A7008490A8801320A800749A7
:101DB0000A88013A0A800233014A13607047C0461C
:101DC000C8000020C4000020BA000020BE0000208F
:101DD00000B583B02A4B1B78002B08D0294B1B7809
:101DE000002B0AD1284B1A88284B9A4205D0264B43
:101DF0001A8880235B019A423ED1254B1A681178DC
:101E00006B46D97152789A711F4B1B881F4A9342B7
:101E100011D080225201934222D0194B1B78002B03
:101E200003D1184B1B78002B28D0F120FFF7BCFA08
:101E3000012003B000BD6A460632128815498A4265
:101E400005D0002A07D10F4A00211170E1E70D4AA1
:101E500001211170DDE70B4A10780028D9D1E8E79D
:101E60006B4606331B885B0703D5054B01221A70AE
:101E7000D3E7FFF79FFAD0E70020DAE70120D8E7A1
:101E80003A03002044030020BA00002001100000A3
:101E9000C8000020CDFA000000B583B0184B1A88A6
:101EA000184B9A4227D1184B1A6811786B46D97192
:101EB00052789A7106331B88144A93421DD00DD86C
:101EC000134A934210D0134A934214D11248FFF799
:101ED000AFF9FFF7D5F8FFF7EFFB0CE00F4A93429D
:101EE00009D1FFF70BFC06E00D48FFF7A1F9FFF75A
:101EF000BBF8FFF7E1FB03B000BDFFF7F5FBFAE726
:101F0000BA00002001100000C8000020CEAB000085
:101F10005D180000C4640000B43400084BCE00001B
:101F2000A434000870B50400150083781B02C27841
:101F30009B18304A1380021D2F4B1A602F4B012231
:101F40001A8005320100280000F0CCFD2C4B002245
:101F50001A70FFF73DFF002808D16A7880235B42A2
:101F600013436B700423AB70033070BDFFF794FF15
:101F7000204B1A8880235B019A420AD3214B9A4254
:101F800007D81E4B1B88702B03D8D3181E498B42D1
:101F90000CDD1A4B1B88002B20D06A7880235B4213
:101FA00013436B700223AB700320DEE7174B9C4694
:101FB000624492B20F4E328021781548FFF738F90B
:101FC0000D4B1B6819785A781248FFF731F93088A1
:101FD000C000114BC018FFF7D9FEDAE7FFF7BAFDD2
:101FE000074B1B78002B01D10620BEE7FFF764FBEF
:101FF0000620BAE7BA000020C8000020BE0000207A
:10200000C40000206F1000007010000000F0FFFFFF
:10201000C4340008F43400088C35000810B5010001
:102020001000062200F05EFD062010BD30B583B022
:102030000400150083781B02C2789B183D4A138068
:1020400003791B0242799B183B4A1380C21D3B4B0C
:102050001A6006220100280000F044FD384B0022DF
:102060001A70FFF7B5FE002809D16A7880235B4219
:1020700013436B700423AB70033003B030BDFFF724
:102080000BFF2D4B1A88531E9BB27C2B1BD8294B60
:102090001B88802149018B4208D32A498B4205D8ED
:1020A000702A03D899182848814215DD224B1B88D5
:1020B000002B33D06A7880235B4213436B7002237A
:1020C000AB700320D9E76A7880235B4213436B70BF
:1020D0000223AB700320D0E71C498C4663449BB2BB
:1020E00014490B8021781548006800780090184842
:1020F000FFF79EF80DE0114B1B6819785A781548C8
:10210000FFF796F80B4B1888C000134BC018FFF769
:102110003DFE094B1B88002BEDD1C7E7FFF71AFDE9
:10212000074B1B78002B01D10620A6E7FFF7C4FA66
:102130000620A2E7BA000020BE000020C800002050
:10214000C40000206F1000007010000000F0FFFFBE
:1021500000350008F43400088C35000870B5140010
:102160000378137043785370033BDAB20D2A29D8F1
:1021700093001A4AD3589F462200FFF73FFD0500FF
:10218000002D09D029002000FFF7C8FC60556B1C0A
:102190000004000EE0540235280070BD2200FFF755
:1021A00099FD0500ECE72200FFF7BCFE0500E7E71C
:1021B0002200FFF733FF0500E2E72200FFF736FFBA
:1021C0000500DDE70648FFF733F8627880235B42BD
:1021D000134363700123A3700325D3E7543500082C
:1021E0003835000870B5184B1B78002B0DD0164BF6
:1021F00000221A70154B1E88B51E154C29002000B0
:10220000FFF78CFC2378552B00D070BD625DC3B204
:102210009A42FAD1731EE35C0004000E8342F4D1AB
:102220000C4A31002000FFF799FF0B4B18800B4B35
:1022300000221A800A4B1A6804218A431A601A681D
:102240007C310A431A60E0E7CC0000204C040020F7
:1022500048030020500400204E0400204A040020BF
:1022600000480040084B00221A80084B1A680421DD
:102270000A431A601A681C310A431A601A681F3927
:102280000A431A607047C0464804002000480040D6
:10229000044B1988044A118000221A80034B013232
:1022A0001A707047480400204C040020CC00002025
:1022B0000C4B596A0C4B1B880C4AD154FE2B02D88C
:1022C0000133094A1380084B1B88012B03D0084BAC
:1022D00000225A627047064A136801210B431360BB
:1022E000F5E7C046004800404804002048030020AD
:1022F000001401400D4B1B880D4A1288934209D2ED
:102300000C49C85C0C49886201339BB207490B80B9
:102310009A4200D07047084B1A6880218A431A609D
:102320001A6840390A431A60F4E7C0464A0400209C
:102330004E040020500400200048004010B5174B08
:102340001B689B0605D5154BDB699B0601D5FFF77E
:10235000AFFF124B1B681B0605D5104BDB691B0634
:1023600001D5FFF7C7FF0D4B1B685B060DD50B4B67
:10237000DB695B0609D5094B402119621A688A435B
:102380001A601A683C390A431A60044BDB691B0760
:1023900002D5024B08221A6210BDC0460048004018
:1023A0000D4885460D480E490E4A002302E0D458D8
:1023B000C4500433C4188C42F9D30B4A0B4C00238D
:1023C00001E013600432A242FBD3FEF7D7FC00F019
:1023D00065FBFEF791FBFEE70020002000000020D7
:1023E00088000020183A00088800002060050020BE
:1023F000FEE7000010B58368DB0711D4C368094A03
:1024000013404A688C682243CC6822431343C3605C
:1024100003699B009B080A6813430361002010BDF9
:102420000120FCE7C73FFFFF10B58368DB070FD42F
:10243000C368084A1A400B684C6823438C682343DE
:10244000CC68234309690B431343C360002010BDCC
:102450000120FCE73CC2FEFFF0B5002227E08368C4
:102460002C006C4366003619B3438E6874432343D3
:1024700083600C684368A343CE687443234343607E
:10248000C6682B006B435F00FF18FC43A446BE43A5
:102490000F695F433E43C6604C68022C16D0046847
:1024A00065462C404D686B432343036001320C6842
:1024B0002300D34026D00123934025001D401C4219
:1024C000F4D04B68013B012BDAD8C8E7FF2D0BD8BD
:1024D000066A1C006C4365432C01641BA6434C69CF
:1024E000654335430562DAE7466A2D0A2C006C43E2
:1024F0006C4365432C01641BA6434C69654335431B
:102500004562CCE70020F0BD30B502680124A2434B
:1025100002600368174A1340CA6812028D682A4392
:10252000134303604B6803610368234303608368BC
:10253000114A134083608368DB0ADB020A698C69F5
:102540002243134383600B69002B04D082688023ED
:102550001B02134383600368084A13400A6813434D
:1025600003604B69426804490A40134343600020FA
:1025700030BDC046FFE0FFFFFF7FFFFFFFFFCFFF43
:10258000F8B504000D000368DB072CD40368194A72
:1025900013404A68C9680A4329690A431343036020
:1025A0004368154A1340AA68134343608368134A7B
:1025B00013406A6913438360C020000100F0E0F813
:1025C000002812D02A68002A11D0070E06025008EF
:1025D0000021801979410023FDF71EFF0003000B45
:1025E000E060002000E00120F8BD0120FCE70120B0
:1025F000FAE7C046F3E9FFEFFFCFFFFFFFFCFFFF65
:10260000044BDA6812090F231340034AD35CD84005
:102610007047C04600100240C4330008044BDA681B
:10262000120A07231340034AD35CD8407047C046C0
:1026300000100240D433000810B50E4BDB68DB03FA
:1026400005D40C4B1B68DB0612D50B4800E00B4889
:102650000849CA68920C0F231340094AD35C5843B7
:10266000CB689B0D032119400131FDF75FFD10BDC3
:102670000448EDE70010024000093D0000127A0016
:10268000DC3300080024F40010B5174BDA680C2383
:102690001340082B23D009D8002B0CD0042B14D1C5
:1026A000114B1B68DB061CD5104819E00C2B0CD114
:1026B000FFF7C2FF14E00C4B5A68520B072313407C
:1026C00001338020000298400AE0074B5A68520B01
:1026D00007231340013380200002984000E00448A3
:1026E00010BD0448FCE7C0460010024000093D0050
:1026F00000127A000024F40010B50C2801D000204C
:1027000010BD194BDB6C034000041843174B984273
:102710000FD0174B984219D0164B984206D0FFF7AE
:10272000B3FFFFF76DFFFFF779FFE9E7FFF7ACFFB6
:10273000E6E70D4B1B680422100018401A42DFD058
:10274000094B1B68DB060CD40B48D9E7064B1A6D06
:1027500080239B00100018401A42D1D08020000234
:10276000CEE70648CCE7C0460010024008000C0047
:102770000C000C0004000C000024F40000093D00D3
:1027800010B5194BDB6C184080231B01984211D007
:10279000C0231B0198421AD08023DB00984206D048
:1027A000FFF772FFFFF72CFFFFF738FF01E0FFF79D
:1027B0006BFF10BD0C4B1B680422100018401A421E
:1027C000F7D0094B1B68DB060CD40848F1E7064B31
:1027D0001A6D80239B00100018401A42E9D0802017
:1027E0000002E6E70248E4E7001002400024F4009B
:1027F00000093D0070B5036A0124A3430362036A24
:10280000456882697326B2430E6832430226B34399
:10281000CE683343A3434C682343456082618A6892
:1028200042630362002070BD70B5036A1026B34393
:102830000362036A456882690A4C22400C682402DC
:1028400022432024A343CC6824012343B3434C6890
:1028500024012343456082618A6882630362002009
:1028600070BDC046FF8CFFFF70B5026A0C4E32404F
:102870000262036A4568C2697324A2430C6822435A
:10288000084C2340CC682402234333404C68240284
:1028900023434560C2618A68C2630362002070BD41
:1028A000FFFEFFFFFFFDFFFF70B5026A0D4E3240D5
:1028B0000262036A4568C2690B4C22400C6824021C
:1028C00022430A4C2340CC682403234333404C6802
:1028D000240323434560C2618A68026403620020C6
:1028E00070BDC046FFEFFFFFFF8CFFFFFFDFFFFF64
:1028F00003688022D205904205D0114A904202D04E
:10290000104A904203D1702293434A6813438022B5
:10291000D205904205D00A4A904202D0094A90421C
:1029200003D1094A1340CA68134303608B68C3622A
:102930000B8883624369012213434361002070477F
:102940000008014000140140FFFCFFFF10B50B0020
:10295000110080225200934215D008D8012B0FD0CD
:10296000102B02D1FFF760FF09E0012007E0802271
:102970005201934202D1FFF797FF00E0012010BD02
:10298000FFF738FFFBE7FFF76FFFF8E770B50400CC
:102990000D000368DB0740D40368234A1A404B68E4
:1029A000C9680B4329690B43A9690B4313430360AF
:1029B00043681E4A1340AA681343436083681C4A55
:1029C00013406A69134383601A4B984201D0012077
:1029D00024E00C20FFF790FE002820D02968002971
:1029E0001FD0AA6980231B029A4208D04B08C01846
:1029F000FDF79CFB0004000CE06000200EE04000AE
:102A00004B08C018FDF792FB0B4B03404008072210
:102A100010401843E060002000E0012070BD01205C
:102A2000FCE70120FAE7C046F369FFEFFFCFFFFFA5
:102A3000FFFCFFFF00440040F0FF000010B5FA214A
:102A40008900FDF773FB0138034B586000229A6040
:102A500005321A6010BDC04610E000E082B0084B9D
:102A60001B680193019B431C00D00130002805D056
:102A7000034B1B68DB03F9D50138F7E702B0704759
:102A800010E000E0014B18607047C0461C000020B9
:102A9000014B18687047C0462400002070B500261E
:102AA0000C4D0D4C641BA410A64209D1002600F069
:102AB0005DFC0A4D0A4C641BA410A64205D170BDF2
:102AC000B300EB5898470136EEE7B300EB58984750
:102AD0000136F2E7103A0008103A0008103A0008F0
:102AE000143A0008002310B59A4200D110BDCC5C06
:102AF000C4540133F8E703008218934200D17047B1
:102B000019700133F9E730B5140005001A009BB0C5
:102B1000002C05DA8B230360012040421BB030BD3E
:102B2000822368469B0083810023009104919C428C
:102B300000D0631E02930593012369465B42CB815B
:102B400028001E9B00F078F8431C01DA8B232B60D1
:102B5000002CE3D00023009A1370DFE707B5009341
:102B600013000A00010002480068FFF7CCFF0EBD09
:102B700024000020F0B58E6885B007000C00039299
:102B800001939E423CD890238A89DB001A4234D0BC
:102B90000325096923685B1A0293636902985D4300
:102BA000EB0F5D19019B6D1001331B18AB4200D96F
:102BB0001D00530532D52900380000F027FB061E02
:102BC00009D10C233B6040230120A28940421343DA
:102BD000A38105B0F0BD029A2169FFF783FFA389A5
:102BE000144A1A4080231343A381029B2661F618DE
:102BF00026606561019EED1AA560019B9E4200D989
:102C0000019E32000399206800F0A3FAA368002017
:102C10009B1BA36023689E192660DAE72A00380010
:102C200000F052FB061EE0D13800216900F0A4FA42
:102C3000C7E7C0467FFBFFFFF0B5A1B003901D00C2
:102C40008B890F0016001B0611D50B69002B0ED1C6
:102C5000402100F0DBFA38603861002805D10C23F0
:102C6000039A0138136021B0F0BD40237B6100233B
:102C700008AC6361203363761033A3760795350083
:102C80002B78002B01D0252B47D1AB1B0593B542E8
:102C90000CD0320039000398FFF76CFF431C00D1C1
:102CA000AEE06269059B9446634463612B78002B18
:102CB00000D1A5E0012200235242626004A95432EF
:102CC00052186E1C2360E360A3601370A365052295
:102CD0003178544800F032FA751C00281FD1226860
:102CE000D30604D5532304A95B18202119701307B8
:102CF00004D5532304A95B182B21197033782A2B90
:102D000016D0350000210A20E3682A786E1C303A7C
:102D1000092A4ED9002911D117E00135B0E7414BFE
:102D20002268C01A0123834013432E002360CEE79C
:102D3000079B191D1B680791002B01DB0B9304E017
:102D40005B42E3600223134323602B782E2B0AD1CE
:102D50006B782A2B35D1079B02351A1D1B68079209
:102D6000002B2BDB0993304E03223000297800F032
:102D7000E5F9002806D04023801B834022680135F6
:102D8000134323602978062228486E1C217600F020
:102D9000D5F900283CD0264B002B25D10722079BD4
:102DA00007339343083307936369049A9B1863615D
:102DB00065E74343350001219B18A6E701235B42E9
:102DC000D0E700230A201A000135636029786E1CC1
:102DD0003039092903D9002BC5D00992C3E74243F2
:102DE000350001235218F1E707AB00933A002100A8
:102DF000104B039800E000BF0490049B0133D3D133
:102E0000BB890D985B0600D42DE7012040422AE7DC
:102E100007AB00933A002100064B039800F07CF8C2
:102E2000EAE7C046D4390008DA390008DE3900087C
:102E300000000000752B0008F7B5150001938A68A3
:102E40000B690C000090934200DA130022002B6003
:102E500043321278002A01D001332B6023689B068D
:102E600002D52B6802332B602268062317001F400F
:102E70001A4227D0230043331B785A1E93412268FD
:102E8000920630D4220001990098089E4332B04740
:102E9000431C25D0062320682A68E16800250340EA
:102EA000042B03D18D1AEB43DB171D40A368226965
:102EB000934201DD9B1AED180027BD4220D100206E
:102EC00010E00137E3682A689B1ABB42D2DD22007A
:102ED000012301990098089E1932B047431CF0D194
:102EE00001204042FEBD3020E1184331087021002E
:102EF0005A1C45310978A218433202331170C1E7D8
:102F00002200012301990098089E1A32B047431C01
:102F1000E6D00137D1E70000F0B58BB006920A0089
:102F200043320793059004920A7E0C00109B782A86
:102F300006D8622A08D8002A00D1C0E0582A52D008
:102F400026004236327022E0100063381528F7D888
:102F5000FDF7E2F816001F00F6FFF6FFF6FFF6FF9A
:102F60001F00F6FFF6FFF6FFF6FFA80036009A00F6
:102F7000F6FFF6FFB900F6FF3600F6FFF6FF9E00FB
:102F800026001A684236111D196013683370012338
:102F9000A7E0086819680A1D05060BD50D681A60B8
:102FA000002D03DA2D23049A6D421370614B0A271A
:102FB000039332E00D681A604106F1D52DB2EFE7B8
:102FC0000D681968081D18602E0601D50D6803E00C
:102FD0006D06FBD50D68ADB2564B0A2703936F2AD9
:102FE00017D1082715E045310A70524A03921A6832
:102FF000216820CA1A60080650D5CB0702D52023C5
:10300000194321601027002D03D1202322689A4301
:1030100022602300002243331A706368A360002BF0
:1030200003DB0422216891432160002D02D1049E1C
:10303000002B0CD0049E28003900FDF7FDF8039BFF
:10304000013E5B5C33702B0005009F42F3D9082FD3
:1030500009D12368DB0706D563682269934202DC45
:103060003023013E3370049B9B1B2361079B21008F
:1030700000930598069B09AAFFF7DEFE431C35D195
:10308000012040420BB0F0BD202209680A432260B3
:103090002200782145321170274AA7E74806ACD5AF
:1030A000ADB2AAE71A680D68101D49691860136867
:1030B0002E0601D5196002E06D06FBD519800023AC
:1030C000049E2361D2E71A68111D19601668002159
:1030D0003000626800F032F8002801D0801B606088
:1030E000636823610023049A1370BFE723693200E9
:1030F00006990598079DA847431CC1D023689B07E4
:1031000015D4099BE0689842BCDA1800BAE722009F
:10311000012306990598079E1932B047431CAFD08A
:103120000135E368099A9B1AAB42F0DCE9E7002518
:10313000F7E7C046E5390008F6390008C9B2821839
:10314000904201D10020704703788B42FBD00130C0
:10315000F6E710B5884202D98B18984203D30023B2
:1031600007E08B5C8354013AFBD210BDCC5CC454A5
:1031700001339A42FAD1F8E770B50500002910D062
:103180000C1F2368002B00DAE418280000F0D4F8A4
:103190001D4A1368002B05D163601460280000F0FD
:1031A000D3F870BDA34208D9216860188342F3D1D7
:1031B00018685B6841182160EEE71A005B68002B15
:1031C00001D0A342F9D911685018A0420BD1206850
:1031D0000918501811608342E0D118685B684118E3
:1031E00011605360DAE7A04202D90C232B60D5E7C7
:1031F00021686018834203D118685B684118216018
:1032000063605460CAE7C046D0000020F8B50323CD
:10321000CD1C9D43083506000C2D1FD20C25A9425C
:103220001ED8300000F088F825490A681400002CE8
:103230001AD1244F3B68002B04D12100300000F04C
:1032400069F838602900300000F064F8431C2BD185
:103250000C233000336000F077F803E0002DDEDA55
:103260000C2333600020F8BD23685B1B19D40B2BA3
:1032700003D92360E418256003E06368A2420ED1FD
:103280000B60300000F060F8200007220B30231D97
:103290009043C21A9842E6D01B1AA350E3E753604A
:1032A000EFE722006468C2E70323C41C9C43A042EA
:1032B000E1D0211A300000F02DF8431CDBD1C7E724
:1032C000D0000020D4000020F8B507000D00160043
:1032D000002905D11100FFF799FF04002000F8BD77
:1032E000002A03D1FFF748FF3400F7E700F034F875
:1032F0002C00B042F2D231003800FFF787FF041EE5
:10330000ECD029003200FFF7EDFB29003800FFF771
:1033100033FFE3E7002370B5064D040008002B607F
:10332000FDF708FD431C03D12B68002B00D0236060
:1033300070BDC0465005002010B5024800F014F8DA
:1033400010BDC0465805002010B5024800F00DF829
:1033500010BDC046580500200B1F1B68181F002B0E
:1033600001DA0B58C018704770477047F8B5C0466F
:10337000F8BC08BC9E467047F8B5C046F8BC08BC0F
:043380009E467047AE
:103384000A0D55494420253032582D222573222D0B
:10339400222573222D2530386C7800000A0D0A0D81
:1033A40025732025730000000A0D534E2025303963
:1033B4006C7500000A0D486F7572205469636B00C8
:1033C40000000000000000000102030406070809D1
:1033D4000000000001020304030406080C10182076
:1033E400300000000A0D436F6E66696720777269CA
:1033F400746500000A0D466163746F727920636F0F
:103404006E66696720777269746500000A0D4E6FF5
:10341400204461746120466163746F727900000016
:103424000A0D4C6F616420466163746F7279000009
:103434000A0D255365744465660000000A0D436F48
:103444006E66696742616E6B2D25642C20434E5471
:103454002D2564000A0D49324320544F7574202DE4
:10346400202564000A0D4C4D5020535441543A30E9
:103474007825303258000000205449413A307825EC
:1034840030325800205245463A30782530325800C0
:10349400204D4F44453A3078253032582000000002
:1034A4000A0D43616C6962205A65726F0000000066
:1034B4000A0D43616C696220436F6E630000000073
:1034C4000A0D2530327820434D44204D6F646275D7
:1034D400732036203A207772697465206164722003
:1034E40025303378203A20646174612000000000A4
:1034F4002025303278253032780000000A0D25303E
:10350400327820434D44204D6F6462757320313608
:1035140020282530326429203A2077726974652086
:103524006164722025303378203A2064617461200C
:10353400000000000A0D0A0D204552524F525F4907
:103544006C6C6567616C5F46756E6374696F6E0061
:10355400782100089C210008C4210008A621000845
:10356400C4210008B0210008C4210008C4210008B7
:10357400C4210008C4210008C4210008C421000893
:10358400C4210008BA2100083C0300200000000008
:103594004003002000000000F401002001000000AE
:1035A400F601002001000000F801002001000000E5
:1035B400FA01002001000000FC01002001000000CD
:1035C400FE010020010000000002002001000000B4
:1035D400020200200100000004020020010000009B
:1035E4000602002001000000080200200100000083
:1035F4000A020020010000000C020020010000006B
:103604000E02002001000000100200200100000052
:10361400120200200100000014020020010000003A
:103624001602002001000000180200200100000022
:103634001A020020010000001C020020010000000A
:103644001E020020010000002002002001000000F2
:1036540022020020010000002402002001000000DA
:1036640026020020010000002A02002001000000C0
:103674002C020020010000002E02002001000000A6
:103684003002002001000000400300200000000080
:1036940042030020000000000A0300200100000093
:1036A4000803002001000000320200200100000095
:1036B4003402002001000000280200200100000064
:1036C4003E030020000000003E0300200000000034
:1036D4003E030020000000003E0300200000000024
:1036E4003E030020000000003E0300200000000014
:1036F4003E030020000000003E0300200000000004
:103704003E030020000000003602002001000000FB
:1037140038020020010000003A02002001000000ED
:103724003C020020010000003E02002001000000D5
:1037340040020020010000004202002001000000BD
:1037440044020020010000004602002001000000A5
:1037540048020020010000004A020020010000008D
:103764004C020020010000004E0200200100000075
:10377400500200200100000052020020010000005D
:103784005402002001000000560200200100000045
:1037940058020020010000005A020020010000002D
:1037A4005C020020010000005E0200200100000015
:1037B40060020020010000006202002001000000FD
:1037C40064020020010000006602002001000000E5
:1037D40068020020010000006A02002001000000CD
:1037E4006C020020010000006E02002001000000B5
:1037F400700200200100000072020020010000009D
:103804007402002001000000760200200100000084
:1038140078020020010000007A020020010000006C
:103824007C020020010000007E0200200100000054
:10383400800200200100000082020020010000003C
:103844008402002001000000860200200100000024
:1038540088020020010000008A020020010000000C
:103864008C020020010000008E02002001000000F4
:1038740090020020010000009202002001000000DC
:1038840094020020010000009602002001000000C4
:1038940098020020010000009A02002001000000AC
:1038A4009C020020010000009E0200200100000094
:1038B400A002002001000000A2020020010000007C
:1038C400A402002001000000A60200200100000064
:1038D400A802002001000000AA020020010000004C
:1038E400AC02002001000000AE0200200100000034
:1038F400B002002001000000B2020020010000001C
:10390400B402002001000000C8020020CA02002006
:10391400CC0200200A03002008030020D202002069
:1039240000030020D4020020D6020020D802002088
:10393400DA020020DC020020DE020020E002002087
:10394400E2020020E4020020EA020020E802002053
:10395400EE020020EC020020F0020020F20200201F
:10396400F4020020F6020020F8020020FA020020EF
:10397400D20200203E030020FC020020FE010020B1
:1039840000020020FE0200203E0300203E0300202F
:103994003E0300203E0300203E0300203E0300209F
:1039A4003E0300203E0300203E0300203E0300208F
:1039B4003E0300203E0300203E0300203E0300207F
:1039C4003E0300203E0300203E0300203E0300206F
:1039D400232D302B2000686C4C00656667454647F4
:1039E4000030313233343536373839414243444577
:1039F40046003031323334353637383961626364E6
:043A040065660000F3
:083A080050CAFF7F010000001D
:043A1000E9000008C1
:043A1400C1000008E5
:103A1800536570202037203230323100000000001A
:103A280031303A35313A33340000000000002000CC
:103A3800E40C000028000020000000000000000046
:103A4800000000000000000000000000000000006E
:103A5800000000000000000000000000000000005E
:103A6800000000000000000000000000000000004E
:103A7800000000000000000000000000000000003E
:103A8800000000000000000000000000000000002E
:083A9800000000000000000026
:04000005080023A12B
:00000001FF
