:020000040800F2
:1000000000200020C12C0008DD0D0008DF0D0008D5
:1000100000000000000000000000000000000000E0
:10002000000000000000000000000000E10D0008DA
:100030000000000000000000E30D0008E50D0008CE
:10004000112D0008112D0008112D0008112D000898
:10005000112D0008112D0008112D0008E90D0008D0
:1000600000000000112D0008112D0008112D0008BE
:10007000FD0D0008490E000800000000112D0008C9
:100080000000000000000000000000000000000070
:10009000690E0008000000006D0E0008112D000818
:1000A00000000000112D000800000000000000000A
:1000B000950E00089D0E00080000000000000000E2
:1000C00010B5064C2378002B07D1054B002B02D02E
:1000D000044800E000BF0123237010BD8800002009
:1000E00000000000DC3D0008044B10B5002B03D0DD
:1000F0000349044800E000BF10BDC04600000000F6
:100100008C000020DC3D00080023C25C0133002A83
:10011000FBD1581E7047000003B4714649084000E7
:100120004900095E49008E4403BC70470022430821
:100130008B4274D303098B425FD3030A8B4244D3AF
:10014000030B8B4228D3030C8B420DD3FF220902F1
:1001500012BA030C8B4202D31212090265D0030BB0
:100160008B4219D300E0090AC30B8B4201D3CB03A6
:10017000C01A5241830B8B4201D38B03C01A5241E8
:10018000430B8B4201D34B03C01A5241030B8B42EA
:1001900001D30B03C01A5241C30A8B4201D3CB02D5
:1001A000C01A5241830A8B4201D38B02C01A5241BA
:1001B000430A8B4201D34B02C01A5241030A8B42BD
:1001C00001D30B02C01A5241CDD2C3098B4201D3D5
:1001D000CB01C01A524183098B4201D38B01C01A53
:1001E000524143098B4201D34B01C01A52410309CA
:1001F0008B4201D30B01C01A5241C3088B4201D379
:10020000CB00C01A524183088B4201D38B00C01A25
:10021000524143088B4201D34B00C01A5241411A4C
:1002200000D20146524110467047FFE701B5002059
:1002300000F0F0F802BDC0460029F7D076E770471D
:1002400003460B437FD4002243088B4274D3030937
:100250008B425FD3030A8B4244D3030B8B4228D3D8
:10026000030C8B420DD3FF22090212BA030C8B42FE
:1002700002D31212090265D0030B8B4219D300E09E
:10028000090AC30B8B4201D3CB03C01A5241830B23
:100290008B4201D38B03C01A5241430B8B4201D3D3
:1002A0004B03C01A5241030B8B4201D30B03C01AFC
:1002B0005241C30A8B4201D3CB02C01A5241830A76
:1002C0008B4201D38B02C01A5241430A8B4201D3A5
:1002D0004B02C01A5241030A8B4201D30B02C01ACF
:1002E0005241CDD2C3098B4201D3CB01C01A524136
:1002F00083098B4201D38B01C01A524143098B42BF
:1003000001D34B01C01A524103098B4201D30B01A7
:10031000C01A5241C3088B4201D3CB00C01A5241CC
:1003200083088B4201D38B00C01A524143088B4291
:1003300001D34B00C01A5241411A00D2014652412A
:10034000104670475DE0CA0F00D04942031000D349
:100350004042534000229C4603098B422DD3030A9E
:100360008B4212D3FC22890112BA030A8B420CD3AE
:10037000890192118B4208D3890192118B4204D3D7
:1003800089013AD0921100E08909C3098B4201D357
:10039000CB01C01A524183098B4201D38B01C01A91
:1003A000524143098B4201D34B01C01A5241030908
:1003B0008B4201D30B01C01A5241C3088B4201D3B7
:1003C000CB00C01A524183088B4201D38B00C01A64
:1003D0005241D9D243088B4201D34B00C01A52413B
:1003E000411A00D20146634652415B10104601D3C8
:1003F0004042002B00D54942704763465B1000D352
:10040000404201B5002000F005F802BD0029F8D0F7
:1004100016E770477047C046002B11D1002A0FD154
:10042000002900D1002802D00021C943080007B4E8
:10043000024802A14018029003BDC046D9FFFFFF49
:1004400003B4684601B5029800F006F8019B9E4689
:1004500002B00CBC7047C046F0B557464E46454604
:10046000DE46E0B504000D009246994683B08B420B
:1004700030D82DD04946504600F0BAF82900060081
:10048000200000F0B5F8331A9846203B9B4633D441
:100490005A465346934042461F00534693401E001F
:1004A000AF423AD8AF4200D178E05B46A41BBD41D1
:1004B000002B00DA75E00022002300920193012353
:1004C0005A4693400193012342469340009328E00B
:1004D0008242CFD900220023009201930C9B002B73
:1004E00001D01C605D600098019903B0F0BCBB4670
:1004F000B246A946A046F0BD424620239B1A52466A
:10050000DA40414613004A468A40170042461F43DC
:10051000534693401E00AF42C4D9002200230092EC
:1005200001934346002BD9D0FB0772081A43464675
:100530007B080EE0AB4201D1A2420CD8A41A9D4127
:10054000012024196D410021013E24184D41002E47
:1005500006D0AB42EED9013E24196D41002EF8D1F0
:10056000009801995B4600196941002B24DB2B00A0
:100570005A464446D3402A00E2401C005B46150020
:10058000002B2ADB26009E40330026004746BE4053
:100590003200801A9941009001919FE7A342BCD894
:1005A00083E74246202300219B1A002200910192FA
:1005B0000122DA40019286E7424620239B1A2A0054
:1005C00046469A402300F340444613432A00E24043
:1005D0001C005B461500002BD4DA42462F00202376
:1005E000260097409B1ADE403B003343CDE7C046D0
:1005F00010B5002903D100F007F8203002E0080010
:1006000000F002F810BDC0461C2101231B049842D3
:1006100001D3000C10391B0A984201D3000A083993
:100620001B09984201D30009043902A2105C40184A
:100630007047C046040302020101010100000000EE
:1006400000000000F0B593B0142200210DA802F0C4
:1006500046FF1022002109A802F041FF18220021C4
:1006600003A802F03CFF4B4B596B802080000143F4
:1006700059635A6B02400292029ADA6A01273A439E
:10068000DA62DB6A3B400193019B039703230493E7
:100690006138FF3803A9C00502F0D2FB3E4BC321ED
:1006A00089005A58FF2082435A50802252011A6012
:1006B0003A4CA36A3B43A362A26A8023DB02134342
:1006C000A362374E3068374A104080210904014345
:1006D0003160A36A802189021943A16233681A40FC
:1006E0008023DB031343336000250D9580235B02D9
:1006F0000E930F95109511950DA9200002F024FB83
:10070000636907229343023A134363612369BB433E
:100710001F4327612369244A1A408E235B00134339
:1007200023612369214A13402361E36804218B4339
:10073000E36033681E4A1A4080239B0413433360EE
:1007400063688B4363606368082293436360C023DC
:100750001B0609930A950B950C9509A9200002F038
:10076000D9FAA368134A1A4080235B051343A36098
:10077000114B18681149FFF7D9FC03008000C0181D
:1007800040000A21FFF7D2FC00E001380028FCD12C
:1007900013B0F0BD0010024000E100E00024014071
:1007A00008270140FFFF3FFF03FEFFFFFFFDFFFFA4
:1007B000FFFFFFFDE8FFFF6F1C000020400D03005E
:1007C00082B00F4A116B8020400101431163136B0B
:1007D00003400193019B0B4B9A6860218A439A6006
:1007E0009A6820318A439A60074A5A619A68683940
:1007F0008A439A60012252421A6102B07047C04691
:100800000010024000300240B71DC10410B5094A73
:100810009368012423439360002305E09A008458E1
:10082000044A14600133DBB28B42F7D3014B1868E2
:1008300010BDC04600300240F0B5CE46474680B5F8
:100840008DB00AAE0823984608220021300002F03D
:1008500046FE1822002104A802F041FE294BD96A65
:1008600004221143D962D96A0A400392039ADA6AD0
:1008700001242243DA62DA6A22400292029ADA6A98
:1008800002273A43DA62DB6A3B400193019BA025D1
:10089000ED054346AB621C4B99469F61434604936A
:1008A000059404A9280002F0CBFA049705940027C8
:1008B00006970797089704A9484602F0C1FA134A19
:1008C000D3680F218B43D360EA6811490A40EA607C
:1008D0002B680B402B6010230A9334717771B4712D
:1008E000300002F049FA0B4AC121890053581B021B
:1008F0001B0A5350802313600DB0C0BCB946B046EC
:10090000F0BDC0460010024000040050000001404D
:10091000FFFCFFFF00E100E0F0B5C64600B590B077
:100920001C22002109A802F0DAFD1822002103A8E8
:1009300002F0D5FD294CE36A02263343E362E36A01
:1009400033400293029B4023039304963D3B984619
:1009500005930125069507950895214F03A93800B1
:1009600002F06EFA8023039304964346059306959E
:100970000795089503A9380002F062FAA26B80215E
:1009800089030A43A263A36B0B400193019B154C9F
:10099000626880239B0413436360E368124A134038
:1009A000E3602368114A134023602368104A134010
:1009B0002360002309930F4A0A920B930C930D9323
:1009C0000E930F9309A9200002F092FAE3680A4AF5
:1009D0001340E36010B080BCB846F0BD0010024088
:1009E0000004005000540040FF7FFFFFFFFFF7FFAF
:1009F000FFFFFDFF1E06000001F8FFFF82B01B4B4A
:100A0000996B802212060A439A639B6BDB0FDB070C
:100A10000193019B164BC32189005A581548024087
:100A20005A50802292011A60134BDA6801218A43DE
:100A3000DA60DA6811491140E02212010A43DA60F3
:100A4000DA680F490A40DA60DA680E4911408022FC
:100A5000D2030A43DA60DA680B490A40DA60DA68DE
:100A60000A490A40DA6002B07047C04600100240EE
:100A700000E100E0FF00FFFF007C0040FFF1FFFF0E
:100A8000FFFFDFFFFFFFBFFFFFFF7FFFFFFFF9FF5C
:100A900000B587B0002308E0144A1168DA00D1409D
:100AA0000222D21A05A881540133022BF4DD05ABD2
:100AB0000022DA70002308E00D4A1168DA00D14004
:100AC0000322D21A03A881540133032BF4DD03ABB4
:100AD00000221A71074AD178054A1268009205AAC5
:100AE000054800F0CBFD07B000BDC0465000F81F20
:100AF0005400F81F6400F81FF43D000810B5364A92
:100B0000136801218B431360334B1B68DB07FBD455
:100B100032490B68324A1A4080231B0113430B6091
:100B2000304A116880235B000B4313602D4B1B6818
:100B30009B05FBD52B4B5A682B491140A022120272
:100B40000A435A605A681202120A5A60234801681E
:100B50008022520011430160196D2148014019653E
:100B6000196D0A431A651F4B1B6D9B05FBD51D4B69
:100B7000DA68F0218A43DA60DA681C490A40DA60F0
:100B8000DA681B490A40DA60DA6803218A43DA60CE
:100B9000144BDB680C221A42FAD1164C200002F0EA
:100BA00041FC200002F062FC0E4BDA6C0C218A43FF
:100BB000DA64DA6C10491140C02212010A43DA6487
:100BC000DA6C0E490A40DA64DA6C0D491140C02231
:100BD00012030A43DA6410BD002002400070004096
:100BE000FFE7FFFF00100240FF1FFFFFFFF8FFFFBE
:100BF000FFC7FFFF68FF1F00FFF3FFFFFFCFFFFFEF
:100C0000FFFFF3FF30B583B0614B596B01221143F5
:100C10005963596B0A400192019A9A6B80214905E8
:100C20000A439A639B6B0B400093009BFFF766FFA0
:100C3000584A136802210B431360FFF7FDFDFFF7CD
:100C400001FDFFF769FE00F043FA00F0BBFA00F087
:100C5000DBF9FFF7B5FD00F07BF9FFF7CFFE00F001
:100C600047F900F0D7FC4C4A4C494D4800F006FDCE
:100C7000FFF70EFF4B4A116880231B040B431360E0
:100C800049498B68494A1A4080231B0613438B60ED
:100C9000454B9B68002BFBDB022002F0D3FB00F0EE
:100CA00045FE01F0B9FA424CE423E158414800F016
:100CB000E5FC414800F0E2FC00F0BEFFE08E01F0F0
:100CC0003BF98022D205136801210B43136036489B
:100CD0008368364A13400B438360436804252B43E3
:100CE0004360364AD36802242343D360344B1869E7
:100CF000084318619A69120C12040A439A619968B0
:100D0000214399601A6906218A432A431A612D4BAF
:100D10001A682D4B1A601CE02C4B00221A7001F04F
:100D200093FA1CE02A4B00221A701F4A93681F494D
:100D30000B4004210B439360264B1B78002B13D1EF
:100D4000204B1A68204B1B68D31AE12109018B4202
:100D500010D201F065FF1D4B1B78002BDCD11C4B22
:100D60001B78002BE8D0DDE71A4B00221A7001F047
:100D7000CBFAE5E7144B1A60174B1A68501C186041
:100D80001821FFF759FA0029E3D100F08DFAE0E7C6
:100D90000010024010E000E01000002000000020E1
:100DA000103E00080827014000240140E8FFFF7FB3
:100DB0000C0400201C3E0008283E000800140140DE
:100DC000007C0040F40300200004002041050020C6
:100DD000400500203C050020A8000020FEE7FEE7BB
:100DE0007047704770470000034B5B69DB0602D514
:100DF000014B10225A6170470004014010B5C046F3
:100E000001F05EFA0D4B1A681A681B685B0702D581
:100E10000A4B04221A60094B1B681B0706D5074BB7
:100E200008221A60064B00221A7010BD034A93680C
:100E300004490B4004210B439360F6E70024014072
:100E400004040020E8FFFF7F10B5064B1B689B07DA
:100E500004D5044A536802210B43536001F006F99C
:100E600010BDC046007C00407047000010B5084B24
:100E70001B699B0703D5064B032252421A6100F0FF
:100E8000FDFE034A136801218B43136010BDC04669
:100E90000014014010B500F063FC10BD10B500F067
:100EA00051FF10BD10B503000C4A0D49521A0D49EF
:100EB0000968002907D00B490868C318934206D86F
:100EC000084A136010BD074907480860F3E702F0BD
:100ED000D3FA0C23036001204042F3E700200020F6
:100EE00000040000A40000207805002070470000E6
:100EF00010B586B01022002102A802F0F0FA114AC3
:100F0000916B012319439163926B13400193019BF1
:100F10000D4B04938024E40502A9200002F0DCF9C3
:100F20002368802293432360A36808490B40A36091
:100F3000636870218B436360A3689343A36006B02A
:100F400010BDC04600100240FFFF0000F8BFFFFFC9
:100F5000F0B587B002AD10220021280002F0BFFAE0
:100F6000244A516B042319435163526B134001937C
:100F7000019B214EC5229200B358FF218B43B350F1
:100F800080277F03376000232B8003931B4A049242
:100F900005931B4C2900200002F09EF92368802154
:100FA0008B4323606368702293436360A3688B4321
:100FB000A360144B1A6803208243023802431A606C
:100FC0001A680B30824302431A601A68E430824385
:100FD0001A60236A0A2293432362236D35329343B6
:100FE0002F3A134323657750BFF34F8FBFF36F8FB3
:100FF00007B0F0BD0010024000E100E0FFFF00007C
:101000000008014018080140F0B5C64600B58AB096
:1010100006AD10220021280002F061FA1022002102
:1010200002A802F05CFA234A516B20231943516352
:10103000526B13400193019B1F4BC52189005A58E5
:101040001E4802405A508022D2031A6004272F8083
:10105000002607961A4B984608930996194C2900C2
:10106000200002F039F923688025AB432360A36890
:10107000154A1340A36002960396434604930596CF
:1010800002AA0121200002F055F9104A1368BB435F
:101090001360236808229343134323606368683214
:1010A00093436360A368AB43A3600AB080BCB846B7
:1010B000F0BDC0460010024000E100E0FFFF00FF6D
:1010C0007707000000140140F8BFFFFF181401402B
:1010D00030B58FB01822002108A802F000FA1822BB
:1010E000002102A802F0FBF92F4B996B8020C0026F
:1010F000014399639A6B02400192019ADA6A0125D1
:101100002A43DA62DB6A2B400093009B042302939C
:10111000023B03930133049305950695033307932C
:10112000A02002A9C00501F08BFE204BC721890039
:101130005A581F4802405A50802292051A6096233E
:101140009B010893002309930A930B930C330C9390
:10115000184C08A9200001F007FFA36808221343D8
:10116000A360A368144A1340A360EFF3108285F3D1
:101170001088A36811490B40A36082F31088A2680D
:1011800080239B001343A360EFF3108285F3108844
:10119000A368AB43A36082F31088A368084A134096
:1011A000A360E3690FB030BD0010024000E100E031
:1011B000FF00FFFF00480040FFFEFFFFFFFBFFFFB7
:1011C000FFFDFFFFF0B5C64600B590B01C22002120
:1011D00009A802F084F91822002103A802F07FF97F
:1011E0002D4B996B80208002014399639A6B0240DA
:1011F0000292029ADA6A01252A43DA62DB6A2B40FC
:101200000193019B80239B000393FF3BFF3B984688
:1012100004930324059404270897A026F60503A940
:10122000300001F00DFE8023DB000393434604935E
:101230000594002406940794089703A9300001F050
:10124000FFFD164AC72189005358FF2083437F388A
:101250000343535080235B05136096239B0109933E
:101260000A940B940C940C230D930E940F940C4C35
:1012700009A9200002F07EF863680A4A13406360FF
:10128000A3682A229343A36023682B43236010B0F2
:1012900080BCB846F0BDC0460010024000E100E04E
:1012A00000440040FFB7FFFF10B50B4CA3881B04A0
:1012B000E1881943032000F08BFC084BF6229A5A70
:1012C000A280E280FC22985E0A21FEF7B9FF40B2BC
:1012D000A072E07210BDC046A80000200C040020DF
:1012E000F0B5C64600B5114BDA241A5BFC21585EF6
:1012F0005D5A521B92B21E395E5A92195A52DC261E
:101300009A5B4431595A521A92B29046E027DA5BFE
:10131000944642466244DA531D53995300040143F4
:10132000042000F055FC80BCB846F0BD0C04002041
:1013300010B5094BFC22995A1E3A99524432995AD7
:10134000423A99529A89120492214900595A1143FA
:10135000052000F03DFC10BD0C040020F0B5CE4689
:10136000474680B583B0364B984206DBFA235B00D4
:10137000984203DDFA20400000E03148314B6622FC
:101380009E5E68229D5A0232995E8C466C229A5A61
:10139000002D4BD0002A4BD0B04249DB884207DDFC
:1013A0000023994600270123FA218900019104E0D6
:1013B00001239946F6E701339BB2062B1DD8494617
:1013C00039431AD11F491A00183292008A1806258B
:1013D000565F15891A00193292008A180621545E48
:1013E000A4461289002A01D101950127B042E2DB0F
:1013F0006045E0DC01218946DDE74B46002B0FD03C
:10140000B6B2801B00B26346991B09B2002905D011
:10141000521B5043FEF78AFE2D1809E00020FBE71F
:10142000002F05D1604509DC019D01E0FA25AD00E2
:10143000280003B0C0BCB946B046F0BD1500F7E7C0
:10144000A8FDFFFF0C040020F0B5CE46474680B54E
:1014500083B00400314B86229D5E8822985A060094
:101460000232995E8C468C229A5A002852D0002A69
:1014700041D0A5423FD8A14207D200239946002778
:101480000123FA218900019104E001239946F6E73E
:1014900001339BB2062B1DD8494639431AD11F4947
:1014A0001A00203292008A180626955F16891A00C3
:1014B000213292008A180621505E84461289002A41
:1014C00001D101960127A542E2D8A445E0D301212C
:1014D0008946DDE74B46002B14D0ADB2601B00B24D
:1014E000921B50436346591B09B2002908D0FEF7EE
:1014F000A7FE3618B0B203B0C0BCB946B046F0BDC6
:101500000020F6E7002FF5D1A44501D3019EF1E7B5
:101510001600EFE7FA208000EDE7C0460C0400203B
:10152000F0B5C64600B5374A91235B00D35ADC219B
:10153000525A93425ED99B1A98463249E023C95ABF
:10154000891A002959DD2F4B9B892F485843FEF7F4
:1015500077FE434658432D4B9C4660442A49FEF78C
:101560006FFE0600274DDE23E85EFFF7F7FE04005E
:10157000FC23E85EFFF7F2FE050074432000F5301F
:10158000FF30FA218900FEF75BFE002837DB1D4F94
:1015900090235B00F8526E08A0192900FEF7C6FDE3
:1015A0000400FFF751FF6043F530FF30FA21890056
:1015B000FEF7BCFD84B2F623FC5243465B01424673
:1015C0009B1A9B004344D80030182900FEF7AEFD5B
:1015D00092235B00F8520E4B9B889C4201D90C4B26
:1015E0009C800B4BDB889C4201D2094BDC8080BC89
:1015F000B846F0BD002398469FE70348A9E70020BE
:10160000C5E7C0460C040020102700008813000026
:10161000A800002070B586B0144B5A6801210A4317
:101620005A605A68022002435A605A6802300243E4
:101630005A606A460023138053800133FF3393803E
:101640000B4B936003AB180070CA70C0094A31CBD2
:1016500031C2EFF3108081F31088074A13681F31FD
:101660000B43136080F3108806B070BD0058014032
:10167000C4000020B8000020004400400FB430B582
:10168000AFB032AB04CB0093B42101A801F05AFFF4
:1016900001A8FEF739FDC0B2002204E0002313497F
:1016A0000B80013292B283B293420ED901AB9C5CA3
:1016B0000E490B888D68EC540B889BB289880139E0
:1016C0008B42EBD001339BB2E9E7EFF310810123AA
:1016D00083F31088064A136880200343136081F364
:1016E00010882FB030BC08BC04B01847B8000020E8
:1016F00000440040134B5A8892B21B889BB29A4216
:1017000010D0104A53889168C95C53889BB2928864
:10171000013A934213D001339BB20A4A53800A4BD9
:1017200099627047EFF31081012383F31088064A12
:10173000136880208343136081F31088F1E700234E
:10174000EBE7C046B800002000440040024B5A6A54
:10175000024B1A707047C04600440040B40000209D
:1017600010B50E4B1B681B0605D50C4BDB691B0621
:1017700001D5FFF7BFFF094B1B689B0605D5074B3B
:10178000DB699B0601D5FFF7E1FF044BDB691B0713
:1017900002D5024B08221A6210BDC0460044004028
:1017A0000A22084B9B699B0708D4074B1B68DB0385
:1017B000F7D5531E002A04D01A00F2E7014B02228B
:1017C0009A6170470020024010E000E010B5054B20
:1017D0009C46604403688B4200D110BD0160FFF756
:1017E000DFFFFAE700000808F8B507000E00150053
:1017F000002406E0A300F158F81880B2FFF7E6FFD6
:101800000134A542F6DCF8BD70B504000E4E3A2155
:101810003000FEF7FBFFE823F050EFF3108372B6C1
:101820000A4D0B4AEA600B4AEA6083F31088EC2009
:10183000604380B23B223100FFF7D6FF6B68012284
:1018400013436B6070BDC0460C04002000200240B2
:10185000EFCDAB890504030210B50A4A13680133C2
:1018600013600948FFF70AFF084C2078FFF7CCFF08
:101870000748FFF703FF074B01221A7023785340F4
:10188000237010BD0C040020283E0008C401002075
:10189000503E00083D05002010B50220FFF7B4FFC0
:1018A0000148FFF7EBFE10BD603E000810B5BCB06C
:1018B000002307E09B0019495918086801A9C8507E
:1018C000013253B2DAB23A2AF4D93A2101A8FEF72A
:1018D0009DFFE8236A460432D358834206D0002194
:1018E0000F48FFF7CBFE00203CB010BD0D48FFF7BE
:1018F000C5FE0D4B1C680023DAB23A2A07D89B00BC
:1019000001A9C8580849C850013253B2F4E7064B40
:101910001C60FFF7A1FF0120E6E7C046D8010808D8
:10192000783E00088C3E00080C04002030B5F9B069
:10193000002307E09B0044495918086802A9C850D1
:10194000013253B2DAB2752AF4D9002404E001ABB3
:1019500001221A55013464B2012C12DCEC256543D6
:1019600002AB58193A21FEF751FF02AB9C46654481
:101970002B00E8331B688342E9D001AB00221A55E3
:10198000E8E701AB1B78012B10D0002B03D101AA93
:101990005278012A1ED02D4A00211170002B32D11D
:1019A00001AB5B78002B19D000232DE001AA5278FF
:1019B000012AEAD1EB326946082009188A580299AF
:1019C000914203D2214A01211170E7E71F4A002109
:1019D0001170E3E71D4A01211170DFE7FFF766FF91
:1019E000002829D100F0FEFB00211948FFF746FE30
:1019F000164C00252570FFF72FFF257000210920C8
:101A000000F0E6F818E00023DAB23A2A0DD80F49C0
:101A10000878EC21414302A8844661449B00C858E1
:101A20000C49C850013253B2EEE70A4B1A68074B13
:101A300019780948FFF722FE044A137801214B4028
:101A4000137079B030BDC04600000808C401002002
:101A50009C3E00080C040020A83E0008104B114AD0
:101A6000DA60114ADA605B68DB0709D5EFF31082B0
:101A700072B60B4B0B49D9600B49D96082F31088C1
:101A8000074B5B689B0709D5EFF3108272B6044BD6
:101A9000064919610649196182F310887047C046EA
:101AA00000200240EFCDAB8905040302BFAE9D8C40
:101AB00016151413044B5A6801210A435A605A68D8
:101AC00001310A435A607047002002400A22074B46
:101AD0009B69DB0708D5064B1B68DB03F7D5531E54
:101AE000002A01D01A00F2E77047C04600200240E9
:101AF00010E000E00A22084B9B699B0708D4074BC3
:101B00001B68DB03F7D5531E002A04D01A00F2E746
:101B1000014B02229A6170470020024010E000E071
:101B200070B50D4C626880239B001343636063684B
:101B300008252B4363607F23984300230360FFF74E
:101B4000C5FFFFF7D7FF6368AB4363606368034A71
:101B50001340636070BDC04600200240FFFDFFFFE0
:101B600070B504001500184A5368082003435360F9
:101B70002368002B19D10906FE23DB051940134BFE
:101B80001B681B021B0A194321600026FFF7B2FFE6
:101B90006368002B10D16560FFF7ACFF0A4A5368F9
:101BA00008218B435360300070BD226880231B06E0
:101BB000134323600126E9E7226880231B061343B1
:101BC00023600126E8E7C04600200240A80000206C
:101BD000F8B507000E00FFF741FF00250DE02000DB
:101BE000FFF79EFF12E001339BB2104A13810135CB
:101BF000ADB2012816D10F2D14D80C4B1C89E4006E
:101C00000B4B9C4664447F231C42E8D032003900D1
:101C10002000FFF7A5FF054B1B89064A9342E2D936
:101C20000023E2E7FFF746FFF8BDC046A80000200A
:101C300000600008FE03000010B50E4B00221A8061
:101C4000EFF31080012181F310880B4B1A680424F4
:101C500022431A6080F31088EFF3108081F310881C
:101C60001A681C3422431A6080F310881A680A43E9
:101C70001A6010BDC803002000480040044B1988BA
:101C8000044A118000221A80034B01321A707047F7
:101C9000C8030020CA030020C50100200C4B596A6C
:101CA0000C4B1B880C4AD154FE2B02D80133094A35
:101CB0001380084B1B88012B03D0084B00225A626B
:101CC0007047064A136801210B431360F5E7C046CD
:101CD00000480040C8030020C80100200014014053
:101CE00010B5144B1B88144A1288934209D2134929
:101CF000C85C1349886201339BB20E490B809A423B
:101D000000D010BDEFF31080012181F310880C4B3F
:101D10001A688024A2431A6080F31088EFF31080C1
:101D200081F310881A683F310A431A6080F31088E3
:101D3000E7E7C046CC030020CE030020C802002005
:101D40000048004010B51D4B1B689B0605D51B4B7A
:101D5000DB699B0601D5FFF7A1FF184B1B681B062B
:101D600005D5164BDB691B0601D5FFF7B9FF134BF1
:101D70001B685B061AD5114BDB695B0616D50F4B4A
:101D800040201862EFF3108C012181F310881A684B
:101D900082431A608CF31088EFF3108081F310886F
:101DA0001A6803310A431A6080F31088034BDB6919
:101DB0001B0702D5014B08221A6210BD00480040E3
:101DC00082B0044B1B680193019B0130024B1860E9
:101DD00002B0704710E000E0D8030020094B1B68F8
:101DE000DB0303D5084A1368013B1360064B1B68ED
:101DF000002B05D1054A1368013313600120704799
:101E00000020FCE710E000E0D8030020D40300200D
:101E100010B504000120FFF7D3FFFFF7DFFF002814
:101E200005D1044B9B699B0701D4C046F5E7014BE4
:101E30009C6210BD0054004010B50C000F494B6867
:101E40000F4A1A400F4B13434B60FFF7E1FF200A84
:101E5000FFF7DEFFE0B2FFF7DBFF0120FFF7B0FF87
:101E6000FFF7BCFF002803D1044B9B699B06F7D505
:101E7000024AD36920210B43D36110BD00540040B6
:101E8000008000FC9020038230B583B001AB0022BB
:101E90001A80244C6268244D2A40244B134363600B
:101EA000FFF7B6FF63681D40214B2B4363600120A1
:101EB000FFF786FFFFF792FF002803D1194B9B69BC
:101EC0005B07F7D5174B5D6AEDB201AB1D70FFF7ED
:101ED00085FF002803D1134B9B695B07F7D5114B96
:101EE0005C6AE4B201AA547059688022D2010A43A4
:101EF0005A600120FFF764FFFFF770FF002803D14D
:101F0000084B9B699B06F7D5064AD36920210B43F2
:101F1000D3612802201880B2064B9C46604480B2F0
:101F200003B030BD00540040008000FC90200181CF
:101F3000902402800080FFFF10B58421FF3101430F
:101F4000024B19800120FFF777FF10BDDC03002052
:101F500010B5134C2288134B134023800B4323806E
:101F600011490B402380034323801049194389B250
:101F70000120FFF761FF0A2400E004000120FFF7C1
:101F800083FF030406D5601E80B2002CF5D1002823
:101F900002D110BD2000FAE70020FFF775FFF8E737
:101FA000DC030020FFF1FFFFFF8FFFFF0080FFFF3A
:101FB00070B505000C4B00221A6000240AE02900CD
:101FC0000020FFF7C5FF084B1A689446604418606C
:101FD0000134A4B2072CF2D9034B18684000C008A2
:101FE0000130400880B270BDD003002010B504005D
:101FF0001C4B1A88E0231B011A40C023DB009A42C5
:1020000022D00FD880239B009A4220D08023DB006F
:102010009A4202D180231B010EE0002A1AD1C0236C
:102020005B0109E080231B019A4215D0A0231B010C
:102030009A4214D180235B000B494B43D813604371
:10204000FEF7FEF880B210BD8023DB00F4E78023AA
:102050005B01F1E70023EFE780239B00ECE700231F
:10206000EAE7C046DC0300201027000010B5334A21
:10207000136801331360324B1B88002B02D0013BE5
:102080002F4A13802F4B1B781E2B03D801332D4A68
:10209000137010BD2C4B01221A702A4B00221A70AB
:1020A0002A4B1B78002B40D1294A01211170294964
:1020B0000A7801204240D2B20A70002A35D126495E
:1020C0000A6801320A6025490A88013292B20A8000
:1020D0002349C98E080A824205D3204A0020108075
:1020E000204A013010701F4A1278002A10D01E4872
:1020F0000288013292B20280FF200140481F8242D2
:1021000018D0914204D8184A00211180154A117044
:10211000164A1288002A08D0013A92B213490A805E
:10212000002A02D1124A0121117001225340074AAC
:102130001370AEE70F4801240470E2E7FC030020AF
:10214000DE030020F803002040050020F9030020F2
:1021500041050020FA030020F4030020EE030020D4
:102160000C0400203E050020F0030020EC030020BA
:10217000430500203F050020014B18807047C046F2
:102180004405002010B50023084A13700848962122
:102190004900425A0424A243425206490A80064A90
:1021A0001370064A1380064A138010BD5E05002096
:1021B0000C0400205C0500205F050020460500207F
:1021C0004405002010B5064B1B88012B03D9013BA9
:1021D000034A138010BD012BFCD1FFF7D3FFF9E7B1
:1021E00044050020094BA022D2009A80822292004E
:1021F000DA8000221A81064A5A810A225A86A022CF
:1022000012019A86034ADA867047C0460C04002001
:10221000102700000A780000094BEC220949995266
:1022200002320221FF319952ED3A11395A523C31B2
:102230005A521832FF320F39FF3999527047C0464F
:102240000C0400202120000010B5194A8C235B00EB
:10225000D35A002B07D0174B1A681E239B1A144918
:102260008C2252008B52124A96235B00D35ADA0713
:1022700015D5104A12681D2A11DD012293430C4A1C
:102280009621490053520220034353528C235B0092
:102290000021D152084A136802318B431360FFF7C3
:1022A00091FF034A96235B00D25A044B1A8010BD5B
:1022B0000C040020F403002010E000E05C05002086
:1022C0000D4B1B681B0702D50C4B02221A700B4BDF
:1022D0001B78094A106C5A0009498852012B06D90B
:1022E000084B01221A70054B00221A707047013307
:1022F000024A1370FAE7C04600240140040400209B
:10230000E00300203C05002070B5524B1888524C69
:102310006043524D6988FDF709FF514B1860AB8847
:1023200058432100FDF702FF4E4B1A88831A6420A0
:1023300058434D4B1988891AFDF782FF8300C01856
:1023400040002D30FF30494B1880494A96235B00EE
:10235000D35A5B0704D40023464A1370464A1370CD
:10236000464B1B78012B03D0424B1B78012B0AD123
:10237000A023DB0508229A613D492532FF32885AA5
:102380003F4B03438B523F4B1B78012B36D03A4BCC
:102390001B78012B32D0FFF7C3F8354BDB88DB0706
:1023A0000AD5334CF623E35A608E58430A21FDF7D1
:1023B00047FF8A235B00E050304B1B78002B1CD179
:1023C000304B00221A702B4B1B78002B15D12A4B57
:1023D0001A70A023DB0508329A6225492532FF32A4
:1023E0008B5A5B045B0C8B52274B1B68002B04D071
:1023F0000023264A1360244A136070BD1C4CA08E33
:10240000FFF7D6FD214B1A689446604418601E4DB4
:102410002B6801332B6091235B00E05AFFF7E6FD48
:10242000FE23E052114B1A88FC23E2522968082946
:10243000B1D1164C23685800FDF778FE01304008F2
:102440000B4A91235B00D052002323600E4A136095
:10245000A1E7C0467800F81FB80B0000E003002099
:10246000200000207A00F81F7E00F81FE6030020FD
:102470000C04002042050020430500203E050020FA
:102480000080FFFF3F05002008040020E803002033
:1024900030B505000C0000210A480BE04008013B64
:1024A000002B06D0C207F9D54008074A504080B239
:1024B000F5E70131A14203DA6B5C58400823EFE7EE
:1024C00030BDC046FFFF000001A0FFFF124B1B788C
:1024D000002B14D0114B01221A80114B1B78002BBA
:1024E00011D01049962252008B5A042003438B527C
:1024F0000C4A96235B00D25A0B4B1A807047074B4D
:1025000000221A80E9E70749962252008B5A0420DC
:1025100083438B52ECE7C0465F0500204605002050
:102520005E0500200C0400205C0500200C490B68AF
:10253000020A1A7058700B4A106802780232027050
:1025400009480288013A028002330B60074A137877
:1025500002331370064A1388013313807047C04654
:1025600058050020500500204E0500204C05002095
:102570004A05002010B51400037813704378537097
:10258000294B82785A70C2781A70284B02795A7097
:1025900042791A70E11C264A1160A11C254A11607B
:1025A000254A032111700022A2701A88531E9BB283
:1025B0007C2B14D81C4B1B88802149018B4223D3D0
:1025C0001E498B4220D87A2A1ED89A181C498A4262
:1025D0001ADC1C4A94466344134A138010E0627864
:1025E00080235B42134363700223A370032011E036
:1025F0000D4B1B88DB00144A9B581888FFF796FF89
:102600000A4B1B88002BF3D1084B1B88002B02D1EF
:10261000094B187810BD627880235B4213436370C6
:102620000223A3700320F5E74A0500204E05002091
:1026300058050020500500204C05002079100000AE
:102640007A10000000F0FFFFA83F000810B514004A
:102650000378137043785370244B82785A70C27891
:102660001A70234B02795A7042791A70E11C214A80
:102670001160A11C204A1160204A03211170002220
:10268000A2701A88531E9BB27C2B0FD8174B1B8845
:10269000312B04D8322A02D89B18322B17DD144B69
:1026A0001B88002B18D1154B187810BD6278802339
:1026B0005B42134363700223A3700320F5E70B4BC7
:1026C0001B889B000E4A9B581888FFF72FFF084B6A
:1026D0001B88002BF3D1E2E7627880235B4213432F
:1026E00063700223A3700320DFE7C0464A05002081
:1026F0004E05002058050020500500204C05002004
:10270000784300080C4B1B681A7801684A705A78A5
:1027100001680A700279002A01D008490A70084944
:102720000A8801320A8007490A88013A0A8002337E
:10273000014A13607047C046580500205605002026
:102740004A0500204E05002000B583B02A4B1B78B7
:10275000002B08D0294B1B78002B0AD1284B1A8854
:10276000284B9A4205D0264B1A8880235B019A4257
:102770003ED1254B1A6811786B46D97152789A71FF
:102780001F4B1B881F4A934211D080225201934253
:1027900022D0194B1B78002B03D1184B1B78002B30
:1027A00028D0F120FFF7E8FC012003B000BD6A4605
:1027B0000632128815498A4205D0002A07D10F4AED
:1027C00000211170E1E70D4A01211170DDE70B4A8C
:1027D00010780028D9D1E8E76B4606331B885B07E1
:1027E00003D5054B01221A70D3E7FFF7CBFCD0E7E6
:1027F0000020DAE70120D8E75E0500205F05002011
:102800004A0500200110000058050020CDFA000004
:1028100000B583B0274B1A88274B9A4219D1274B12
:102820001A6811786B46D97152789A7106331B88F1
:10283000234A93421ED014D8224A934225D0224ADA
:10284000934208D12148FEF719FFFEF749FDFFF733
:1028500003F803B000BD002BFBD11D4B00221A7002
:10286000F7E71C4A93420DD01B4A9342F1D1FFF780
:102870001DF8EEE71948FEF701FFFEF759FDFEF7D8
:10288000EBFFE6E7FFF708F8E3E7114B01221A70C8
:10289000134B1B78012B0AD0124BDA8EFF23134007
:1028A000114A12889B1A053B104A1380D1E7104B3E
:1028B0001A70CEE74A0500200110000058050020DC
:1028C000C4640000AE1400005D180000C03E0008A3
:1028D00042050020CEAB00004BCE0000D03E0008E9
:1028E0003F0500200C040020F0030020EC03002032
:1028F0004305002070B50400150083781B02C278E0
:102900009B18304A1380021D2F4B1A602F4B012257
:102910001A8005320100280000F0D8FD2C4B00225F
:102920001A70FFF711FF002808D16A7880235B42F4
:1029300013436B700423AB70033070BDFFF768FF67
:10294000204B1A8880235B019A420AD3214B9A427A
:1029500007D81E4B1B887A2B03D8D3181E498B42ED
:102960000CDD1A4B1B88002B20D06A7880235B4239
:1029700013436B700223AB700320DEE7174B9C46BA
:10298000624492B20F4E328021781548FEF776FEEF
:102990000D4B1B6819785A781248FEF76FFE308885
:1029A000C000114BC018FFF7ADFEDAE7FFF78EFD50
:1029B000074B1B78002B01D10620BEE7FEF74CFF2A
:1029C0000620BAE74A050020580500204E050020E1
:1029D00056050020791000007A10000000F0FFFF7B
:1029E000E03E0008103F0008A83F000810B50100B5
:1029F0001000062200F06AFD062010BD10B582B05E
:102A00006B468178D971C178997106331B883F2B49
:102A100001D8002114E0517880235B420B435370AE
:102A20000323937003200EE06B4606331B88DB0103
:102A300088001B18054CA44663441B6813500131E1
:102A40001F29F1DD832002B010BDC04600600008E0
:102A500030B583B004001500414B00221A80837802
:102A60001B02C2789B183F4A138003791B024279EC
:102A70009B183D4A1380C21D3C4B1A600622010080
:102A8000280000F023FD0022394B1A70FFF75CFE8E
:102A9000002809D16A7880235B4213436B700423BA
:102AA000AB70033003B030BDFFF7B2FE2E4B1A8877
:102AB000531E9BB27C2B1BD82A4B1B8880214901BB
:102AC0008B4208D32B498B4205D87A2A03D8991810
:102AD0002948814215DD244B1B88002B33D06A78AE
:102AE00080235B4213436B700223AB700320D9E752
:102AF0006A7880235B4213436B700223AB70032020
:102B0000D0E71E498C4663449BB216490B8021785E
:102B100016480068007800901948FEF7AFFD0DE0F8
:102B2000124B1B6819785A781648FEF7A7FD0D4B13
:102B30001888C000144BC018FFF7E4FD0A4B1B882F
:102B4000002BEDD1C7E7FFF7C1FC094B1B78002B29
:102B500001D10620A6E7FEF77FFE0620A2E7C046C9
:102B6000600500204A0500204E0500205805002081
:102B700056050020791000007A10000000F0FFFFD9
:102B80001C3F0008103F0008A83F000870B5140063
:102B90000378137043785370033BDAB20D2A2ED8B2
:102BA00093001D4AD3589F462200FFF7E3FC05001F
:102BB000002D09D029002000FFF76AFC60556B1C2E
:102BC0000004000EE0540235280070BD2200FFF71B
:102BD0003DFD0500ECE72200FFF78CFE0500E7E76E
:102BE0002200FFF703FF0500E2E72200FFF706FFE0
:102BF0000500DDE72200FFF72BFF0500D8E70748B7
:102C0000FEF73CFD627880235B421343637001232F
:102C1000A3700325CEE7C046703F0008543F00086C
:102C200070B5204B1B78002B0FD01E4B00221A7062
:102C30001D4B1C88032C08D9A61E1C4D31002800F2
:102C4000FFF726FC2B78552B00D070BDAA5DC3B2D0
:102C50009A42FAD1631EEB5C0004000E8342F4D169
:102C6000134A21002800FFF791FF124B1880124BE6
:102C700000221A80EFF31080012181F310880F4B9E
:102C80001A680424A2431A6080F31088EFF31080BE
:102C900081F310881A687F310A431A6080F3108824
:102CA000D3E7C046C5010020CA030020C8010020A8
:102CB000C8020020CE030020CC03002000480040C2
:102CC0000D4885460D480E490E4A002302E0D458AF
:102CD000C4500433C4188C42F9D30B4A0B4C002364
:102CE00001E013600432A242FBD3FEF7FFF800F0CC
:102CF000C9FBFDF787FFFEE7002000200000002051
:102D0000880000208444000888000020740500200A
:102D1000FEE7000010B58368DB0711D4C368094AD9
:102D200013404A688C682243CC6822431343C36033
:102D300003699B009B080A6813430361002010BDD0
:102D40000120FCE7C73FFFFF10B58368DB070FD406
:102D5000C368084A1A400B684C6823438C682343B5
:102D6000CC68234309690B431343C360002010BDA3
:102D70000120FCE73CC2FEFF10B5030000790028EB
:102D800050D01A68002A57D05879012818D0022844
:102D900020D000280BD001209A79002A4BD0022A9B
:102DA0002CD0032A34D0012A1ED0012043E023492D
:102DB0004C6894434C600A681C6822430A60EBE745
:102DC0001E490868904308604A68186802434A60D0
:102DD0000020E1E71949086802430A604A68186858
:102DE00002434A600020D7E7144AD1681C68A14317
:102DF000D1601B6891680B4393601CE00F4A916897
:102E00001C68A14391601B68D1680B43D36012E03A
:102E10000A4A91681C68214391601B68D1680B4382
:102E2000D36008E0054A11681C68A1431160196865
:102E300053688B43536010BD0020FCE70004014041
:102E4000F0B5002216E0C6682B006B435F00FF1848
:102E5000FC43A446BE430F695F433E43C6604C68D3
:102E6000022C27D0046865462C404D686B432343F1
:102E7000036001320C682300D34037D00123934014
:102E800025001D401C42F4D04B68013B012BDAD8D1
:102E900083682C006C4366003619B3438E68744314
:102EA000234383600C684368A343CE687443234381
:102EB0004360C8E7FF2D0BD8066A1C006C436543CE
:102EC0002C01641BA6434C69654335430562C9E781
:102ED000466A2D0A2C006C436C4365432C01641B2D
:102EE000A6434C69654335434562BBE70020F0BD0E
:102EF00030B502680124A24302600368174A1340F8
:102F0000CA6812028D682A43134303604B68036149
:102F10000368234303608368114A13408360836816
:102F2000DB0ADB020A698C692243134383600B6965
:102F3000002B04D0826880231B0213438360036844
:102F4000084A13400A68134303604B694268044906
:102F50000A4013434360002030BDC046FFE0FFFF3E
:102F6000FF7FFFFFFFFFCFFFF8B504000D000368F0
:102F7000DB072CD40368194A13404A68C9680A431E
:102F800029690A43134303604368154A1340AA683A
:102F9000134343608368134A13406A691343836091
:102FA000C020000100F0E0F8002812D02A68002AB2
:102FB00011D0070E06025008002180197941002324
:102FC000FDF72AFA0003000BE060002000E001207A
:102FD000F8BD0120FCE70120FAE7C046F3E9FFEF66
:102FE000FFCFFFFFFFFCFFFF044BDA6812090F233E
:102FF0001340034AD35CD8407047C04600100240DB
:103000002C3E0008044BDA68120A07231340034AD7
:10301000D35CD8407047C046001002403C3E0008D8
:1030200010B50E4BDB68DB0305D40C4B1B68DB06CD
:1030300012D50B4800E00B480849CA68920C0F23D0
:103040001340094AD35C5843CB689B0D03211940B8
:103050000131FDF76BF810BD0448EDE700100240A8
:1030600000093D0000127A00443E00080024F400EC
:1030700010B5174BDA680C231340082B23D009D85E
:10308000002B0CD0042B14D1114B1B68DB061CD574
:1030900010480DE00C2B0CD1FFF7C2FF08E00C4BE1
:1030A0005A68520B072313400133802000029840D6
:1030B00010BD074B5A68520B072313400133802081
:1030C00000029840F4E70448F2E70448F0E7C046FD
:1030D0000010024000093D0000127A000024F400B4
:1030E00010B50C2801D0002010BD194BDB6C03403B
:1030F00000041843174B98420FD0174B984219D031
:10310000164B984206D0FFF7B3FFFFF76DFFFFF7AE
:1031100079FFE9E7FFF7ACFFE6E70D4B1B680422F8
:10312000100018401A42DFD0094B1B68DB060CD494
:103130000B48D9E7064B1A6D80239B0010001840FE
:103140001A42D1D080200002CEE70648CCE7C04624
:103150000010024008000C000C000C0004000C00E1
:103160000024F40000093D0010B5194BDB6C184039
:1031700080231B01984211D0C0231B0198421AD012
:103180008023DB00984206D0FFF772FFFFF72CFF89
:10319000FFF738FF01E0FFF76BFF10BD0C4B1B681A
:1031A0000422100018401A42F7D0094B1B68DB06B6
:1031B0000CD40848F1E7064B1A6D80239B001000E1
:1031C00018401A42E9D080200002E6E70248E4E70E
:1031D000001002400024F40000093D0070B5036AAD
:1031E0000124A3430362036A456882697326B243DC
:1031F0000E6832430226B343CE683343A3434C6880
:103200002343456082618A6842630362002070BD87
:1032100070B5036A1026B3430362036A4568826986
:103220000A4C22400C68240222432024A343CC6889
:1032300024012343B3434C68240123434560826146
:103240008A6882630362002070BDC046FF8CFFFF66
:1032500070B5026A0C4E32400262036A4568C26968
:103260007324A2430C682243084C2340CC682402F8
:10327000234333404C68240223434560C2618A687B
:10328000C2630362002070BDFFFEFFFFFFFDFFFF72
:1032900070B5026A0D4E32400262036A4568C26927
:1032A0000B4C22400C68240222430A4C2340CC6879
:1032B0002403234333404C68240323434560C26105
:1032C0008A6802640362002070BDC046FFEFFFFF02
:1032D000FF8CFFFFFFDFFFFF03688022D2059042D3
:1032E00005D0114A904202D0104A904203D1702278
:1032F00093434A6813438022D205904205D00A4A7C
:10330000904202D0094A904203D1094A1340CA6848
:10331000134303608B68C3620B8883624369012295
:10332000134343610020704700080140001401402E
:10333000FFFCFFFF10B50B001100802252009342EA
:1033400015D008D8012B0FD0102B02D1FFF760FF4A
:1033500009E0012007E080225201934202D1FFF7E9
:1033600097FF00E0012010BDFFF738FFFBE7FFF7F4
:103370006FFFF8E770B504000D000368DB0742D467
:103380000368234A1A404B68C9680B4329690B43F9
:10339000A9690B431343036043681E4A1340AA689C
:1033A0001343436083681C4A13406A691343836074
:1033B0001A4B984201D0012026E00C20FFF790FE26
:1033C000002822D02968002901D101201CE0AA6927
:1033D00080231B029A4208D04B08C018FCF7A6FEB7
:1033E00003041B0CE36000200EE040004B08C018F3
:1033F000FCF79CFE0A4B03400004400C07221040DF
:103400001843E060EFE7012070BD0120FCE7C046F3
:10341000F369FFEFFFCFFFFFFFFCFFFF0044004019
:10342000F0FF000010B5FA218900FCF77FFE01389B
:10343000034B586000229A6005321A6010BDC046E6
:1034400010E000E082B0084B1B680193019B431C15
:1034500000D00130002805D0034B1B68DB03F9D5F1
:103460000138F7E702B0704710E000E0014B186048
:103470007047C0461C000020014B18687047C046CA
:103480002400002070B500260C4D0D4C641BA410C8
:10349000A64209D1002600F0A1FC0A4D0A4C641B8B
:1034A000A410A64205D170BDB300EB589847013671
:1034B000EEE7B300EB5898470136F2E77C4400088A
:1034C0007C4400087C44000880440008002310B5B8
:1034D0009A4200D110BDCC5CC4540133F8E703001C
:1034E0008218934200D1704719700133F9E730B563
:1034F000140005001A009BB0002C05DA8B23036032
:10350000012040421BB030BD822368469B0083816E
:103510000023009104919C4200D0631E0293059306
:10352000012369465B42CB8128001E9B00F078F89E
:10353000431C01DA8B232B60002CE3D00023009A7C
:103540001370DFE707B5009313000A00010002487B
:103550000068FFF7CCFF0EBD24000020F0B58E6898
:1035600085B007000C00039201939E423CD8902343
:103570008A89DB001A4234D00969236860695B1AC2
:10358000029303234343DD0FED18019B029801339F
:103590001B186D10AB4200D91D00530532D5290010
:1035A000380000F049FB061E09D10C233B60402384
:1035B0000120A28940421343A38105B0F0BD029AC5
:1035C0002169FFF783FFA389144A1A40802313431C
:1035D000A381029B2661F61826606561019EED1AA3
:1035E000A560019B9E4200D9019E3200039920688C
:1035F00000F0A3FAA36800209B1BA36023689E1918
:103600002660DAE72A00380000F08CFB061EE0D1C5
:103610003800216900F0A4FAC7E7C0467FFBFFFF2E
:10362000F0B5A1B003901D008B890F0016001B069A
:1036300011D50B69002B0ED1402100F0FDFA386046
:103640003861002805D10C23039A0138136021B09A
:10365000F0BD40237B61002308AC636120336376B7
:103660001033A376079535002B78002B01D0252B3E
:1036700047D1AB1B0593B5420CD0320039000398FB
:10368000FFF76CFF431C00D1AEE06269059B9446D6
:10369000634463612B78002B00D1A5E00122002355
:1036A0005242626004A9543252186E1C2360E360D7
:1036B000A3601370A36505223178544800F032FAF4
:1036C000751C00281FD12268D30604D5532304A9F2
:1036D0005B1820211970130704D5532304A95B1824
:1036E0002B21197033782A2B16D0350000210A209F
:1036F000E3682A786E1C303A092A4ED9002911D184
:1037000017E00135B0E7414B2268C01A012383401E
:1037100013432E002360CEE7079B191D1B680791FA
:10372000002B01DB0B9304E05B42E36002231343B5
:1037300023602B782E2B0AD16B782A2B35D1079B4F
:1037400002351A1D1B680792002B2BDB0993304EA4
:1037500003223000297800F0E5F9002806D0402344
:10376000801B834022680135134323602978062299
:1037700028486E1C217600F0D5F900283CD0264B55
:10378000002B25D10722079B073393430833079368
:103790006369049A9B18636165E74343350001211F
:1037A0009B18A6E701235B42D0E700230A201A00FA
:1037B0000135636029786E1C3039092903D9002B43
:1037C000C5D00992C3E74243350001235218F1E7FF
:1037D00007AB00933A002100104B039800E000BFB4
:1037E0000490049B0133D3D1BB890D985B0600D4B0
:1037F0002DE7012040422AE707AB00933A00210061
:10380000064B039800F07CF8EAE7C0464044000805
:10381000464400084A440008000000005D350008E6
:10382000F7B5150001938A680B690C00009093426C
:1038300000DA130022002B6043321278002A01D0F4
:1038400001332B6023689B0602D52B6802332B6063
:103850002268062317001F401A4227D02300433353
:103860001B785A1E93412268920630D42200019997
:103870000098089E4332B047431C25D00623206899
:103880002A68E16800250340042B03D18D1AEB431D
:10389000DB171D40A3682269934201DD9B1AED18D6
:1038A0000027BD4220D1002010E00137E3682A68DC
:1038B0009B1ABB42D2DD2200012301990098089E89
:1038C0001932B047431CF0D101204042FEBD3020E8
:1038D000E1184331087021005A1C45310978A218BB
:1038E000433202331170C1E722000123019900988D
:1038F000089E1A32B047431CE6D00137D1E70000DA
:10390000F0B58BB006920A004332079305900492FB
:103910000A7E0C00109B782A07D8622A09D8002A50
:1039200000D1C1E0582A00D18CE026004236327026
:1039300022E0100063381528F7D8FCF7EDFB1600DD
:103940001F00F6FFF6FFF6FFF6FF1F00F6FFF6FF7B
:10395000F6FFF6FFA80036009A00F6FFF6FFB90062
:10396000F6FF3600F6FFF6FF9E0026001A68423684
:10397000111D1960136833700123A7E008681968E6
:103980000A1D05060BD50D681A60002D03DA2D23DC
:10399000049A6D421370614B0A2703931BE00D6874
:1039A0001A604106F1D52DB2EFE70D681968081DC0
:1039B00018602E0601D50D6803E06D06FBD50D6875
:1039C000ADB2564B082703936F2A00D0023723006D
:1039D000002243331A706368A360002B03DB0422C8
:1039E000216891432160002D02D1049E002B0CD050
:1039F000049E28003900FCF71FFC039B013E5B5C22
:103A000033702B0005009F42F3D9082F09D123689A
:103A1000DB0706D563682269934202DC3023013E4E
:103A20003370049B9B1B2361079B21000093059827
:103A3000069B09AAFFF7F4FE431C4CD1012040422B
:103A40000BB0F0BD45310A70344A03921A68216800
:103A500020CA1A60080616D5CB0702D520231943C1
:103A600021601027002DB2D1202322689A432260C2
:103A7000ADE7202209680A432260220078214532FE
:103A80001170274AE1E74806E6D5ADB2E4E71A68C7
:103A90000D68101D4969186013682E0601D519605C
:103AA00002E06D06FBD519800023049E2361BBE76D
:103AB0001A68111D1960166800213000626800F054
:103AC00031F8002801D0801B606063682361002307
:103AD000049A1370A8E72369320006990598079D98
:103AE000A847431CAAD023689B0715D4099BE0680C
:103AF0009842A5DA1800A3E7220001230699059849
:103B0000079E1932B047431C98D00135E368099AE3
:103B10009B1AAB42F0DCE9E70025F7E751440008C7
:103B200062440008C9B28218904201D10020704757
:103B300003788B42FBD00130F6E710B5884202D9FA
:103B40008B18984203D3002307E08B5C8354013A1F
:103B5000FBD210BDCC5CC45401339A42FAD1F8E7D1
:103B600070B50500002910D00C1F2368002B00DA67
:103B7000E418280000F018F91D4A1368002B05D13D
:103B800063601460280000F017F970BDA34208D9E3
:103B9000216860188342F3D118685B68411821607E
:103BA000EEE71A005B68002B01D0A342F9D9116837
:103BB0005018A0420BD12068091850181160834298
:103BC000E0D118685B68411811605360DAE7A042E1
:103BD00002D90C232B60D5E721686018834203D1FA
:103BE00018685B684118216063605460CAE7C0468A
:103BF0006405002070B50F4E0D00316804000029E7
:103C000002D100F0BFF830602900200000F0BAF8BF
:103C1000431C0AD00323C51C9D43A84207D0291A80
:103C2000200000F0AFF8431C01D101256D422800AF
:103C300070BDC04668050020F7B50322CB1C934336
:103C4000083306001F000C2B32D20C27B94231D8A2
:103C5000300000F0A9F8324D2B681C00002C2ED14A
:103C600039003000FFF7C6FF0400431C1ED12C684A
:103C70002500002D4AD123682900E3183000019364
:103C800000F080F8019B834243D123680337FF1A79
:103C900003239F4308370C2F00D20C273900300034
:103CA000FFF7A8FF431C34D02368DF19276013E017
:103CB000002BCBDA0C23002533602800FEBD2268E0
:103CC000D11B20D40B2917D9E2192760A34211D1A7
:103CD0002A606368116053603000250000F06CF8C2
:103CE00007220B35231D9543EA1A9D42E5D05B1B45
:103CF000A350E2E75A60ECE76268A34201D12A6070
:103D0000EAE75A60E8E723006468A7E72C006D68DB
:103D1000AFE70C233000336000F04EF8CDE7C0462B
:103D200064050020F7B507000E001400002905D136
:103D30001100FFF781FF05002800FEBD002A03D116
:103D4000FFF70EFF2500F7E700F03EF801908442F0
:103D500003D835004308A342EED321003800FFF713
:103D60006BFF051EE8D0019B22009C4200D91A007F
:103D700031002800FFF7AAFB31003800FFF7F0FE02
:103D8000DAE70000002370B5064D040008002B6040
:103D9000FDF788F8431C03D12B68002B00D023606B
:103DA00070BDC0466C05002010B5024800F014F844
:103DB00010BDC0467005002010B5024800F00DF897
:103DC00010BDC046700500200B1F1B68181F002B7C
:103DD00001DA0B58C018704770477047F8B5C046F5
:103DE000F8BC08BC9E467047F8B5C046F8BC08BC95
:043DF0009E46704734
:103DF4000A0D55494420253032582D222573222D91
:103E0400222573222D2530386C7800000A0D0A0D06
:103E140025732025730000000A0D534E20253039E8
:103E24006C7500000A0D0000000000000000000096
:103E3400010203040607080900000000010203044C
:103E4400030406080C10182030000000436F6E664F
:103E54006967207772697465000000000A0D466185
:103E640063746F727920636F6E6669672077726915
:103E7400746500000A0D4E6F204461746120466130
:103E840063746F72790000000A0D4C6F6164204600
:103E94006163746F727900000A0D2553657444657B
:103EA400660000000A0D436F6E66696742616E6BBF
:103EB4002D25642C20434E542D2564000A0D4361A6
:103EC4006C6962205A65726F000000000A0D43613C
:103ED4006C696220436F6E63000000000A0D253098
:103EE400327820434D44204D6F6462757320362030
:103EF4003A207772697465206164722025303378C2
:103F0400203A2064617461200000000020253032D2
:103F140078253032780000000A0D253032782043AD
:103F24004D44204D6F64627573203136202825304E
:103F3400326429203A2077726974652061647220A2
:103F440025303378203A2064617461200000000039
:103F54000A0D0A0D204552524F525F496C6C656739
:103F6400616C5F46756E6374696F6E00A82B000800
:103F7400CC2B0008FE2B0008D62B0008FE2B0008D3
:103F8400E02B0008FE2B0008FE2B0008FE2B000887
:103F9400EA2B0008FE2B0008FE2B0008FE2B00086D
:103FA400F42B00085C0500200000000046050020FA
:103FB4000000000010040020010000001204002092
:103FC4000100000014040020010000001604002079
:103FD4000100000018040020010000001A04002061
:103FE400010000001C040020010000001E04002049
:103FF4000100000020040020010000002204002031
:104004000100000024040020010000002604002018
:104014000100000028040020010000002A04002000
:10402400010000002C040020010000002E040020E8
:1040340001000000300400200100000032040020D0
:1040440001000000340400200100000036040020B8
:104054000100000038040020010000003A040020A0
:10406400010000003C040020010000003E04002088
:104074000100000040040020010000004204002070
:104084000100000046040020010000004804002054
:10409400010000004A040020010000004C0400203C
:1040A4000100000046050020000000004805002033
:1040B40000000000F204002001000000F0040020D1
:1040C400010000004E040020010000005004002004
:1040D400010000004404002001000000E604002068
:1040E40001000000E804002001000000EA040020B0
:1040F40001000000EC040020010000005405002031
:1041040000000000540500200000000054050020B9
:1041140000000000540500200000000054050020A9
:10412400000000005204002001000000540400209C
:104134000100000056040020010000005804002083
:10414400010000005A040020010000005C0400206B
:10415400010000005E040020010000006004002053
:10416400010000006204002001000000640400203B
:104174000100000066040020010000006804002023
:10418400010000006A040020010000006C0400200B
:10419400010000006E0400200100000070040020F3
:1041A40001000000720400200100000074040020DB
:1041B40001000000760400200100000078040020C3
:1041C400010000007A040020010000007C040020AB
:1041D400010000007E040020010000008004002093
:1041E400010000008204002001000000840400207B
:1041F4000100000086040020010000008804002063
:10420400010000008A040020010000008C0400204A
:10421400010000008E040020010000009004002032
:10422400010000009204002001000000940400201A
:104234000100000096040020010000009804002002
:10424400010000009A040020010000009C040020EA
:10425400010000009E04002001000000A0040020D2
:1042640001000000A204002001000000A4040020BA
:1042740001000000A604002001000000A8040020A2
:1042840001000000AA04002001000000AC0400208A
:1042940001000000AE04002001000000B004002072
:1042A40001000000B204002001000000B40400205A
:1042B40001000000B604002001000000B804002042
:1042C40001000000BA04002001000000BC0400202A
:1042D40001000000BE04002001000000C004002012
:1042E40001000000C204002001000000C4040020FA
:1042F40001000000C604002001000000C8040020E2
:1043040001000000CA04002001000000CC040020C9
:1043140001000000CE04002001000000D0040020B1
:1043240001000000D204002001000000D404002099
:1043340001000000D604002001000000D804002081
:1043440001000000DA04002001000000DC04002069
:1043540001000000DE04002001000000E004002051
:1043640001000000E204002001000000E404002039
:1043740001000000F8040020FA040020FC040020DE
:10438400F2040020F004002002050020380500207B
:104394000405002006050020080500200A05002069
:1043A4000C0500200E050020100500201205002039
:1043B400140500201A050020180500201E05002001
:1043C4001C050020200500202205002024050020D3
:1043D40026050020280500202A05002002050020CB
:1043E400540500202C0500201A0400201C04002081
:1043F4002E0500203005002054050020540500201F
:1044040054050020540500205405002054050020C4
:1044140054050020540500205405002054050020B4
:1044240054050020540500205405002054050020A4
:10443400540500205405002054050020232D302B62
:104444002000686C4C006566674546470030313291
:1044540033343536373839414243444546003031E8
:104464003233343536373839616263646566000047
:08447400E4BFFF7F010000001E
:04447C00E90000084B
:04448000C10000086F
:104484004A756C2032302032303232000000000095
:1044940031323A31323A343000000000000020005A
:1044A400E40C0000280000200000000000000000D0
:1044B40000000000000000000000000000000000F8
:1044C40000000000000000000000000000000000E8
:1044D40000000000000000000000000000000000D8
:1044E40000000000000000000000000000000000C8
:1044F40000000000000000000000000000000000B8
:084504000000000000000000AF
:0400000508002CC102
:00000001FF
