:020000040800F2
:1000000000200020ED3F000885220008872200081C
:1000100000000000000000000000000000000000E0
:10002000000000000000000000000000892200081D
:1000300000000000000000008B2200088D22000854
:100040003D4000083D4000083D4000083D4000089C
:100050003D4000083D4000083D400008A522000842
:10006000000000003D4000083D4000083D40000801
:10007000B922000805230008000000003D400008E8
:100080000000000000000000000000000000000070
:100090002523000800000000292300083D40000837
:1000A000000000003D4000080000000000000000CB
:1000B0005123000859230008000000000000000040
:1000C00010B5064C2378002B07D1054B002B02D02E
:1000D000044800E000BF0123237010BD8C00002005
:1000E0000000000080500008044B10B5002B03D026
:1000F0000349044800E000BF10BDC04600000000F6
:1001000090000020805000080023C25C0133002AC8
:10011000FBD1581E7047000003B4714649084000E7
:100120004900095E49008E4403BC70470022430821
:100130008B4274D303098B425FD3030A8B4244D3AF
:10014000030B8B4228D3030C8B420DD3FF220902F1
:1001500012BA030C8B4202D31212090265D0030BB0
:100160008B4219D300E0090AC30B8B4201D3CB03A6
:10017000C01A5241830B8B4201D38B03C01A5241E8
:10018000430B8B4201D34B03C01A5241030B8B42EA
:1001900001D30B03C01A5241C30A8B4201D3CB02D5
:1001A000C01A5241830A8B4201D38B02C01A5241BA
:1001B000430A8B4201D34B02C01A5241030A8B42BD
:1001C00001D30B02C01A5241CDD2C3098B4201D3D5
:1001D000CB01C01A524183098B4201D38B01C01A53
:1001E000524143098B4201D34B01C01A52410309CA
:1001F0008B4201D30B01C01A5241C3088B4201D379
:10020000CB00C01A524183088B4201D38B00C01A25
:10021000524143088B4201D34B00C01A5241411A4C
:1002200000D20146524110467047FFE701B5002059
:1002300000F0F0F802BDC0460029F7D076E770471D
:1002400003460B437FD4002243088B4274D3030937
:100250008B425FD3030A8B4244D3030B8B4228D3D8
:10026000030C8B420DD3FF22090212BA030C8B42FE
:1002700002D31212090265D0030B8B4219D300E09E
:10028000090AC30B8B4201D3CB03C01A5241830B23
:100290008B4201D38B03C01A5241430B8B4201D3D3
:1002A0004B03C01A5241030B8B4201D30B03C01AFC
:1002B0005241C30A8B4201D3CB02C01A5241830A76
:1002C0008B4201D38B02C01A5241430A8B4201D3A5
:1002D0004B02C01A5241030A8B4201D30B02C01ACF
:1002E0005241CDD2C3098B4201D3CB01C01A524136
:1002F00083098B4201D38B01C01A524143098B42BF
:1003000001D34B01C01A524103098B4201D30B01A7
:10031000C01A5241C3088B4201D3CB00C01A5241CC
:1003200083088B4201D38B00C01A524143088B4291
:1003300001D34B00C01A5241411A00D2014652412A
:10034000104670475DE0CA0F00D04942031000D349
:100350004042534000229C4603098B422DD3030A9E
:100360008B4212D3FC22890112BA030A8B420CD3AE
:10037000890192118B4208D3890192118B4204D3D7
:1003800089013AD0921100E08909C3098B4201D357
:10039000CB01C01A524183098B4201D38B01C01A91
:1003A000524143098B4201D34B01C01A5241030908
:1003B0008B4201D30B01C01A5241C3088B4201D3B7
:1003C000CB00C01A524183088B4201D38B00C01A64
:1003D0005241D9D243088B4201D34B00C01A52413B
:1003E000411A00D20146634652415B10104601D3C8
:1003F0004042002B00D54942704763465B1000D352
:10040000404201B5002000F005F802BD0029F8D0F7
:1004100016E770477047C046002B11D1002A0FD154
:10042000002900D1002802D00021C943081C07B4CC
:10043000024802A14018029003BDC046D9FFFFFF49
:1004400003B4684601B5029800F024F8019B9E466B
:1004500002B00CBC7047C04670B500220C4B0400C3
:100460000D0001F0E7F9002804D12000290001F077
:100470002FF970BD064B00222000290000F096FDE8
:1004800001F026F980231B069C466044F1E7C04634
:100490000000E041F0B557464E464546DE46E0B521
:1004A00004000D009246994683B08B4230D82DD07F
:1004B0004946504601F0E6F929000600200001F007
:1004C000E1F9331A9846203B9B4633D45A465346AB
:1004D000934042461F00534693401E00AF423AD815
:1004E000AF4200D178E05B46A41BBD41002B00DA8F
:1004F00075E0002200230092019301235A469340A5
:100500000193012342469340009328E08242CFD9D1
:1005100000220023009201930C9B002B01D01C6051
:100520005D600098019903B0F0BCBB46B246A94695
:10053000A046F0BD424620239B1A5246DA4041466F
:1005400013004A468A40170042461F4353469340D1
:100550001E00AF42C4D900220023009201934346FB
:10056000002BD9D0FB0772081A4346467B080EE0E1
:10057000AB4201D1A2420CD8A41A9D4101202419FA
:100580006D410021013E24184D41002E06D0AB42A2
:10059000EED9013E24196D41002EF8D10098019941
:1005A0005B4600196941002B24DB2B005A46444668
:1005B000D3402A00E2401C005B461500002B2ADBDA
:1005C00026009E40330026004746BE403200801A77
:1005D0009941009001919FE7A342BCD883E742462E
:1005E000202300219B1A0022009101920122DA406F
:1005F000019286E7424620239B1A2A0046469A40EB
:100600002300F340444613432A00E2401C005B46AB
:100610001500002BD4DA42462F00202326009740F5
:100620009B1ADE403B003343CDE7C046F8B5574642
:100630004E464546DE464402E0B545000F1C640ABE
:100640002D0EC60F002D47D0FF2D4DD0002380204A
:100650009A469B46E400C00404437F3D7802430A67
:1006600099467A00FB0F9846120E4B4644D0FF2A5B
:1006700011D0D8008023DB040343994600207F3A41
:10068000AD18474653467740691C0F2B3FD8724A36
:100690009B00D3589F46FF35002B00D079E052468F
:1006A00002231A4392460220EBE747464C46834614
:1006B0005B46022B28D0032B00D1C6E0012B4FD183
:1006C00000200024C005FF0720433843F0BCBB4690
:1006D000B246A946A046F8BD002C71D104239A4623
:1006E000033B00259B46B9E7002C63D108239A46BB
:1006F000063BFF259B46B1E7002B50D15246013304
:100700001A4392460120BCE7FF200024DAE748465E
:10071000260C2404220C0404240C4B4620001B0C41
:10072000504374435A435E431219030C9B189C4276
:1007300003D9802252029446664400041A04000C35
:1007400012189401601E84411B0C920E9B191443D5
:100750009B011C431B0172D50120630804401C430C
:1007600008007F3000283CDD630704D00F232340BE
:10077000042B00D00434230103D580310800374B0B
:100780001C40FE28C0DCA401640AC0B29AE737000E
:100790008EE7524603231A439246032071E74846E8
:1007A00001F052F84A46431F9A402D1A9146002004
:1007B000763D66E70C239A46093BFF259B464DE7AD
:1007C000200001F041F87625431F9C4000236D4234
:1007D0009A469B462D1A41E780240027FF20E40318
:1007E00070E701231B1A1B2B00DD69E79E312000F7
:1007F0008C40D840631E9C410443630704D00F2300
:100800002340042B00D0043463011AD501200024B6
:1008100058E78020C003044209D04B46034206D16A
:100820004C46044364024746FF20640A4AE780209E
:10083000C003044364023700FF20640A42E7290032
:100840008EE7A4010020640A3CE78020C003044333
:100850006402FF20640A35E798500008FFFFFFF7A5
:1008600070B5051E0ED000F0EFFF9E2304001B1A8A
:10087000962B0CDC082801DD083CA5406D026D0AB2
:10088000D8B201E000200025C005284370BD992B97
:1008900009DD020029001B3291404A1E91410522C8
:1008A000121AD5400D43052C01DD621F9540290029
:1008B000084E31406A0709D00F202840042805D08F
:1008C00004314A0102D59F2331401B1B89014D0A87
:1008D000D8B2D9E7FFFFFFFBF0B54F46D6464646F4
:1008E0000D0001001800C0B517002B035A0A4B0F6A
:1008F0001343CA00914602036E004100520AEC0FF6
:100900007D0F1543760D490DC00F8246AC46FF00A2
:10091000721A844200D198E0002A00DC81E00029AC
:1009200000D1B6E0C9498E4200D172E18021280091
:10093000090408438446382A00DD5EE11F2A00DDF1
:10094000EEE1202039006546801A8740D14085407D
:100950000D4339004F1EB9416746D7402943DB1B81
:100960004A46551AA945894149425B1A9846434669
:100970001B0200D4CCE043465B025B0A9846434628
:10098000002B00D12CE1404600F05EFF0100083949
:10099000202228004346521A8B40D0408D4003430A
:1009A0008E4200DD17E18E1B721C1F2A00DDA7E1BD
:1009B000202118002E00891A8D408840D640D3404F
:1009C000691E8D4130439846002605436B0709D0C8
:1009D0000F232B40042B05D02B1DAB42AD416D42A4
:1009E000A8441D0043461B0200D494E0974B721CA0
:1009F0009A4200D19DE04146954BED0819400B000D
:100A0000520549075B0229431B0B520D1205134384
:100A1000E407234308001900E0BCBA46B146A846E3
:100A2000F0BD002A43D08A1B002E00D02AE14C469C
:100A30001C4300D1D1E1541E012A00D11FE2834D95
:100A4000AA4200D172E2220023E1002A00DC98E0F1
:100A5000002942D07D498E4200D1DAE08021280071
:100A6000090408438446382A00DD29E11F2A00DCF6
:100A700087E1110065462039CD40202A04D040206E
:100A80006146821A91400F4339004F1EB9410D4310
:100A90001BE12900394300D1B5E0511E012A00D1E4
:100AA000ABE16A48824200D1B2E10A0043E76949FA
:100AB000751C0D4200D0CFE0002E00D093E14946D6
:100AC000194300D1D1E16146394300D0E3E1494601
:100AD0005807C9080143DB0826E02900394300D143
:100AE00091E0511E012A05D05848824200D18FE181
:100AF0000A00B8E73D004D444D458941634498469E
:100B000049428844434602261B0200D5EBE0013EE1
:100B10006B0700D05CE74346E9085A0711433200EF
:100B2000DB084A48824221D01B0352051B0B520DA1
:100B30006CE70023002169E72A003A4369D04A465E
:100B40005807D108DA0880231B0308431A4207D04C
:100B50002900ED081D4203D12A00FF084807384349
:100B6000430FC1005B07C908194313000A001A4369
:100B700000D113E28022120313431B03334A1B0BE1
:100B800044E7002A4BD08A1B002E00D1E7E02F4813
:100B9000814200D195E1802000040343382A00DD22
:100BA00043E11F2A00DDDBE120201D004E46801AB4
:100BB0008540D64035434E4686403000D340461EE1
:100BC000B0419C440543ED19BD429B415B426344E7
:100BD00098460E007FE01E4A761A13409846F5E6C6
:100BE000280000F031FE010018311F2900DCCFE69B
:100BF0002B00083883400025D2E662463A431100B4
:100C00004F1EB941ACE649465807C9080143DB0805
:100C100087E749465A07C9081143DB08A6E70D498B
:100C2000701C084200D0BBE0002E00D014E1494601
:100C3000194300D175E12900394300D07EE14946CE
:100C40005807C9080143DB086EE7C046FF070000EC
:100C5000FFFF7FFFFE0700004946CD1B6146581A83
:100C6000A94589414942884601004046091A8846FB
:100C7000090200D5A6E04146294300D07FE60023C3
:100C8000002451E7C74CA14200D1C7E080242404CE
:100C90002343382A54DC1F2A00DDCCE020244846B8
:100CA000A41A1D004E46A040D640A5400400D340E3
:100CB00062463543661EB441D31A9C46254344E040
:100CC00062463A4315006F1EBD414D444D45894172
:100CD00049428846984443461B0200D418E7B14B6A
:100CE00001369E4249D04246AF4B01211A401300C3
:100CF0006A080D401543D9075B0898460D4365E621
:100D000018001F3EF040202A03D040218A1A934049
:100D10001D43691E8D410023002698460543F7E6D2
:100D2000110065462039CD40202A04D0402061467C
:100D3000821A91400F4339004F1EB94129430FE6F3
:100D40004A4613431D006B1E9D417D1BAF429B41D4
:100D500062465B42D31A984654460E0007E6484660
:100D6000184300D1B3E0501E012A00D10DE18D4D92
:100D7000AA4200D1A5E0020010E7320000230021C2
:100D800044E620213800891A65468F408D40D040C6
:100D9000791E8F4105433D436746D740DB1994E7F1
:100DA000804A904200D1ECE03900494449459241E3
:100DB000634452429B18DD0749085B0898460600C9
:100DC0000D43A5E64A46BD1AAF42894162464942F3
:100DD000D31A5B1A98465446D1E56C07F9082143AB
:100DE000EB0804009DE64A461A4375D16146394333
:100DF00014D1802300241B03BCE64A46D51BA94519
:100E00008941624649429B1A5B1A98460126AEE523
:100E10004A46D1085A071143DB08A7E66346F9089A
:100E20005A0754461143DB08A0E64A4613431D0007
:100E30006B1E9D41C7E614001E00203CE640202AA0
:100E400005D04024A21A93404A461A4391464D4683
:100E50006B1E9D41354378E74A461A4300D06BE646
:100E60006B07F9081943EB0880E66146394354D013
:100E70006346F9085C072143DB08040054E64A4650
:100E8000BD1AAF42894162464942D31A5B1A98465D
:100E9000040001266BE54A46D51BA94589416246F7
:100EA00049429A1A521A9046120232D54A46BD1A3F
:100EB000AF42894162464942D31A5B1A9846040000
:100EC00084E56346F9085A071143DB084EE6F90842
:100ED00068070143EB0824E662463A4300D198E6EE
:100EE0004A46D1085A071143DA0880231B031A42E5
:100EF00008D06046C5081D4204D154462A00F908AE
:100F0000430719434B0FC9005B07C9081943130076
:100F10002CE64146294300D0FAE500230A000024CC
:100F200002E66B07F9081943EB08FDE56346F9088B
:100F30005B07194363460400DB0817E63D004D4498
:100F400063444D45894198464942884443461B02C3
:100F500000D4DDE54246144B01261A409046D7E501
:100F600010001E002038C640202A05D04020821ADA
:100F700093404A461A4391464D466B1E9D41354368
:100F800021E602000023002140E54A46D519BD4272
:100F900089416344984649428844B3E50021014AA7
:100FA0000B0033E5FF070000FFFF7FFFF8B5574652
:100FB0004E464546DE460400E0B51F0010000B0318
:100FC000620F4E00CD0F5B0A39031343490AE2005A
:100FD000440F2143C24C91469246C0007A0080469D
:100FE000760D520DFF0FA24200D1B4E001246740FC
:100FF000BB46BD4200D188E0B41AA446002C00DCF8
:10100000B2E0002A00D1C5E0B54A964200D18BE299
:101010008022120411436246382A00DDA1E11F2A12
:1010200000DD16E220270C00BF1ABC400200A046DB
:101030006446B840E240444614430200501E8241D8
:101040006046C14022435B1A49468C1AA145924131
:1010500052429B1A984643461B0200D417E143466E
:101060005B025B0A98464346002B00D16CE1404688
:1010700000F0EAFB0200083A202120004346891ACA
:101080009340C84094400343964200DD57E1961BCD
:10109000711C1F2900DDCBE1202218002600521A06
:1010A00094409040CE40CB40621E944130439846DD
:1010B00000260443630709D00F232340042B05D0E7
:1010C000231DA342A4416442A0441C0043461B02CA
:1010D00000D4DFE0824B01369E4200D1FBE0424665
:1010E000804BE4081A401300710552075B0222434B
:1010F0001B0B490D0905ED07194329431000F0BCEE
:10110000BB46B246A946A046F8BDB41AA446002C78
:1011100058DD002A00D19EE0714A964200D13BE1A1
:101120008022120411436246382A00DDC1E01F2AE2
:1011300000DCBBE10C00203AD44022006446202CA5
:1011400004D040273F1BB940084380464446611EF7
:101150008C411443B1E00C0004432AD0BB46BD428D
:101160002DD0614CA446B4446446002C5CD0941B42
:10117000A446002E00D015E14D461D4300D1C3E129
:10118000651E012C00D10CE2554EB44200D1F8E1AD
:10119000AC460EE10A00024300D136E12200013ADA
:1011A000012C00D1C6E14E4CA44500D1F4E0944698
:1011B00031E701246740BB46BD4200D01CE74A4CE2
:1011C000A446B4446446002C00D1CFE0941BA4464E
:1011D000002E00D15CE1424EB24200D1ECE180260B
:1011E000360433436446382C00DDB3E11F2C00DDA8
:1011F00038E22026361B1C00B4404F46A046644609
:10120000E74044463C434F46B7403E00771EBE4150
:1012100034436646F340C918241884429B415B421C
:101220009846160088444EE0304A741C144200D0A0
:10123000D6E04A461A43002E00D05BE1002A00D1D6
:10124000A5E10A00024300D0BBE14A465907D20893
:101250000A43DB0827E00A00024300D174E12200C0
:10126000013A012C05D01E4CA44500D194E09446CF
:1012700059E74844484592415B1898460400524259
:101280009044434602261B0200D5C4E0013E63079A
:1012900000D011E74346B4465907E2080A43DB0889
:1012A0000F498C4540D061461B0349051B0B490D76
:1012B00020E701430C00611E8C414C444C45924197
:1012C00052429046984443461B02E0D5044B0136F7
:1012D0009E4200D09FE03100002300220AE7C04672
:1012E000FF070000FFFF7FFF01F8FFFFFE07000080
:1012F000002A00D160E10A0002434DD04A465C0753
:10130000D20822438024DB082403234207D0CE08DE
:10131000264204D15D463300C20849070A43510FF3
:10132000D200D20849070A431100194300D1C8E18D
:10133000802109030B431B03D5491B0BDAE6D54972
:10134000B61A0B409846B5E6200000F07DFA020080
:1013500018321F2A00DC8FE623000838834000245F
:1013600092E608430200501E82416DE6CA4C721C90
:10137000224200D0ADE04A461A43002EB8D1002ADE
:1013800000D158E10A00024300D059E14A4659070A
:10139000D2080A43DB0886E74A465907D2080A43BF
:1013A000DB08C1E7BA4DAA4200D11EE180252D0419
:1013B0002B436446382C5DDC1F2C00DDD0E020255B
:1013C00067462D1B4E461C00FE40AC4034434E4643
:1013D000AE403500FB406E1EB541C91A2C434EE0AD
:1013E0004A46141AA1459241524290465F1A3A0069
:1013F0004746D21B9046120200D58BE0424622435C
:1014000000D030E6002300254DE74A465907D208B0
:101410000A43DB0844E742469E4B61081A4013002A
:10142000012214400C43DA075B089846144341E656
:101430001A001F3EF2401600202903D04022511A04
:101440008B401C43621E944100233443984600267F
:101450001DE70C00203AD44022006446202C04D022
:1014600040273F1BB940084380464446611E8C41DB
:101470002243E9E54C4623431C00631E9C41041BA8
:10148000A0429B415B42CB1A98465D461600E2E5BE
:101490004E461E4300D1AEE0661E012C00D1FDE099
:1014A0007B4FBC4200D107E1B4469BE66446202254
:1014B000121B0C00944007009040A0466446421E58
:1014C00090416246E7404446D1403C4304435B18A8
:1014D000F3E66F4CA24200D1D5E048445B18484582
:1014E000894149425B18DC0740085B0898461600B2
:1014F0000443CCE6002A00D082E00A00024340D137
:10150000802300251B0313E74B07C2081A435D46DF
:10151000CB08C5E64A46841AA0429241CB1A5242F1
:101520009B1A98465D469EE54A465907D2080A43EB
:10153000DB08F9E64A46141AA14592415B1A524269
:101540009B1A9846012686E54A465907D2080A435F
:10155000DB08A5E64C4623431C00631E9C415BE66A
:1015600065461E00203DEE40202C05D040252D1B59
:10157000AB404C461C43A2465446631E9C41344338
:101580007DE74B07C2081A435D46CB08CCE60A004C
:10159000024300D136E74B07C2081A435D46CB0829
:1015A00081E64A46841AA0429241CB1A52429B1AC3
:1015B00098465D4601264EE54B07C2081A43CB0804
:1015C000B2E64A46141AA14592415F1A5242BA1A2B
:1015D000904612026BD54A46841AA0429241CB1A19
:1015E00052429B1A98465D4664E54B07C2081A436F
:1015F0005D46CB0898E64B07C2081A43CB084FE676
:101600000A00024390D04A465C07D2081443802265
:10161000DB081203134208D0CE08164205D1C008D9
:101620004907084304005D463300610FE2004907A3
:10163000D2080A4378E64B07C2081A43CB0832E6C1
:1016400048445B184845924198465242904443466C
:1016500004001B0200D41AE642460E4B01261A4033
:10166000904614E666461F00203EF740202C05D029
:101670004026361BB3404C461C43A2465446631ECC
:101680009C413C43C8E511000023002232E5C046DE
:10169000FF070000FFFF7FFFFE0700004A46141807
:1016A000844292415B18984652429044E9E5424692
:1016B000224300D1A6E6EAE54B07C2081A43CB084D
:1016C00032E600220149130014E5C046FF0700007E
:1016D0000A0030B5134C530009030500090B002024
:1016E0005B0DD20FA34204DD0F48834202DD0F4B96
:1016F000D01830BD8020400301430D48C01A1F2878
:1017000008DD0C48C31AD9400B005842002AF0D11A
:101710001800EEE7084CC540A446634499400B000E
:101720002B43F2E7FE0300001D040000FFFFFF7FD4
:101730003304000013040000EDFBFFFF70B543000D
:101740004602C40FFE201B0E591C750A08420CD01D
:10175000E022920094466D07360B63441B05334329
:10176000E40723432800190070BD002B14D1002D7D
:101770001BD0280000F068F80A281CDC0B232A0084
:101780001B1ADA40030015339D400E4B12031B1A3F
:101790005B05160B5B0DE1E7002D09D0320B8026AF
:1017A0003603094B6D071643D8E700230026D5E71B
:1017B0000026054BD2E703002A000B3B9A40002588
:1017C000E3E7C04689030000FF0700008446101CC1
:1017D00062468C46191C634600E0C0461FB500F007
:1017E0000BF9002801D40021C8421FBD10B500F03C
:1017F00055F84042013010BD10B500F0FDF800284A
:1018000001DB002010BD012010BDC04610B500F066
:10181000F3F8002801DD002010BD012010BDC046F6
:1018200010B500F077F8002801DC002010BD012081
:1018300010BDC04610B500F06DF8002801DA002098
:1018400010BD012010BDC0461C2101231B0498427D
:1018500001D3000C10391B0A984201D3000A083941
:101860001B09984201D30009043902A2105C4018F8
:101870007047C0460403020201010101000000009C
:101880000000000010B5002903D1FFF7DDFF203074
:1018900002E0081CFFF7D8FF10BDC046F0B54F4668
:1018A0004646D646944691461A03120B184DC0B5CB
:1018B0004C000F0392465A00060080463F0B012061
:1018C000640DC90F520DDB0FAC420AD0AA4203D0FF
:1018D000944201D157450DD0E0BCBA46B146A84666
:1018E000F0BD3D003543F7D1A242F5D152466546E1
:1018F0002A43F1D10120C845EED1994206D0002CEF
:10190000EAD13E433000461EB041E5E70020E3E760
:10191000FF070000F0B54E4645465746DE46040038
:101920001800E0B516001B031B0B324D0F034A00D5
:1019300099464300A446B0463F0B520DC90F5B0DBC
:10194000C00FAA4229D0AB4218D0002A2AD13C436A
:10195000A34665426541002B02D14C46264327D061
:10196000002D15D1814228D00220013908400138CC
:10197000F0BCBB46B246A946A046F0BD4D462E433C
:101980002FD1002AEED13C4365426541002DE9D0BC
:101990000028EDD101204042EAE73D00254320D157
:1019A0009342EBD0002BDDD14C462643DAD1DBE766
:1019B0005B460020002BDBD0D6E79A420ADCE7DB4F
:1019C0004F45D1D810D000204F45D1D20029E1D0C9
:1019D0000800CDE7434258410223404218400138F5
:1019E000C6E702204042C3E7C445BDD80020C44535
:1019F000BED2EBE7FF070000F0B54E46454657461E
:101A0000DE4604001800E0B516001B031B0B314D29
:101A10000F034A0099464300A446B0463F0B520DBF
:101A2000C90F5B0DC00FAA4211D0AB4214D0002ADF
:101A30002FD13C43A34665426541002B14D14C464F
:101A4000264311D15B460020002B17D010E03D004B
:101A5000254312D193421CD14D462E430DD1002A6D
:101A600004D13C4365426541002D0DD1814216D021
:101A7000022001390840013800E00220F0BCBB46DA
:101A8000B246A946A046F0BD0028F7D10120404249
:101A9000F4E7002BEAD14C462643E7D1E8E79A4227
:101AA00006DD434258410223404218400138E5E731
:101AB0009A42E9DB4F45DBD806D000204F45DDD206
:101AC0000029E3D00800D9E7C445D1D80020C44597
:101AD000D4D2F5E7FF070000F0B593B0142200213F
:101AE0000DA802F092FE1022002109A802F08DFE3E
:101AF0001022002105A802F088FE4C4B596B802073
:101B00008000014359635A6B02400292029ADA6ADA
:101B100001273A43DA62DB6A3B400193019B03975A
:101B200003230493002507956138FF3803A9C005F6
:101B300002F01CFB3E4BC32189005A58FF20824310
:101B40005A50802252011A603A4CA36A3B43A36266
:101B5000A26A8023DB021343A362374E3068374A00
:101B600010408021090401433160A36A8021890269
:101B70001943A16233681A408023DB0313433360A7
:101B80000D9580235B020E930F95109511950DA96D
:101B9000200002F06FFA636907229343023A13436D
:101BA00063612369BB431F4327612369244A1A40A9
:101BB0008E235B00134323612369224A1340236170
:101BC000E36804218B43E36033681F4A1A40802393
:101BD0009B041343336063688B436360636808222C
:101BE00093436360C0231B0609930A950B950C95DC
:101BF00009A9200002F024FAA368144A1A4080239D
:101C00005B051343A360124B18681249FEF78EFA66
:101C100003008000C01840000A21FEF787FA002860
:101C200001D00138FBE713B0F0BDC0460010024000
:101C300000E100E00024014008270140FFFF3FFFD2
:101C400003FEFFFFFFFDFFFFFFFFFFFDE8FFFF6F4C
:101C50001C000020400D030082B00F4A116B802051
:101C6000400101431163136B03400193019B0B4B34
:101C70009A6860218A439A609A6820318A439A6000
:101C8000074A5A619A6868398A439A600122524227
:101C90001A6102B07047C046001002400030024096
:101CA000B71DC10410B5094A93680124234393600A
:101CB00000238B4206D29A008458044A14600133F0
:101CC000DBB2F6E7014B186810BDC0460030024099
:101CD000F0B5D6464F464646C0B58CB00AAE08238E
:101CE000994608220021300002F08FFD002409945B
:101CF0002B4BD96A04221143D962D96A0A40039254
:101D0000039ADA6A01252A43DA62DA6A2A400292E1
:101D1000029ADA6A022188460A43DA62DB6A0B40D9
:101D20000193019BA027FF054B46BB621D4B9A46C2
:101D300099614B460493059506940794089404A969
:101D4000380002F013FA434604930595069407946D
:101D5000089404A9504602F009FA134AD3680F21E7
:101D60008B43D360FA6811490A40FA603B680B4024
:101D70003B6010230A9335717471B571300002F025
:101D800091F90B4AC121890053581B021B0A535079
:101D9000802313600CB0E0BCBA46B146A846F0BD43
:101DA000001002400004005000000140FFFCFFFF53
:101DB00000E100E0F0B5C64600B590B01C2200215D
:101DC00009A802F022FD2A4CE36A02263343E362AB
:101DD000E36A33400293029B4023039304963D3B06
:101DE000984605930125069507950895214F03A967
:101DF000380002F0BBF98023039304964346059311
:101E000006950795089503A9380002F0AFF9A26B73
:101E1000802189030A43A263A36B0B400193019BBA
:101E2000154C626880239B0413436360E368134A84
:101E30001340E3602368124A134023602368114A69
:101E400013402360002309930F4A0A920B930C93CB
:101E50000D930E930F9309A9200002F0DFF9E368B8
:101E60000A4A1340E36010B080BCB846F0BDC046DB
:101E7000001002400004005000540040FF7FFFFFAC
:101E8000FFFFF7FFFFFFFDFF1E06000001F8FFFF49
:101E900082B01B4B996B802212060A439A639B6B9C
:101EA000DB0FDB070193019B164BC32189005A58B6
:101EB000154802405A50802292011A60134BDA688A
:101EC00001218A43DA60DA6811491140E0221201E7
:101ED0000A43DA60DA680F490A40DA60DA680E49C4
:101EE00011408022D2030A43DA60DA680B490A40C3
:101EF000DA60DA680A490A40DA6002B07047C04620
:101F00000010024000E100E0FF00FFFF007C004005
:101F1000FFF1FFFFFFFFDFFFFFFFBFFFFFFF7FFFBF
:101F2000FFFFF9FF00B587B0002308E0144A1168ED
:101F3000DA00D1400222D21A05A881540133022BC3
:101F4000F4DD05AB0022DA70002308E00D4A1168C9
:101F5000DA00D1400322D21A03A881540133032BA3
:101F6000F4DD03AB00221A71074AD178054A1268E2
:101F7000009205AA054800F0A9FD07B000BDC046C3
:101F80005000F81F5400F81F6400F81FD8500008D4
:101F900010B5364A136801218B431360334B1B681D
:101FA000DB07FBD432490B68324A1A4080231B01FD
:101FB00013430B60304A116880235B000B431360AE
:101FC0002D4B1B689B05FBD52B4B5A682B491140A9
:101FD000A02212020A435A605A681202120A5A6078
:101FE000234801688022520011430160196D214885
:101FF00001401965196D0A431A651F4B1B6D9B053E
:10200000FBD51D4BDA68F0218A43DA60DA681C4997
:102010000A40DA60DA681B490A40DA60DA680321AC
:102020008A43DA60144BDB680C221A42FAD1164C50
:10203000200002F08DFB200002F0AEFB0E4BDA6CAC
:102040000C218A43DA64DA6C10491140C022120173
:102050000A43DA64DA6C0E490A40DA64DA6C0D4934
:102060001140C02212030A43DA6410BD002002406E
:1020700000700040FFE7FFFF00100240FF1FFFFF5E
:10208000FFF8FFFFFFC7FFFF68FF1F00FFF3FFFF21
:10209000FFCFFFFFFFFFF3FF30B583B0664B596BF7
:1020A000012211435963596B0A400192019A9A6BBC
:1020B000802149050A439A639B6B0B400093009B68
:1020C000FFF766FF5D4A136802210B431360FFF7B9
:1020D000FFFDFFF701FDFFF76DFE00F04DFA00F088
:1020E000C1FA00F0EBF9FFF7B7FD00F091F9FFF747
:1020F000CFFE00F05BF900F0B5FC514A514952485F
:1021000000F0E4FCFFF70EFF504A116880231B0427
:102110000B4313604E498B684E4A1A4080231B06BE
:1021200013438B604A4B9B68002BFBDB022002F0C1
:102130001FFB00F023FE01F03DFA474CE423E15879
:10214000464800F0C3FC464800F0C0FCA023DB0575
:1021500008229A61FA20400002F00AFB00F094FF86
:10216000E08E01F009F98022D205136801210B43AA
:10217000136037488368374A13400B4383604368D2
:10218000042423434360374AD36802252B43D3609A
:10219000354B1869084318619A69120C12040A43F6
:1021A0009A619968294399601A6906218A432243F2
:1021B0001A612E4B1A682E4B1A601CE02D4B002220
:1021C0001A7001F071FA1EE02B4B00221A70204A9F
:1021D000936820490B4004210B439360274B1B78E5
:1021E000002B15D1214B1A68214B1B68D31AE12112
:1021F00009018B4212D201F0A9FE01F0FDF91D4B3D
:102200001B78002BDAD11C4B1B78002BE6D0DBE7C8
:102210001A4B00221A7001F0A7FAE3E7144B1A6078
:10222000174B1A68501C18601821FEF705F8002992
:10223000E1D100F089FADEE70010024010E000E092
:102240001000002000000020F45000080827014082
:1022500000240140E8FFFF7F4004002000510008F7
:102260000C51000800140140007C0040C000002018
:10227000D0000020D6000020D500002075050020E9
:10228000F8000020FEE7FEE770477047034B01228D
:102290001A70034A136801331360704782050020E7
:1022A000A8000020034B5B69DB0602D5014B10221E
:1022B0005A6170470004014010B5C04601F030FA81
:1022C0000D4B1A681A681B685B0702D50A4B04227B
:1022D0001A60094B1B681B0706D5074B08221A60BA
:1022E000064B00221A7010BD034A936804490B4044
:1022F00004210B439360F6E700240140D400002042
:10230000E8FFFF7F10B5064B1B689B0704D5044A06
:10231000536802210B43536001F0AEF810BDC04674
:10232000007C00407047000010B5084B1B699B07FC
:1023300003D5064B032252421A6100F0C7FE034A3E
:10234000136801218B43136010BDC0460014014087
:1023500010B500F02DFC10BD10B500F01BFF10BD36
:1023600010B503000C4A0D49521A0D49096800299D
:1023700007D00B490868C318934206D8084A13606F
:1023800010BD074907480860F3E702F00BFA0C2379
:10239000036001204042F3E7002000200004000019
:1023A000AC000020A80500207047000010B586B0E2
:1023B00000236A4653811349886B012210438863C6
:1023C000896B0A400192019A6A46138103930E4A6F
:1023D000049205938024E40502A9200002F012F97A
:1023E0002368802293432360A36808490B40A360BD
:1023F000636870218B436360A3689343A36006B056
:1024000010BDC04600100240FFFF0000F8BFFFFFF4
:1024100070B586B000236A4653812449486B042274
:1024200010434863496B0A400192019A204DC5212F
:1024300089006A58FF2082436A50802676032E6006
:102440006A46138103931B4A049205931A4C02A90E
:10245000200002F0D7F8236880229343236063684A
:1024600070218B436360A3689343A360A3696D39B4
:102470008B4302390B43A361A3690B318B430B439D
:10248000A361A369E4318B43A361236AE6398B43DB
:102490002362236D35318B432F390B432365AE50B7
:1024A000BFF34F8FBFF36F8F06B070BD00100240B7
:1024B00000E100E0FFFF000000080140F0B5C64663
:1024C00000B58AB000256B465D831022002102A86A
:1024D00002F09BF9224A516B202319435163526B3E
:1024E00013400193019B1F4BC52189005A581E4878
:1024F00002405A508022D2031A6004276B461F8381
:1025000007951A4B984608930995194C06A920007F
:1025100002F078F823688026B3432360A368154A45
:102520001340A3600295039543460493059502AAC0
:102530000121200002F094F8A369BB43A361236842
:1025400008229343134323606368683293436360B4
:10255000A368B343A3600AB080BCB846F0BDC046D0
:102560000010024000E100E0FFFF00FF77070000DD
:1025700000140140F8BFFFFF30B58FB018220021D2
:1025800008A802F042F9304B996B8020C002014349
:1025900099639A6B02400192019ADA6A01252A43F3
:1025A000DA62DB6A2B400093009B04230293023B18
:1025B0000393013304930595069503330793A020F5
:1025C00002A9C00501F0D2FD204BC72189005A584D
:1025D0001F4802405A50802292051A6096239B01A0
:1025E0000893002309930A930B930C330C93194C13
:1025F00008A9200001F04EFEA36808221343A3603F
:10260000A368154A1340A360EFF3108285F3108886
:10261000A36812490B40A36082F31088A26880234C
:102620009B001343A360EFF3108285F31088A36827
:10263000AB43A36082F31088A368094A1340A360E8
:10264000E3690FB030BDC0460010024000E100E079
:10265000FF00FFFF00480040FFFEFFFFFFFBFFFF02
:10266000FFFDFFFFF0B5CE46474680B591B01C2276
:10267000002109A802F0C9F82F4B996B8020800235
:10268000014399639A6B02400292029ADA6A012529
:102690002A43DA62DB6A2B400193019B80239B0073
:1026A0000393FF3BFF3B9946049301339846059300
:1026B00000240694079404270897A026F60503A98A
:1026C000300001F053FD8023DB0003934B4604935D
:1026D0004346059306940794089703A9300001F038
:1026E00045FD164AC72189005358FF2083437F3890
:1026F0000343535080235B05136096239B0109938A
:102700000A940B940C940C230D930E940F940C4C80
:1027100009A9200001F0C4FF63680A4A13406360FE
:10272000A3682A229343A36023682B43236011B03C
:10273000C0BCB946B046F0BD0010024000E100E068
:1027400000440040FFB7FFFF10B50B4CA3881B04EB
:10275000E1881943032000F063FC084BF6229A5AE3
:10276000A280E280FC22985E0A21FDF769FD40B25A
:10277000A072E07210BDC046F800002040040020A6
:1027800010B5084BFC215A5E585A2239585248312C
:10279000595ADC20195212041143D83800F040FC79
:1027A00010BDC0464004002010B5094BFC22995AC8
:1027B0001E3A99524432995A423A99529A891204CD
:1027C00092214900595A1143052000F029FC10BDFF
:1027D00040040020F0B5CE46474680B583B0324B6A
:1027E000984206DBFA235B00984203DDFA204000A2
:1027F00000E02D482D4B66229D5E68229E5A0232D3
:10280000995E8C466C229A5A002E43D0002A43D0FF
:10281000A84241DB884229DD002399460027012395
:10282000FA24A400019401E001339BB2062B20D8C6
:102830004C463C431DD11D4C1A0018329200A21880
:102840000626955F16891A0019329200A2180624EE
:10285000115F8C461289002A01D101960127A842F6
:10286000E2DB6045E0DC01218946DDE70123994692
:10287000D4E74B46002B09D0401B03B2901B5843B2
:102880006346591BFDF752FC361805E0604509DC2C
:10289000019E01E0FA26B600300003B0C0BCB94684
:1028A000B046F0BD1600F7E7A8FDFFFF400400208A
:1028B000F0B5CE46474680B583B005002A4B862248
:1028C0009E5E8822985A814602329C5E8C229A5AD9
:1028D000002846D0002A3BD0AE4239D8AC4206D2BE
:1028E000002100200123FA27BF00019703E0012106
:1028F000F7E701339BB2062B1DD80F0007431AD10F
:10290000194C1A0020329200A2180627D65F1289AD
:1029100091461A0021329200A2180627D45F12892C
:10292000002A02D1484601900120AE42E1D8AC42D3
:10293000DFD30121DDE700290FD0AD1B2DB24B46BF
:10294000D01A6843A11BFDF77BFC02004A4490B2F9
:1029500003B0C0BCB946B046F0BDAC42F7D3019A53
:10296000F5E7FA208000F3E740040020F0B5C64602
:1029700000B5384B912252009C5A463A9A5AA41AF2
:1029800024B2E021595A8A420FD09B8932485843D9
:1029900000B2891A09B2FDF753FC002C07DB002CAA
:1029A00008DD002807DC002405E02B48F5E70028B7
:1029B000F5DA00E000246043284B9C466044264939
:1029C000FDF7B4FB8046234EDE23F05EFFF702FFE7
:1029D0000500FC23F05EFFF7FDFE070043465D4364
:1029E0002800F530FF30FA218900FDF79FFB902386
:1029F0005B00F0527B089846280040443900FDF700
:102A000095FB0500FFF754FF6843F530FF30FA21CE
:102A10008900FDF78BFB85B2F623F55263011B1B82
:102A20009B001C19E400200040443900FDF77EFBA8
:102A300092235B00F0520A4B9B889D4201D9084BC0
:102A40009D80074BDB889D4201D2054BDD8080BC19
:102A5000B846F0BD40040020102700008813000095
:102A6000F800002070B586B0144B5A6801210A4363
:102A70005A605A68022002435A605A680230024380
:102A80005A606A460023138053800133FF339380DA
:102A90000B4B936003AB180070CA70C0094A31CB6E
:102AA00031C2EFF3108081F31088074A13681F3199
:102AB0000B43136080F3108806B070BD00580140CE
:102AC0000401002008020020004400400FB430B58B
:102AD000AFB032AB04CB0093B42101A801F0C8FE23
:102AE00001A8FDF711FBC0B2002205E001339BB243
:102AF00012490B80013292B283B293420DD901ABDD
:102B00009C5C0E490B888D68EC540B889BB28988BD
:102B100001398B42EAD10023EAE7EFF31081012368
:102B200083F31088064A136880200343136081F3FF
:102B300010882FB030BC08BC04B018470802002031
:102B400000440040134B5A8892B21B889BB29A42B1
:102B500010D0104A53889168C95C53889BB2928800
:102B6000013A934213D001339BB20A4A53800A4B75
:102B700099627047EFF31081012383F31088064AAE
:102B8000136880208343136081F31088F1E70023EA
:102B9000EBE7C0460802002000440040024B5A6A9E
:102BA000024B1A707047C0460044004004020020E7
:102BB00010B50E4B1B681B0605D50C4BDB691B06BD
:102BC00001D5FFF7BFFF094B1B689B0605D5074BD7
:102BD000DB699B0601D5FFF7E1FF044BDB691B07AF
:102BE00002D5024B08221A6210BDC04600440040C4
:102BF0000A22084B9B699B0708D4074B1B68DB0321
:102C0000F7D5531E002A04D01A00F2E7014B022226
:102C10009A6170470020024010E000E010B5054BBB
:102C20009C46604403688B4200D110BD0160FFF7F1
:102C3000DFFFFAE700000808F8B507000E001500EE
:102C40000024A54207DDA300F158F81880B2FFF771
:102C5000E5FF0134F5E7F8BD70B504000E4E3A21EA
:102C60003000FFF71FF8E823F050EFF3108372B63F
:102C70000A4D0B4AEA600B4AEA6083F31088EC20A5
:102C8000604380B23B223100FFF7D6FF6B68012220
:102C900013436B6070BDC04640040020002002401A
:102CA000EFCDAB890504030210B50A4A136801335E
:102CB00013600948FFF70AFF084C2078FFF7CCFFA4
:102CC0000748FFF703FF074B01221A702378534090
:102CD000237010BD400400200C510008B0000020FB
:102CE000345100087405002010B50220FFF7B4FF2E
:102CF0000148FFF7EBFE10BD4451000810B5BCB011
:102D0000002307E09B0019495918086801A9C85019
:102D1000013253B2DAB23A2AF4D93A2101A8FEF7C5
:102D2000C1FFE8236A460432D358834206D000210B
:102D30000F48FFF7CBFE00203CB010BD0D48FFF759
:102D4000C5FE0D4B1C680023DAB23A2A07D89B0057
:102D500001A9C8580849C850013253B2F4E7064BDC
:102D60001C60FFF7A1FF0120E6E7C046D801080874
:102D70005C510008705100084004002030B5F9B0E3
:102D80000023DAB2752A08D89B004349591808680D
:102D900002A9C850013253B2F3E7002404E001ABAA
:102DA00001221A55013464B2012C12DCEC25654372
:102DB00002AB58193A21FEF775FF02AB9C466544F9
:102DC0002B00E8331B688342E9D001AB00221A557F
:102DD000E8E701AB1B78012B10D0002B03D101AA2F
:102DE0005278012A1ED02D4A00211170002B32D1B9
:102DF00001AB5B78002B19D000232DE001AA52789B
:102E0000012AEAD1EB326946082009188A5802994A
:102E1000914203D2214A01211170E7E71F4A0021A4
:102E20001170E3E71D4A01211170DFE7FFF766FF2C
:102E3000002829D100F0AAFB00211948FFF746FE1F
:102E4000164C00252570FFF72FFF25700021092063
:102E500000F0E6F818E00023DAB23A2A0DD80F495C
:102E60000878EC21414302A8844661449B00C8587D
:102E70000C49C850013253B2EEE70A4B1A68074BAF
:102E800019780948FFF722FE044A137801214B40C4
:102E9000137079B030BDC04600000808B0000020B3
:102EA00080510008400400208C510008104B114A4A
:102EB000DA60114ADA605B68DB0709D5EFF310824C
:102EC00072B60B4B0B49D9600B49D96082F310885D
:102ED000074B5B689B0709D5EFF3108272B6044B72
:102EE000064919610649196182F310887047C04686
:102EF00000200240EFCDAB8905040302BFAE9D8CDC
:102F000016151413044B5A6801210A435A605A6873
:102F100001310A435A607047002002400A22074BE1
:102F20009B69DB0708D5064B1B68DB03F7D5531EEF
:102F3000002A01D01A00F2E77047C0460020024084
:102F400010E000E00A22084B9B699B0708D4074B5E
:102F50001B68DB03F7D5531E002A04D01A00F2E7E2
:102F6000014B02229A6170470020024010E000E00D
:102F700070B50D4C626880239B00134363606368E7
:102F800008252B4363607F23984300230360FFF7EA
:102F9000C5FFFFF7D7FF6368AB4363606368034A0D
:102FA0001340636070BDC04600200240FFFDFFFF7C
:102FB00070B504001500184A536808200343536095
:102FC0002368002B19D10906FE23DB051940134B9A
:102FD0001B681B021B0A194321600026FFF7B2FF82
:102FE0006368002B10D16560FFF7ACFF0A4A536895
:102FF00008218B435360300070BD226880231B067C
:10300000134323600126E9E7226880231B0613434C
:1030100023600126E8E7C04600200240F8000020B7
:10302000F8B507000E00FFF741FF00250DE0200076
:10303000FFF79EFF12E001339BB2104A1381013566
:10304000ADB2012816D10F2D14D80C4B1C89E40009
:103050000B4B9C4664447F231C42E8D0320039006D
:103060002000FFF7A5FF054B1B89064A9342E2D9D2
:103070000023E2E7FFF746FFF8BDC046F800002056
:1030800000600008FE03000010B50E4B00221A80FD
:10309000EFF31080012181F310880B4B1A68042490
:1030A00022431A6080F31088EFF3108081F31088B8
:1030B0001A681C3422431A6080F310881A680A4385
:1030C0001A6010BD1403002000480040044B19880A
:1030D000044A118000221A80034B01321A70704793
:1030E0001403002018030020B10000200C4B596A83
:1030F0000C4B1B880C4AD154FE2B02D80133094AD1
:103100001380084B1B88012B03D0084B00225A6206
:103110007047064A136801210B431360F5E7C04668
:103120000048004014030020140200200014014055
:1031300010B5144B1B88144A1288934209D21349C4
:10314000C85C1349886201339BB20E490B809A42D6
:1031500000D010BDEFF31080012181F310880C4BDB
:103160001A688024A2431A6080F31088EFF310805D
:1031700081F310881A683F310A431A6080F310887F
:10318000E7E7C046160300201A0300201C030020B6
:103190000048004010B51D4B1B689B0605D51B4B16
:1031A000DB699B0601D5FFF7A1FF184B1B681B06C7
:1031B00005D5164BDB691B0601D5FFF7B9FF134B8D
:1031C0001B685B061AD5114BDB695B0616D50F4BE6
:1031D00040201862EFF31084012181F310881A68EF
:1031E00082431A6084F31088EFF3108081F3108813
:1031F0001A6803310A431A6080F31088034BDB69B5
:103200001B0702D5014B08221A6210BD004800407E
:1032100082B0044B1B680193019B0130024B186084
:1032200002B0704710E000E0B8000020094B1B68B6
:10323000DB0303D5084A1368013B1360064B1B6888
:10324000002B05D1054A1368013313600120704734
:103250000020FCE710E000E0B8000020B4000020EF
:1032600010B504000120FFF7D3FFFFF7DFFF0028B0
:1032700005D1044B9B699B0701D4C046F5E7014B80
:103280009C6210BD0054004010B50C000F494B6803
:103290000F4A1A400F4B13434B60FFF7E1FF200A20
:1032A000FFF7DEFFE0B2FFF7DBFF0120FFF7B0FF23
:1032B000FFF7BCFF002803D1044B9B699B06F7D5A1
:1032C000024AD36920210B43D36110BD0054004052
:1032D000008000FC9020038270B5224C6268224D71
:1032E0002A40224B13436360FFF7BAFF63681D4017
:1032F0001F4B2B4363600120FFF78AFFFFF796FF08
:10330000002803D1174B9B695B07F7D5154B5D6A06
:10331000EDB2FFF78BFF002803D1124B9B695B07CF
:10332000F7D5104B5C6AE4B259688022D2010A4397
:103330005A600120FFF76CFFFFF778FF002803D1E8
:10334000084B9B699B06F7D5064AD36920210B439E
:10335000D3612802201880B2064B9C46604480B29C
:1033600070BDC04600540040008000FC90200181E8
:10337000902402800080FFFF10B58421FF310143BB
:10338000024B19800120FFF77FFF10BDBC00002019
:1033900010B5124A1388124C23400B4311490B40BD
:1033A000184310801049014389B20120FFF76CFFD8
:1033B0000A2400E004000120FFF78EFF030406D575
:1033C000601E80B2002CF5D1002802D110BD200073
:1033D000FAE70020FFF780FFF8E7C046BC000020B6
:1033E000FFF1FFFFFF8FFFFF0080FFFF10B501001F
:1033F0000020FFF7CDFF10BD10B504001C4B1A884C
:10340000E0231B011A40C023DB009A4222D00FD8D0
:1034100080239B009A4220D08023DB009A4202D175
:10342000802000010EE0002A1AD1C020400109E0EE
:1034300080231B019A4215D0A0231B019A4214D16C
:10344000802040000B494843C0136043FCF7F8FE5E
:1034500080B210BD8020C000F4E780204001F1E779
:103460000020EFE780208000ECE70020EAE7C0467C
:10347000BC000020102700001F4A136801331360AE
:103480001E4B1B88002B02D0013B1C4A13801C4B97
:103490001B781E2B03D80133194A13707047194B40
:1034A00001221A70164B00221A70174B1B78002B42
:1034B00015D1164A0121117015490A7801204240A0
:1034C000D2B20A70002A0AD112490A6801320A608F
:1034D00011490A780132D2B20A70782A04D0012246
:1034E0005340094A1370D9E70A00002111700B4AB2
:1034F00001311170F3E7C046C80000202804002005
:1035000072050020D500002073050020D6000020A1
:10351000C5000020C0000020C400002024000020BE
:10352000014B18807047C0468605002010B5002367
:10353000084A1370084896214900425A0424A243BD
:10354000425206490A80064A1370064A1380064A08
:10355000138010BD88050020400400208A0500204B
:10356000920500208E0500208605002010B5064B30
:103570001B88012B03D9013B034A138010BD012B8B
:10358000FCD1FFF7D3FFF9E786050020074BC022E7
:1035900092009A80F83ADA8000221A81044A5A810D
:1035A0000A225A86A0221201DA86704740040020BF
:1035B00010270000094BEC220949995202320221DE
:1035C000FF319952ED3A11395A523C315A52183260
:1035D000FF322839FF3999527047C0464004002015
:1035E000212000008023DB0500225A628023DB05B6
:1035F0005B6A8342FAD37047F0B5C64600B5234AEA
:1036000096235B00D35ADB073BD5214B214A1A6036
:10361000214B224A1A6000251D4B1B68AB422AD958
:103620001F4F02239846BB622800FDF719F9041CBE
:10363000194E3168FCF7FAFFFEF780F80022194BAB
:10364000FDF74AF9FCF708FF0130FFF7CBFF4346CF
:10365000BB613168201CFCF7E9FFFEF76FF8002220
:10366000104BFDF739F9FCF7F7FE1423181AFFF792
:10367000B9FF0135D0E70A4B02229A6280BCB846F6
:10368000F0BD074B02229A62F8E7C04640040020D2
:10369000D80000200FA20300CC000020575AA73802
:1036A000000400500000E03F10B5194A8C235B0075
:1036B000D35A002B07D0174B1A6805239B1A1449BD
:1036C0008C2252008B52124A96235B00D35ADA079F
:1036D00014D5104A1268042A10DD012293430C4AC3
:1036E00002210B439621490053528C235B00002199
:1036F000D152094A136802318B431360FFF736FF3A
:10370000034A96235B00D25A044B1A8010BDC04670
:1037100040040020C000002010E000E08A050020E6
:103720000D4B1B681B0702D50C4B02221A700B4B6A
:103730001B78094A106C5A0009498852012B06D996
:10374000084B01221A70054B00221A707047013392
:10375000024A1370FAE7C04600240140D40000205A
:10376000380400207505002070B5244B1888244CBF
:103770006043244D6988FCF7D9FC234B1860AB8863
:1037800058432100FCF7D2FC204B1A88831A64208E
:1037900058431F4B1988891AFCF752FD8300C01843
:1037A00040002D30FF301B4E3080A0200001FFF77D
:1037B0001DFE194C91256D006053FFF71DFE0200A0
:1037C000FE23E0520021735EFC216352615B1348CB
:1037D000FFF77CF91248FFF779F9FFF7C7F8E3889C
:1037E000DB070AD50C4CF623E35A608E58430A21B6
:1037F000FCF726FD8A235B00E05070BD7800F81FBF
:10380000B80B000038040020200000207A00F81FC8
:103810007E00F81F7605002040040020A451000817
:103820000C51000830B5050000240A480BE04008A0
:10383000013B002B06D0C207F9D54008064A50408C
:1038400080B2F5E701348C4203DA2B5D584008233F
:10385000EFE730BDFFFF000001A0FFFF124B1B7818
:10386000002B14D0114B01221A80114B1B78002B16
:1038700011D01049962252008B5A042003438B52D8
:103880000C4A96235B00D25A0B4B1A807047074BA9
:1038900000221A80E9E70749962252008B5A042039
:1038A00083438B52ECE7C046920500208E05002032
:1038B00088050020400400208A0500200C490B6880
:1038C000020A1A7058700B4A1068027802320270AD
:1038D00009480288013A028002330B60074A1378D4
:1038E00002331370064A1388013313807047C046B1
:1038F000EC000020E4000020E0000020DE000020BA
:10390000DC00002010B51400037813704378537066
:10391000294B82785A70C2781A70284B02795A70F3
:1039200042791A70E11C264A1160A11C254A1160D7
:10393000254A032111700022A2701A88531E9BB2DF
:103940007C2B14D81C4B1B88802149018B4223D32C
:103950001E498B4220D87A2A1ED89A181C498A42BE
:103960001ADC1C4A94466344134A138010E06278C0
:1039700080235B42134363700223A370032011E092
:103980000D4B1B88DB00144A9B581888FFF796FFE5
:103990000A4B1B88002BF3D1084B1B88002B02D14C
:1039A000094B187810BD627880235B421343637023
:1039B0000223A3700320F5E7DC000020E0000020D4
:1039C000EC000020E4000020DE0000207910000060
:1039D0007A10000000F0FFFFAC52000810B5140090
:1039E0000378137043785370244B82785A70C278EE
:1039F0001A70234B02795A7042791A70E11C214ADD
:103A00001160A11C204A1160204A0321117000227C
:103A1000A2701A88531E9BB27C2B15D8174B1B889B
:103A2000312B1AD8322A18D89A18322A15DC144B9E
:103A30001B88002B11D0114B1B889B00144A9B58EC
:103A40001888FFF73BFFF2E7627880235B4213435D
:103A500063700223A370032005E0094B1B88002B31
:103A600002D10A4B187810BD627880235B42134361
:103A700063700223A3700320F5E7C046DC0000203A
:103A8000E0000020EC000020E4000020DE00002028
:103A90007C5600080C4B1B681A7801684A705A78EB
:103AA00001680A700279002A01D008490A700849A1
:103AB0000A8801320A8007490A88013A0A800233DB
:103AC000014A13607047C046EC000020E800002067
:103AD000DC000020E000002000B583B02A4B1B78FA
:103AE000002B08D0294B1B78002B0AD1284B1A88B1
:103AF000284B9A4205D0264B1A8880235B019A42B4
:103B00003ED1254B1A6811786B46D97152789A715B
:103B10001F4B1B881F4A934211D0802252019342AF
:103B200022D0194B1B78002B03D1184B1B78002B8C
:103B300028D0F120FFF7F4FC012003B000BD6A4655
:103B40000632128815498A4205D0002A07D10F4A49
:103B500000211170E1E70D4A01211170DDE70B4AE8
:103B600010780028D9D1E8E76B4606331B885B073D
:103B700003D5054B01221A70D3E7FFF7D7FCD0E736
:103B80000020DAE70120D8E7880500209205002010
:103B9000DC00002001100000EC000020CDFA000045
:103BA00000B583B0184B1A88184B9A4227D1184B8E
:103BB0001A6811786B46D97152789A7106331B884E
:103BC000144A93421DD00DD8134A934210D0134A81
:103BD000934214D11248FEF779FFFEF7E5FDFFF797
:103BE00063F80CE00F4A934209D1FFF787F806E02B
:103BF0000D48FEF76BFFFEF7C3FDFFF755F803B066
:103C000000BDFFF771F8FAE7DC00002001100000AA
:103C1000EC000020CEAB00005D180000C464000082
:103C2000D45100084BCE0000C451000870B5040008
:103C3000150083781B02C2789B18304A1380021D3E
:103C40002F4B1A602F4B01221A80053201002800E9
:103C500000F0D2FD2C4B00221A70FFF73DFF002828
:103C600008D16A7880235B4213436B700423AB70E6
:103C7000033070BDFFF794FF204B1A8880235B014F
:103C80009A420AD3214B9A4207D81E4B1B887A2BA3
:103C900003D8D3181E498B420CDD1A4B1B88002B0E
:103CA00020D06A7880235B4213436B700223AB7091
:103CB0000320DEE7174B9C46624492B20F4E3280DF
:103CC00021781548FEF702FF0D4B1B6819785A78CA
:103CD0001248FEF7FBFE3088C000114BC018FFF7FA
:103CE000D9FEDAE7FFF7BAFD074B1B78002B01D1AD
:103CF0000620BEE7FEF7D8FF0620BAE7DC0000206A
:103D0000EC000020E0000020E80000207910000016
:103D10007A10000000F0FFFFE45100081452000880
:103D2000AC52000810B501001000062200F064FD3E
:103D3000062010BD10B582B06B468178D971C1786C
:103D4000997106331B883F2B0FD800211F2915DCE2
:103D50006B4606331B88DB0188001B18094CA44600
:103D600063441B6813500131F0E7517880235B42B4
:103D70000B43537003239370032000E0832002B0B1
:103D800010BDC0460060000830B583B004001500C7
:103D900083781B02C2789B183D4A138003791B026B
:103DA00042799B183B4A1380C21D3B4B1A60062286
:103DB0000100280000F020FD384B00221A70FFF7A8
:103DC0008BFE002809D16A7880235B4213436B7015
:103DD0000423AB70033003B030BDFFF7E1FE2D4B81
:103DE0001A88531E9BB27C2B1BD8294B1B88802121
:103DF00049018B4208D32A498B4205D87A2A03D835
:103E000099182848814215DD224B1B88002B33D09E
:103E10006A7880235B4213436B700223AB700320EC
:103E2000D9E76A7880235B4213436B700223AB703F
:103E30000320D0E71C498C4663449BB214490B8095
:103E4000217815480068007800901848FEF73EFE7B
:103E50000DE0114B1B6819785A781548FEF736FEAD
:103E60000B4B1888C000134BC018FFF713FE094B0B
:103E70001B88002BEDD1C7E7FFF7F0FC074B1B7841
:103E8000002B01D10620A6E7FEF70EFF0620A2E7D1
:103E9000DC000020E0000020EC000020E800002012
:103EA000791000007A10000000F0FFFF2052000897
:103EB00014520008AC52000870B514000378137057
:103EC00043785370033BDAB20D2A2ED893001D4A73
:103ED000D3589F462200FFF715FD0500002D09D09D
:103EE00029002000FFF79EFC60556B1C0004000EAB
:103EF000E0540235280070BD2200FFF76FFD050079
:103F0000ECE72200FFF792FE0500E7E72200FFF74B
:103F100009FF0500E2E72200FFF70CFF0500DDE7DF
:103F20002200FFF731FF0500D8E70748FEF7CEFD76
:103F3000627880235B42134363700123A3700325DF
:103F4000CEE7C046745200085852000870B5204BA6
:103F50001B78002B0FD01E4B00221A701D4B1C88A3
:103F6000032C08D9A61E1C4D31002800FFF75AFC6F
:103F70002B78552B00D070BDAA5DC3B29A42FAD1FE
:103F8000631EEB5C0004000E8342F4D1134A21004F
:103F90002800FFF791FF124B1880124B00221A8065
:103FA000EFF31080012181F310880F4B1A6804246D
:103FB000A2431A6080F31088EFF3108081F3108819
:103FC0001A687F310A431A6080F31088D3E7C0462D
:103FD000B100002018030020140200201C03002060
:103FE0001A03002016030020004800400D488546B3
:103FF0000D480E490E4A002302E0D458C450043341
:10400000C4188C42F9D30B4A0B4C002301E0136017
:104010000432A242FBD3FEF7C7F900F0C9FBFEF75A
:104020003BF8FEE700200020000000208C0000206C
:10403000885700088C000020A4050020FEE700003F
:1040400010B58368DB0711D4C368094A13404A6876
:104050008C682243CC6822431343C36003699B00EE
:104060009B080A6813430361002010BD0120FCE790
:10407000C73FFFFF10B58368DB070FD4C368084A4A
:104080001A400B684C6823438C682343CC68234355
:1040900009690B431343C360002010BD0120FCE7F6
:1040A0003CC2FEFF10B503000079002850D01A680A
:1040B000002A57D05879012818D0022820D000288B
:1040C0000BD001209A79002A4BD0022A2CD0032A47
:1040D00034D0012A1ED0012043E023494C68944388
:1040E0004C600A681C6822430A60EBE71E490868B6
:1040F000904308604A68186802434A600020E1E77C
:104100001949086802430A604A68186802434A600D
:104110000020D7E7144AD1681C68A143D1601B680E
:1041200091680B4393601CE00F4A91681C68A1439F
:1041300091601B68D1680B43D36012E00A4A916812
:104140001C68214391601B68D1680B43D36008E071
:10415000054A11681C68A1431160196853688B43B4
:10416000536010BD0020FCE700040140F0B50022C0
:1041700027E083682C006C4366003619B3438E68D1
:104180007443234383600C684368A343CE6874433D
:1041900023434360C6682B006B435F00FF18FC435A
:1041A000A446BE430F695F433E43C6604C68022C81
:1041B00016D0046865462C404D686B43234303606A
:1041C00001320C682300D34026D001239340250000
:1041D0001D401C42F4D04B68013B012BDAD8C8E7E4
:1041E000FF2D0BD8066A1C006C4365432C01641B31
:1041F000A6434C69654335430562DAE7466A2D0AF2
:104200002C006C436C4365432C01641BA6434C6932
:10421000654335434562CCE70020F0BD30B5026808
:104220000124A24302600368174A1340CA681202BD
:104230008D682A43134303604B680361036823437B
:1042400003608368114A134083608368DB0ADB02E2
:104250000A698C692243134383600B69002B04D0E5
:10426000826880231B02134383600368084A13405B
:104270000A68134303604B69426804490A401343C8
:104280004360002030BDC046FFE0FFFFFF7FFFFF1F
:10429000FFFFCFFFF8B504000D000368DB072CD447
:1042A0000368194A13404A68C9680A4329690A43DE
:1042B000134303604368154A1340AA6813434360DD
:1042C0008368134A13406A6913438360C020000166
:1042D00000F0E0F8002812D02A68002A11D0070E5A
:1042E000060250080021801979410023FCF794F858
:1042F0000003000BE060002000E00120F8BD012079
:10430000FCE70120FAE7C046F3E9FFEFFFCFFFFF2C
:10431000FFFCFFFF044BDA6812090F231340034A26
:10432000D35CD8407047C0460010024010510008CE
:10433000044BDA68120A07231340034AD35CD840BF
:104340007047C046001002402051000810B50E4BC7
:10435000DB68DB0305D40C4B1B68DB0612D50B486E
:1043600000E00B480849CA68920C0F231340094A21
:10437000D35C5843CB689B0D032119400131FBF7F7
:10438000D5FE10BD0448EDE70010024000093D00D5
:1043900000127A00285100080024F40010B5174BD1
:1043A000DA680C231340082B23D009D8002B0CD03B
:1043B000042B14D1114B1B68DB061CD5104819E0E7
:1043C0000C2B0CD1FFF7C2FF14E00C4B5A68520BB8
:1043D0000723134001338020000298400AE0074B76
:1043E0005A68520B07231340013380200002984083
:1043F00000E0044810BD0448FCE7C046001002403D
:1044000000093D0000127A000024F40010B50C28C9
:1044100001D0002010BD194BDB6C03400004184391
:10442000174B98420FD0174B984219D0164B984211
:1044300006D0FFF7B3FFFFF76DFFFFF779FFE9E75E
:10444000FFF7ACFFE6E70D4B1B6804221000184095
:104450001A42DFD0094B1B68DB060CD40B48D9E7A6
:10446000064B1A6D80239B00100018401A42D1D0D1
:1044700080200002CEE70648CCE7C046001002408C
:1044800008000C000C000C0004000C000024F400D8
:1044900000093D0010B5194BDB6C184080231B014F
:1044A000984211D0C0231B0198421AD08023DB0010
:1044B000984206D0FFF772FFFFF72CFFFFF738FF97
:1044C00001E0FFF76BFF10BD0C4B1B6804221000CE
:1044D00018401A42F7D0094B1B68DB060CD4084879
:1044E000F1E7064B1A6D80239B00100018401A421A
:1044F000E9D080200002E6E70248E4E7001002402D
:104500000024F40000093D0070B5036A0124A343B0
:104510000362036A456882697326B2430E683243B8
:104520000226B343CE683343A3434C68234345601C
:1045300082618A6842630362002070BD70B5036ABD
:104540001026B3430362036A456882690A4C22401D
:104550000C68240222432024A343CC682401234373
:10456000B3434C6824012343456082618A688263B7
:104570000362002070BDC046FF8CFFFF70B5026A69
:104580000C4E32400262036A4568C2697324A2433A
:104590000C682243084C2340CC6824022343334058
:1045A0004C68240223434560C2618A68C263036287
:1045B000002070BDFFFEFFFFFFFDFFFF70B5026A28
:1045C0000D4E32400262036A4568C2690B4C2240BC
:1045D0000C68240222430A4C2340CC682403234362
:1045E00033404C68240323434560C2618A680264F7
:1045F0000362002070BDC046FFEFFFFFFF8CFFFF8E
:10460000FFDFFFFF03688022D205904205D0114AE8
:10461000904202D0104A904203D1702293434A68DC
:1046200013438022D205904205D00A4A904202D01C
:10463000094A904203D1094A1340CA6813430360F0
:104640008B68C3620B888362436901221343436111
:10465000002070470008014000140140FFFCFFFFEC
:1046600010B50B00110080225200934215D008D8DB
:10467000012B0FD0102B02D1FFF760FF09E00120C2
:1046800007E080225201934202D1FFF797FF00E03A
:10469000012010BDFFF738FFFBE7FFF76FFFF8E7DA
:1046A00070B504000D000368DB0740D40368234A9B
:1046B0001A404B68C9680B4329690B43A9690B432E
:1046C0001343036043681E4A1340AA6813434360C0
:1046D00083681C4A13406A69134383601A4B9842EB
:1046E00001D0012024E00C20FFF790FE002820D00C
:1046F000296800291FD0AA6980231B029A4208D08A
:104700004B08C018FBF712FD0004000CE06000200D
:104710000EE040004B08C018FBF708FD0B4B0340B0
:104720004008072210401843E060002000E001200C
:1047300070BD0120FCE70120FAE7C046F369FFEFF6
:10474000FFCFFFFFFFFCFFFF00440040F0FF000031
:1047500010B5FA218900FBF7E9FC0138034B5860DA
:1047600000229A6005321A6010BDC04610E000E0D9
:1047700082B0084B1B680193019B431C00D00130A1
:10478000002805D0034B1B68DB03F9D50138F7E798
:1047900002B0704710E000E0014B18607047C0465F
:1047A0001C000020014B18687047C04628000020FC
:1047B00070B500260C4D0D4C641BA410A64209D107
:1047C000002600F05DFC0A4D0A4C641BA410A642B2
:1047D00005D170BDB300EB5898470136EEE7B30042
:1047E000EB5898470136F2E78057000880570008D9
:1047F0008057000884570008002310B59A4200D162
:1048000010BDCC5CC4540133F8E703008218934216
:1048100000D1704719700133F9E730B51400050075
:104820001A009BB0002C05DA8B2303600120404264
:104830001BB030BD822368469B008381002300911A
:1048400004919C4200D0631E0293059301236946A4
:104850005B42CB8128001E9B00F078F8431C01DAF4
:104860008B232B60002CE3D00023009A1370DFE72A
:1048700007B5009313000A00010002480068FFF723
:10488000CCFF0EBD28000020F0B58E6885B0070073
:104890000C00039201939E423CD890238A89DB004E
:1048A0001A4234D00325096923685B1A02936369AD
:1048B00002985D43EB0F5D19019B6D1001331B18CE
:1048C000AB4200D91D00530532D52900380000F055
:1048D00027FB061E09D10C233B6040230120A2893F
:1048E00040421343A38105B0F0BD029A2169FFF74E
:1048F00083FFA389144A1A4080231343A381029B98
:104900002661F61826606561019EED1AA560019B7F
:104910009E4200D9019E32000399206800F0A3FA5C
:10492000A36800209B1BA36023689E192660DAE71A
:104930002A00380000F052FB061EE0D13800216941
:1049400000F0A4FAC7E7C0467FFBFFFFF0B5A1B0B7
:1049500003901D008B890F0016001B0611D50B69F3
:10496000002B0ED1402100F0DBFA386038610028BE
:1049700005D10C23039A0138136021B0F0BD402308
:104980007B61002308AC6361203363761033A37628
:10499000079535002B78002B01D0252B47D1AB1B79
:1049A0000593B5420CD0320039000398FFF76CFF35
:1049B000431C00D1AEE06269059B94466344636189
:1049C0002B78002B00D1A5E0012200235242626027
:1049D00004A9543252186E1C2360E360A360137064
:1049E000A36505223178544800F032FA751C00287E
:1049F0001FD12268D30604D5532304A95B182021B4
:104A00001970130704D5532304A95B182B211970BF
:104A100033782A2B16D0350000210A20E3682A7843
:104A20006E1C303A092A4ED9002911D117E0013500
:104A3000B0E7414B2268C01A0123834013432E0084
:104A40002360CEE7079B191D1B680791002B01DB34
:104A50000B9304E05B42E3600223134323602B7853
:104A60002E2B0AD16B782A2B35D1079B02351A1DC4
:104A70001B680792002B2BDB0993304E032230007A
:104A8000297800F0E5F9002806D04023801B8340F8
:104A900022680135134323602978062228486E1CBA
:104AA000217600F0D5F900283CD0264B002B25D1EB
:104AB0000722079B07339343083307936369049ADC
:104AC0009B18636165E74343350001219B18A6E706
:104AD00001235B42D0E700230A201A0001356360FE
:104AE00029786E1C3039092903D9002BC5D00992C9
:104AF000C3E74243350001235218F1E707AB0093A7
:104B00003A002100104B039800E000BF0490049B82
:104B10000133D3D1BB890D985B0600D42DE701206A
:104B200040422AE707AB00933A002100064B039866
:104B300000F07CF8EAE7C046445700084A570008EE
:104B40004E5700080000000089480008F7B515001E
:104B500001938A680B690C000090934200DA1300FD
:104B600022002B6043321278002A01D001332B60DF
:104B700023689B0602D52B6802332B60226806232C
:104B800017001F401A4227D0230043331B785A1EB8
:104B900093412268920630D4220001990098089E21
:104BA0004332B047431C25D0062320682A68E168B9
:104BB00000250340042B03D18D1AEB43DB171D4066
:104BC000A3682269934201DD9B1AED180027BD42BC
:104BD00020D1002010E00137E3682A689B1ABB420D
:104BE000D2DD2200012301990098089E1932B047B6
:104BF000431CF0D101204042FEBD3020E11843317A
:104C0000087021005A1C45310978A218433202333A
:104C10001170C1E72200012301990098089E1A3201
:104C2000B047431CE6D00137D1E70000F0B58BB0A8
:104C300006920A0043320793059004920A7E0C0004
:104C4000109B782A06D8622A08D8002A00D1C0E032
:104C5000582A52D026004236327022E010006338C3
:104C60001528F7D8FBF758FA16001F00F6FFF6FFD5
:104C7000F6FFF6FF1F00F6FFF6FFF6FFF6FFA800AF
:104C800036009A00F6FFF6FFB900F6FF3600F6FF91
:104C9000F6FF9E0026001A684236111D196013683F
:104CA00033700123A7E0086819680A1D05060BD5B3
:104CB0000D681A60002D03DA2D23049A6D421370DB
:104CC000614B0A27039332E00D681A604106F1D563
:104CD0002DB2EFE70D681968081D18602E0601D582
:104CE0000D6803E06D06FBD50D68ADB2564B0A2783
:104CF00003936F2A17D1082715E045310A70524AED
:104D000003921A68216820CA1A60080650D5CB079A
:104D100002D52023194321601027002D03D1202321
:104D200022689A4322602300002243331A7063688A
:104D3000A360002B03DB0422216891432160002D36
:104D400002D1049E002B0CD0049E28003900FBF7F2
:104D500073FA039B013E5B5C33702B0005009F429E
:104D6000F3D9082F09D12368DB0706D563682269C8
:104D7000934202DC3023013E3370049B9B1B236172
:104D8000079B210000930598069B09AAFFF7DEFE0A
:104D9000431C35D1012040420BB0F0BD20220968F0
:104DA0000A4322602200782145321170274AA7E782
:104DB0004806ACD5ADB2AAE71A680D68101D49695E
:104DC000186013682E0601D5196002E06D06FBD548
:104DD00019800023049E2361D2E71A68111D19600F
:104DE000166800213000626800F032F8002801D017
:104DF000801B6060636823610023049A1370BFE71F
:104E00002369320006990598079DA847431CC1D025
:104E100023689B0715D4099BE0689842BCDA180008
:104E2000BAE72200012306990598079E1932B04778
:104E3000431CAFD00135E368099A9B1AAB42F0DC02
:104E4000E9E70025F7E7C046555700086657000810
:104E5000C9B28218904201D10020704703788B427A
:104E6000FBD00130F6E710B5884202D98B18984282
:104E700003D3002307E08B5C8354013AFBD210BDBF
:104E8000CC5CC45401339A42FAD1F8E770B50500FE
:104E9000002910D00C1F2368002B00DAE41828002A
:104EA00000F0D4F81D4A1368002B05D1636014602C
:104EB000280000F0D3F870BDA34208D9216860181B
:104EC0008342F3D118685B6841182160EEE71A004D
:104ED0005B68002B01D0A342F9D911685018A04299
:104EE0000BD120680918501811608342E0D118686E
:104EF0005B68411811605360DAE7A04202D90C23C5
:104F00002B60D5E721686018834203D118685B687D
:104F10004118216063605460CAE7C046F000002079
:104F2000F8B50323CD1C9D43083506000C2D1FD278
:104F30000C25A9421ED8300000F088F825490A68DF
:104F40001400002C1AD1244F3B68002B04D12100FF
:104F5000300000F069F838602900300000F064F893
:104F6000431C2BD10C233000336000F077F803E0B2
:104F7000002DDEDA0C2333600020F8BD23685B1BB4
:104F800019D40B2B03D92360E418256003E0636870
:104F9000A2420ED10B60300000F060F82000072222
:104FA0000B30231D9043C21A9842E6D01B1AA3501F
:104FB000E3E75360EFE722006468C2E70323C41C01
:104FC0009C43A042E1D0211A300000F02DF8431C90
:104FD000DBD1C7E7F0000020F4000020F8B507009F
:104FE0000D001600002905D11100FFF799FF0400FC
:104FF0002000F8BD002A03D1FFF748FF3400F7E78F
:1050000000F034F82C00B042F2D231003800FFF743
:1050100087FF041EECD029003200FFF7EDFB2900CA
:105020003800FFF733FFE3E7002370B5064D0400B7
:1050300008002B60FDF794F9431C03D12B68002B6B
:1050400000D0236070BDC0469405002010B5024812
:1050500000F014F810BDC0469C05002010B50248B1
:1050600000F00DF810BDC0469C0500200B1F1B680A
:10507000181F002B01DA0B58C01870477047704793
:10508000F8B5C046F8BC08BC9E467047F8B5C046A7
:08509000F8BC08BC9E46704705
:105098000E070008AC060008AC060008AA060008BF
:1050A800B0060008B0060008D8070008AA060008DD
:1050B800B0060008D8070008B0060008AA060008CD
:1050C8008E0700088E0700088E07000812080008DF
:1050D8000A0D55494420253032582D222573222D9A
:1050E800222573222D2530386C7800000A0D0A0D10
:1050F80025732025730000000A0D534E20253039F2
:105108006C7500000A0D000000000000000000009F
:105118000102030406070809000000000102030455
:10512800030406080C10182030000000436F6E6658
:105138006967207772697465000000000A0D46618E
:1051480063746F727920636F6E666967207772691E
:10515800746500000A0D4E6F204461746120466139
:1051680063746F72790000000A0D4C6F6164204609
:105178006163746F727900000A0D25536574446584
:10518800660000000A0D436F6E66696742616E6BC8
:105198002D25642C20434E542D2564004144432082
:1051A8002D202530356420566F6C74202D20253035
:1051B80035642054656D703A256400000A0D43611A
:1051C8006C6962205A65726F000000000A0D436125
:1051D8006C696220436F6E63000000000A0D253081
:1051E800327820434D44204D6F6462757320362019
:1051F8003A207772697465206164722025303378AB
:10520800203A2064617461200000000020253032BB
:1052180078253032780000000A0D25303278204396
:105228004D44204D6F646275732031362028253037
:10523800326429203A20777269746520616472208B
:1052480025303378203A2064617461200000000022
:105258000A0D0A0D204552524F525F496C6C656722
:10526800616C5F46756E6374696F6E00D43E0008AA
:10527800F83E00082A3F0008023F00082A3F0008BD
:105288000C3F00082A3F00082A3F00082A3F000870
:10529800163F00082A3F00082A3F00082A3F000856
:1052A800203F00088A050020000000008E0500202D
:1052B8000000000044040020010000004604002013
:1052C8000100000048040020010000004A040020FA
:1052D800010000004C040020010000004E040020E2
:1052E80001000000500400200100000052040020CA
:1052F80001000000540400200100000056040020B2
:105308000100000058040020010000005A04002099
:10531800010000005C040020010000005E04002081
:105328000100000060040020010000006204002069
:105338000100000064040020010000006604002051
:105348000100000068040020010000006A04002039
:10535800010000006C040020010000006E04002021
:105368000100000070040020010000007204002009
:1053780001000000740400200100000076040020F1
:10538800010000007A040020010000007C040020D5
:10539800010000007E0400200100000080040020BD
:1053A800010000008E05002000000000900500208C
:1053B8000000000026050020010000002405002050
:1053C8000100000082040020010000008404002085
:1053D8000100000078040020010000001A050020E8
:1053E800010000001C050020010000001E0500202F
:1053F8000100000020050020010000008C050020AD
:10540800000000008C050020000000008C05002032
:10541800000000008C050020000000008C05002022
:10542800000000008604002001000000880400201D
:10543800010000008A040020010000008C04002004
:10544800010000008E0400200100000090040020EC
:1054580001000000920400200100000094040020D4
:1054680001000000960400200100000098040020BC
:10547800010000009A040020010000009C040020A4
:10548800010000009E04002001000000A00400208C
:1054980001000000A204002001000000A404002074
:1054A80001000000A604002001000000A80400205C
:1054B80001000000AA04002001000000AC04002044
:1054C80001000000AE04002001000000B00400202C
:1054D80001000000B204002001000000B404002014
:1054E80001000000B604002001000000B8040020FC
:1054F80001000000BA04002001000000BC040020E4
:1055080001000000BE04002001000000C0040020CB
:1055180001000000C204002001000000C4040020B3
:1055280001000000C604002001000000C80400209B
:1055380001000000CA04002001000000CC04002083
:1055480001000000CE04002001000000D00400206B
:1055580001000000D204002001000000D404002053
:1055680001000000D604002001000000D80400203B
:1055780001000000DA04002001000000DC04002023
:1055880001000000DE04002001000000E00400200B
:1055980001000000E204002001000000E4040020F3
:1055A80001000000E604002001000000E8040020DB
:1055B80001000000EA04002001000000EC040020C3
:1055C80001000000EE04002001000000F0040020AB
:1055D80001000000F204002001000000F404002093
:1055E80001000000F604002001000000F80400207B
:1055F80001000000FA04002001000000FC04002063
:1056080001000000FE040020010000000005002049
:105618000100000002050020010000000405002030
:105628000100000006050020010000000805002018
:10563800010000000A050020010000000C05002000
:10564800010000000E0500200100000010050020E8
:1056580001000000120500200100000014050020D0
:1056680001000000160500200100000018050020B8
:10567800010000002C0500202E0500203005002028
:105688002605002024050020360500206C05002092
:10569800380500203A0500203C0500203E05002082
:1056A8004005002042050020440500204605002052
:1056B800480500204E0500204C050020520500201A
:1056C80050050020540500205605002058050020EC
:1056D8005A0500205C0500205E05002036050020E4
:1056E8008C050020600500204E0400205004002096
:1056F80062050020640500208C0500208C05002030
:105708008C0500208C0500208C0500208C050020CD
:105718008C0500208C0500208C0500208C050020BD
:105728008C0500208C0500208C0500208C050020AD
:105738008C0500208C0500208C050020232D302BA3
:105748002000686C4C00656667454647003031327A
:1057580033343536373839414243444546003031D1
:105768003233343536373839616263646566000030
:085778001CADFF7F01000000E1
:04578000E900000834
:04578400C100000858
:10578800417072203139203230323200000000007E
:1057980031333A35323A3238000000000000200038
:1057A800E40C0000010000002C00002000000000B4
:1057B80000000000000000000000000000000000E1
:1057C80000000000000000000000000000000000D1
:1057D80000000000000000000000000000000000C1
:1057E80000000000000000000000000000000000B1
:1057F80000000000000000000000000000000000A1
:0C58080000000000000000000000000094
:0400000508003FEDC3
:00000001FF
