:020000040800F2
:1000000000200020BD2A0008DD0D0008DF0D0008DB
:1000100000000000000000000000000000000000E0
:10002000000000000000000000000000E10D0008DA
:100030000000000000000000E30D0008E50D0008CE
:100040000D2B00080D2B00080D2B00080D2B0008B0
:100050000D2B00080D2B00080D2B0008FD0D0008CE
:10006000000000000D2B00080D2B00080D2B0008D0
:10007000110E00085D0E0008000000000D2B0008A6
:100080000000000000000000000000000000000070
:100090007D0E000800000000810E00080D2B0008F6
:1000A000000000000D2B0008000000000000000010
:1000B000A90E0008B10E00080000000000000000BA
:1000C00010B5064C2378002B07D1054B002B02D02E
:1000D000044800E000BF0123237010BD8C00002005
:1000E00000000000503B0008044B10B5002B03D06B
:1000F0000349044800E000BF10BDC04600000000F6
:1001000090000020503B00080023C25C0133002A0D
:10011000FBD1581E7047000003B4714649084000E7
:100120004900095E49008E4403BC70470022430821
:100130008B4274D303098B425FD3030A8B4244D3AF
:10014000030B8B4228D3030C8B420DD3FF220902F1
:1001500012BA030C8B4202D31212090265D0030BB0
:100160008B4219D300E0090AC30B8B4201D3CB03A6
:10017000C01A5241830B8B4201D38B03C01A5241E8
:10018000430B8B4201D34B03C01A5241030B8B42EA
:1001900001D30B03C01A5241C30A8B4201D3CB02D5
:1001A000C01A5241830A8B4201D38B02C01A5241BA
:1001B000430A8B4201D34B02C01A5241030A8B42BD
:1001C00001D30B02C01A5241CDD2C3098B4201D3D5
:1001D000CB01C01A524183098B4201D38B01C01A53
:1001E000524143098B4201D34B01C01A52410309CA
:1001F0008B4201D30B01C01A5241C3088B4201D379
:10020000CB00C01A524183088B4201D38B00C01A25
:10021000524143088B4201D34B00C01A5241411A4C
:1002200000D20146524110467047FFE701B5002059
:1002300000F0F0F802BDC0460029F7D076E770471D
:1002400003460B437FD4002243088B4274D3030937
:100250008B425FD3030A8B4244D3030B8B4228D3D8
:10026000030C8B420DD3FF22090212BA030C8B42FE
:1002700002D31212090265D0030B8B4219D300E09E
:10028000090AC30B8B4201D3CB03C01A5241830B23
:100290008B4201D38B03C01A5241430B8B4201D3D3
:1002A0004B03C01A5241030B8B4201D30B03C01AFC
:1002B0005241C30A8B4201D3CB02C01A5241830A76
:1002C0008B4201D38B02C01A5241430A8B4201D3A5
:1002D0004B02C01A5241030A8B4201D30B02C01ACF
:1002E0005241CDD2C3098B4201D3CB01C01A524136
:1002F00083098B4201D38B01C01A524143098B42BF
:1003000001D34B01C01A524103098B4201D30B01A7
:10031000C01A5241C3088B4201D3CB00C01A5241CC
:1003200083088B4201D38B00C01A524143088B4291
:1003300001D34B00C01A5241411A00D2014652412A
:10034000104670475DE0CA0F00D04942031000D349
:100350004042534000229C4603098B422DD3030A9E
:100360008B4212D3FC22890112BA030A8B420CD3AE
:10037000890192118B4208D3890192118B4204D3D7
:1003800089013AD0921100E08909C3098B4201D357
:10039000CB01C01A524183098B4201D38B01C01A91
:1003A000524143098B4201D34B01C01A5241030908
:1003B0008B4201D30B01C01A5241C3088B4201D3B7
:1003C000CB00C01A524183088B4201D38B00C01A64
:1003D0005241D9D243088B4201D34B00C01A52413B
:1003E000411A00D20146634652415B10104601D3C8
:1003F0004042002B00D54942704763465B1000D352
:10040000404201B5002000F005F802BD0029F8D0F7
:1004100016E770477047C046002B11D1002A0FD154
:10042000002900D1002802D00021C943081C07B4CC
:10043000024802A14018029003BDC046D9FFFFFF49
:1004400003B4684601B5029800F006F8019B9E4689
:1004500002B00CBC7047C046F0B557464E46454604
:10046000DE46E0B504000D009246994683B08B420B
:1004700030D82DD04946504600F0BAF82900060081
:10048000200000F0B5F8331A9846203B9B4633D441
:100490005A465346934042461F00534693401E001F
:1004A000AF423AD8AF4200D178E05B46A41BBD41D1
:1004B000002B00DA75E00022002300920193012353
:1004C0005A4693400193012342469340009328E00B
:1004D0008242CFD900220023009201930C9B002B73
:1004E00001D01C605D600098019903B0F0BCBB4670
:1004F000B246A946A046F0BD424620239B1A52466A
:10050000DA40414613004A468A40170042461F43DC
:10051000534693401E00AF42C4D9002200230092EC
:1005200001934346002BD9D0FB0772081A43464675
:100530007B080EE0AB4201D1A2420CD8A41A9D4127
:10054000012024196D410021013E24184D41002E47
:1005500006D0AB42EED9013E24196D41002EF8D1F0
:10056000009801995B4600196941002B24DB2B00A0
:100570005A464446D3402A00E2401C005B46150020
:10058000002B2ADB26009E40330026004746BE4053
:100590003200801A9941009001919FE7A342BCD894
:1005A00083E74246202300219B1A002200910192FA
:1005B0000122DA40019286E7424620239B1A2A0054
:1005C00046469A402300F340444613432A00E24043
:1005D0001C005B461500002BD4DA42462F00202376
:1005E000260097409B1ADE403B003343CDE7C046D0
:1005F00010B5002903D100F007F8203002E0081CF4
:1006000000F002F810BDC0461C2101231B049842D3
:1006100001D3000C10391B0A984201D3000A083993
:100620001B09984201D30009043902A2105C40184A
:100630007047C046040302020101010100000000EE
:1006400000000000F0B593B0142200210DA802F0C4
:1006500044FE1022002109A802F03FFE10220021D2
:1006600005A802F03AFE4C4B596B802080000143F4
:1006700059635A6B02400292029ADA6A01273A439E
:10068000DA62DB6A3B400193019B039703230493E7
:10069000002507956138FF3803A9C00502F0CEFA9E
:1006A0003E4BC32189005A58FF2082435A50802272
:1006B00052011A603A4CA36A3B43A362A26A8023A8
:1006C000DB021343A362374E3068374A1040802163
:1006D000090401433160A36A802189021943A162A0
:1006E00033681A408023DB03134333600D95802366
:1006F0005B020E930F95109511950DA9200002F045
:1007000021FA636907229343023A13436361236921
:10071000BB431F4327612369244A1A408E235B0091
:10072000134323612369224A13402361E3680421B0
:100730008B43E36033681F4A1A4080239B041343B2
:10074000336063688B43636063680822934363602C
:10075000C0231B0609930A950B950C9509A9200047
:1007600002F0D6F9A368144A1A4080235B051343AC
:10077000A360124B18681249FFF7D8FC03008000F1
:10078000C01840000A21FFF7D1FC002801D0013831
:10079000FBE713B0F0BDC0460010024000E100E0EE
:1007A0000024014008270140FFFF3FFF03FEFFFF39
:1007B000FFFDFFFFFFFFFFFDE8FFFF6F1C000020B4
:1007C000400D030082B00F4A116B802040010143AD
:1007D0001163136B03400193019B0B4B9A686021DB
:1007E0008A439A609A6820318A439A60074A5A611C
:1007F0009A6868398A439A60012252421A6102B0AB
:100800007047C0460010024000300240B71DC104CE
:1008100010B5094A936801242343936000238B4257
:1008200006D29A008458044A14600133DBB2F6E71A
:10083000014B186810BDC04600300240F0B5D646E6
:100840004F464646C0B58CB00AAE082399460822EA
:100850000021300002F041FD002409942B4BD96A9D
:1008600004221143D962D96A0A400392039ADA6AD0
:1008700001252A43DA62DA6A2A400292029ADA6A87
:10088000022188460A43DA62DB6A0B400193019B2E
:10089000A027FF054B46BB621D4B9A4699614B460C
:1008A0000493059506940794089404A9380002F06F
:1008B000C5F943460493059506940794089404A942
:1008C000504602F0BBF9134AD3680F218B43D36023
:1008D000FA6811490A40FA603B680B403B601023FC
:1008E0000A9335717471B571300002F043F90B4A07
:1008F000C121890053581B021B0A535080231360E7
:100900000CB0E0BCBA46B146A846F0BD00100240AB
:100910000004005000000140FFFCFFFF00E100E088
:10092000F0B5C64600B590B01C22002109A802F01F
:10093000D4FC2A4CE36A02263343E362E36A334081
:100940000293029B4023039304963D3B98460593F4
:100950000125069507950895214F03A9380002F057
:100960006DF98023039304964346059306950795F6
:10097000089503A9380002F061F9A26B8021890370
:100980000A43A263A36B0B400193019B154C626861
:1009900080239B0413436360E368134A1340E360BE
:1009A0002368124A134023602368114A13402360CE
:1009B000002309930F4A0A920B930C930D930E9305
:1009C0000F9309A9200002F091F9E3680A4A134045
:1009D000E36010B080BCB846F0BDC04600100240D5
:1009E0000004005000540040FF7FFFFFFFFFF7FFAF
:1009F000FFFFFDFF1E06000001F8FFFF82B01B4B4A
:100A0000996B802212060A439A639B6BDB0FDB070C
:100A10000193019B164BC32189005A581548024087
:100A20005A50802292011A60134BDA6801218A43DE
:100A3000DA60DA6811491140E02212010A43DA60F3
:100A4000DA680F490A40DA60DA680E4911408022FC
:100A5000D2030A43DA60DA680B490A40DA60DA68DE
:100A60000A490A40DA6002B07047C04600100240EE
:100A700000E100E0FF00FFFF007C0040FFF1FFFF0E
:100A8000FFFFDFFFFFFFBFFFFFFF7FFFFFFFF9FF5C
:100A900000B587B0002308E0144A1168DA00D1409D
:100AA0000222D21A05A881540133022BF4DD05ABD2
:100AB0000022DA70002308E00D4A1168DA00D14004
:100AC0000322D21A03A881540133032BF4DD03ABB4
:100AD00000221A71074AD178054A1268009205AAC5
:100AE000054800F06DFD07B000BDC0465000F81F7E
:100AF0005400F81F6400F81F683B000810B5364A20
:100B0000136801218B431360334B1B68DB07FBD455
:100B100032490B68324A1A4080231B0113430B6091
:100B2000304A116880235B000B4313602D4B1B6818
:100B30009B05FBD52B4B5A682B491140A022120272
:100B40000A435A605A681202120A5A60234801681E
:100B50008022520011430160196D2148014019653E
:100B6000196D0A431A651F4B1B6D9B05FBD51D4B69
:100B7000DA68F0218A43DA60DA681C490A40DA60F0
:100B8000DA681B490A40DA60DA6803218A43DA60CE
:100B9000144BDB680C221A42FAD1164C200002F0EA
:100BA0003FFB200002F060FB0E4BDA6C0C218A4305
:100BB000DA64DA6C10491140C02212010A43DA6487
:100BC000DA6C0E490A40DA64DA6C0D491140C02231
:100BD00012030A43DA6410BD002002400070004096
:100BE000FFE7FFFF00100240FF1FFFFFFFF8FFFFBE
:100BF000FFC7FFFF68FF1F00FFF3FFFFFFCFFFFFEF
:100C0000FFFFF3FF70B582B0614B596B01221143B6
:100C10005963596B0A400192019A9A6B80214905E8
:100C20000A439A639B6B0B400093009BFFF766FFA0
:100C3000584A136802210B431360FFF7FFFDFFF7CB
:100C400001FDFFF76DFE00F011FA00F085FA00F0EB
:100C5000AFF9FFF7B7FD00F055F9FFF7CFFE00F051
:100C60007BFC4D4A4D494E4800F0AAFCFFF710FFAF
:100C70004C4A116880231B040B4313604A498B685C
:100C80004A4A1A4080231B0613438B60464B9B68DD
:100C9000002BFBDB022002F0D3FA00F0E9FD01F0AB
:100CA000FDF9434CE423E158424800F089FC4248F6
:100CB00000F086FC00F062FFE08E01F0D7F83A49C0
:100CC0008B683A4A1340012003438B604B6804252C
:100CD0002B434B60394AD36802263343D360384BE9
:100CE0001C6904431C619A69120C120402439A6144
:100CF0009968314399601A6906218A432A431A6127
:100D0000304B1A68304B1A60A023DB0508229A6129
:100D10001CE02E4B00221A7001F02EFA1EE02C4B24
:100D200000221A70204A936820490B4004210B438B
:100D30009360284B1B78002B15D1224B1A68224B4D
:100D40001B68D31AE12109018B4212D201F066FE21
:100D500001F0BCF91D4B1B78002BDAD11C4B1B7822
:100D6000002BE6D0DBE71B4B00221A7001F064FA7F
:100D7000E3E7154B1A60184B1A68501C18601821CD
:100D8000FFF75AFA0029E1D100F058FADEE7C04631
:100D90000010024010E000E01000002000000020E1
:100DA000843B00080827014000240140E8FFFF7F42
:100DB00040040020903B00089C3B000800140140C8
:100DC000007C0040C0000020D4000020DA00002099
:100DD000D900002075050020F8000020FEE7FEE79E
:100DE00070477047034B01221A70034A136801339E
:100DF0001360704782050020A8000020034B5B6948
:100E0000DB0602D5014B10225A61704700040140F5
:100E100010B5C04601F0ECF90D4B1A681A681B6852
:100E20005B0702D50A4B04221A60094B1B681B079B
:100E300006D5074B08221A60064B00221A7010BD17
:100E4000034A936804490B4004210B439360F6E77F
:100E500000240140D8000020E8FFFF7F10B5064BBA
:100E60001B689B0704D5044A536802210B43536057
:100E700001F076F810BDC046007C004070470000CD
:100E800010B5084B1B699B0703D5064B0322524242
:100E90001A6100F095FE034A136801218B43136029
:100EA00010BDC0460014014010B500F0FBFB10BDA2
:100EB00010B500F0E9FE10BD10B503000C4A0D4955
:100EC000521A0D490968002907D00B490868C31850
:100ED000934206D8084A136010BD074907480860C6
:100EE000F3E702F0C7F90C23036001204042F3E767
:100EF0000020002000040000AC000020A805002015
:100F00007047000070B586B000236A4653812449BB
:100F1000486B042210434863496B0A400192019ACE
:100F2000204DC52189006A58FF2082436A508026DF
:100F300076032E606A46138103931B4A049205933D
:100F40001A4C02A9200002F0C5F8236880229343BE
:100F50002360636870218B436360A3689343A3603D
:100F6000A3696D398B4302390B43A361A3690B312C
:100F70008B430B43A361A369E4318B43A361236AD1
:100F8000E6398B432362236D35318B432F390B4375
:100F90002365AE50BFF34F8FBFF36F8F06B070BDA8
:100FA0000010024000E100E0FFFF000000080140E7
:100FB000F0B5C64600B58AB000256B465D831022A9
:100FC000002102A802F089F9224A516B202319431B
:100FD0005163526B13400193019B1F4BC521890044
:100FE0005A581E4802405A508022D2031A600427E1
:100FF0006B461F8307951A4B984608930995194C21
:1010000006A9200002F066F823688026B343236017
:10101000A368154A1340A3600295039543460493C1
:10102000059502AA0121200002F082F8A369BB43C2
:10103000A3612368082293431343236063686832E3
:1010400093436360A368B343A3600AB080BCB8460F
:10105000F0BDC0460010024000E100E0FFFF00FFCD
:101060007707000000140140F8BFFFFF30B58FB0D4
:101070001822002108A802F030F9304B996B80202B
:10108000C002014399639A6B02400192019ADA6AA5
:1010900001252A43DA62DB6A2B400093009B04237C
:1010A0000293023B039301330493059506950333A2
:1010B0000793A02002A9C00501F0C0FD204BC72165
:1010C00089005A581F4802405A50802292051A60DF
:1010D00096239B010893002309930A930B930C33E7
:1010E0000C93194C08A9200001F03CFEA3680822CB
:1010F0001343A360A368154A1340A360EFF3108263
:1011000085F31088A36812490B40A36082F310880E
:10111000A26880239B001343A360EFF3108285F342
:101120001088A368AB43A36082F31088A368094AC0
:101130001340A360E3690FB030BDC0460010024009
:1011400000E100E0FF00FFFF00480040FFFEFFFF5E
:10115000FFFBFFFFFFFDFFFFF0B5CE46474680B522
:1011600091B01C22002109A802F0B7F82F4B996B0F
:1011700080208002014399639A6B02400292029A96
:10118000DA6A01252A43DA62DB6A2B400193019B6C
:1011900080239B000393FF3BFF3B9946049301335D
:1011A0009846059300240694079404270897A026E0
:1011B000F60503A9300001F041FD8023DB00039315
:1011C0004B4604934346059306940794089703A956
:1011D000300001F033FD164AC72189005358FF2023
:1011E00083437F380343535080235B05136096236A
:1011F0009B0109930A940B940C940C230D930E9469
:101200000F940C4C09A9200001F0B2FF63680A4A50
:1012100013406360A3682A229343A36023682B438F
:10122000236011B0C0BCB946B046F0BD001002400A
:1012300000E100E000440040FFB7FFFF10B50B4C99
:10124000A3881B04E1881943032000F063FC084BCA
:10125000F6229A5AA280E280FC22985E0A21FEF7CA
:10126000EFFF40B2A072E07210BDC046F80000204F
:101270004004002010B5084BFC215A5E585A223910
:1012800058524831595ADC20195212041143D838A7
:1012900000F040FC10BDC0464004002010B5094BD2
:1012A000FC22995A1E3A99524432995A423A99521A
:1012B0009A89120492214900595A1143052000F0DD
:1012C00029FC10BD40040020F0B5CE46474680B54D
:1012D00083B0324B984206DBFA235B00984203DD71
:1012E000FA20400000E02D482D4B66229D5E6822CA
:1012F0009E5A0232995E8C466C229A5A002E43D036
:10130000002A43D0A84241DB884229DD00239946C8
:1013100000270123FA24A400019401E001339BB2C9
:10132000062B20D84C463C431DD11D4C1A001832C8
:101330009200A2180626955F16891A0019329200AB
:10134000A2180624115F8C461289002A01D1019649
:101350000127A842E2DB6045E0DC01218946DDE7A8
:1013600001239946D4E74B46002B09D0401B03B21A
:10137000901B58436346591BFEF7D8FE361805E00C
:10138000604509DC019E01E0FA26B600300003B09A
:10139000C0BCB946B046F0BD1600F7E7A8FDFFFF98
:1013A00040040020F0B5CE46474680B583B0050026
:1013B0002A4B86229E5E8822985A814602329C5E83
:1013C0008C229A5A002846D0002A3BD0AE4239D807
:1013D000AC4206D2002100200123FA27BF0001976A
:1013E00003E00121F7E701339BB2062B1DD80F0064
:1013F00007431AD1194C1A0020329200A21806276E
:10140000D65F128991461A0021329200A21806274F
:10141000D45F1289002A02D1484601900120AE42D1
:10142000E1D8AC42DFD30121DDE700290FD0AD1BAD
:101430002DB24B46D01A6843A11BFEF701FF0200F4
:101440004A4490B203B0C0BCB946B046F0BDAC420D
:10145000F7D3019AF5E7FA208000F3E74004002073
:10146000F0B5C64600B5384B912252009C5A463A18
:101470009A5AA41A24B2E021595A8A420FD09B8961
:101480003248584300B2891A09B2FEF7D9FE002C3F
:1014900007DB002C08DD002807DC002405E02B48D2
:1014A000F5E70028F5DA00E000246043284B9C466D
:1014B00060442649FEF73AFE0500234EDE23F05E27
:1014C000FFF702FF8046FC23F05EFFF7FDFE0700FA
:1014D00043465D432800F530FF30FA218900FEF7CE
:1014E00025FE90235B00F0527B089846280040447C
:1014F0003900FEF71BFE0500FFF754FF6843F53087
:10150000FF30FA218900FEF711FE85B2F623F5526D
:1015100063011B1B9B001C19E400200040443900A0
:10152000FEF704FE92235B00F0520A4B9B889D421B
:1015300001D9084B9D80074BDB889D4201D2054BAA
:10154000DD8080BCB846F0BD4004002010270000BC
:1015500088130000F800002070B586B0144B5A685C
:1015600001210A435A605A68022002435A605A68AD
:10157000023002435A606A460023138053800133CD
:10158000FF3393800B4B936003AB180070CA70C09D
:10159000094A31CB31C2EFF3108081F31088074A3A
:1015A00013681F310B43136080F3108806B070BDC1
:1015B00000580140040100200802002000440040BF
:1015C0000FB430B5AFB032AB04CB0093B42101A857
:1015D00001F0B6FE01A8FEF797FDC0B2002205E0BB
:1015E00001339BB212490B80013292B283B2934213
:1015F0000DD901AB9C5C0E490B888D68EC540B88AF
:101600009BB2898801398B42EAD10023EAE7EFF3E4
:101610001081012383F31088064A13688020034356
:10162000136081F310882FB030BC08BC04B0184799
:101630000802002000440040134B5A8892B21B88D5
:101640009BB29A4210D0104A53889168C95C538863
:101650009BB29288013A934213D001339BB20A4A5B
:1016600053800A4B99627047EFF31081012383F393
:101670001088064A136880208343136081F3108822
:10168000F1E70023EBE7C0460802002000440040D9
:10169000024B5A6A024B1A707047C0460044004021
:1016A0000402002010B50E4B1B681B0605D50C4B21
:1016B000DB691B0601D5FFF7BFFF094B1B689B06C3
:1016C00005D5074BDB699B0601D5FFF7E1FF044B0E
:1016D000DB691B0702D5024B08221A6210BDC04607
:1016E000004400400A22084B9B699B0708D4074B23
:1016F0001B68DB03F7D5531E002A04D01A00F2E75B
:10170000014B02229A6170470020024010E000E085
:1017100010B5054B9C46604403688B4200D110BD58
:101720000160FFF7DFFFFAE700000808F8B50700DF
:101730000E0015000024A54207DDA300F158F8189B
:1017400080B2FFF7E5FF0134F5E7F8BD70B504009E
:101750000E4E3A213000FFF75BF8E823F050EFF32C
:10176000108372B60A4D0B4AEA600B4AEA6083F3B3
:101770001088EC20604380B23B223100FFF7D6FF97
:101780006B68012213436B6070BDC04640040020AB
:1017900000200240EFCDAB890504030210B50A4AD0
:1017A0001368013313600948FFF70AFF084C2078DB
:1017B000FFF7CCFF0748FFF703FF074B01221A7022
:1017C00023785340237010BD400400209C3B000848
:1017D000B0000020C43B00087405002010B50220B2
:1017E000FFF7B4FF0148FFF7EBFE10BDD43B000844
:1017F00010B5BCB0002307E09B00194959180868D0
:1018000001A9C850013253B2DAB23A2AF4D93A21C6
:1018100001A8FEF7FDFFE8236A460432D35883424D
:1018200006D000210F48FFF7CBFE00203CB010BDD2
:101830000D48FFF7C5FE0D4B1C680023DAB23A2AAB
:1018400007D89B0001A9C8580849C850013253B2B3
:10185000F4E7064B1C60FFF7A1FF0120E6E7C04656
:10186000D8010808EC3B0008003C000840040020B8
:1018700030B5F9B00023DAB2752A08D89B00434985
:101880005918086802A9C850013253B2F3E700247E
:1018900004E001AB01221A55013464B2012C12DCC0
:1018A000EC25654302AB58193A21FEF7B1FF02ABB4
:1018B0009C4665442B00E8331B688342E9D001ABAA
:1018C00000221A55E8E701AB1B78012B10D0002B42
:1018D00003D101AA5278012A1ED02D4A002111708D
:1018E000002B32D101AB5B78002B19D000232DE007
:1018F00001AA5278012AEAD1EB3269460820091878
:101900008A580299914203D2214A01211170E7E7D6
:101910001F4A00211170E3E71D4A01211170DFE722
:10192000FFF766FF002829D100F0A4FB0021194829
:10193000FFF746FE164C00252570FFF72FFF257098
:101940000021092000F0E6F818E00023DAB23A2A74
:101950000DD80F490878EC21414302A88446614420
:101960009B00C8580C49C850013253B2EEE70A4BED
:101970001A68074B19780948FFF722FE044A1378C2
:1019800001214B40137079B030BDC04600000808FB
:10199000B0000020103C0008400400201C3C00085F
:1019A000104B114ADA60114ADA605B68DB0709D52F
:1019B000EFF3108272B60B4B0B49D9600B49D9601B
:1019C00082F31088074B5B689B0709D5EFF3108201
:1019D00072B6044B064919610649196182F31088F1
:1019E0007047C04600200240EFCDAB8905040302DA
:1019F000BFAE9D8C16151413044B5A6801210A437F
:101A00005A605A6801310A435A6070470020024008
:101A10000A22074B9B69DB0708D5064B1B68DB03D3
:101A2000F7D5531E002A01D01A00F2E77047C046CE
:101A30000020024010E000E00A22084B9B699B074F
:101A400008D4074B1B68DB03F7D5531E002A04D0CC
:101A50001A00F2E7014B02229A617047002002400F
:101A600010E000E070B50D4C626880239B001343CA
:101A70006360636808252B4363607F2398430023DA
:101A80000360FFF7C5FFFFF7D7FF6368AB436360F1
:101A90006368034A1340636070BDC0460020024083
:101AA000FFFDFFFF70B504001500184A53680820B9
:101AB000034353602368002B19D10906FE23DB057D
:101AC0001940134B1B681B021B0A19432160002697
:101AD000FFF7B2FF6368002B10D16560FFF7ACFF22
:101AE0000A4A536808218B435360300070BD226856
:101AF00080231B06134323600126E9E72268802325
:101B00001B06134323600126E8E7C046002002407D
:101B1000F8000020F8B507000E00FFF741FF002590
:101B20000DE02000FFF79EFF12E001339BB2104A48
:101B300013810135ADB2012816D10F2D14D80C4BED
:101B40001C89E4000B4B9C4664447F231C42E8D074
:101B5000320039002000FFF7A5FF054B1B89064A1C
:101B60009342E2D90023E2E7FFF746FFF8BDC04603
:101B7000F800002000600008FE03000010B50E4BC6
:101B800000221A80EFF31080012181F310880B4BA3
:101B90001A68042422431A6080F31088EFF310803F
:101BA00081F310881A681C3422431A6080F310886D
:101BB0001A680A431A6010BD140300200048004050
:101BC000044B1988044A118000221A80034B013209
:101BD0001A7070471403002018030020B100002081
:101BE0000C4B596A0C4B1B880C4AD154FE2B02D863
:101BF0000133094A1380084B1B88012B03D0084B83
:101C000000225A627047064A136801210B43136091
:101C1000F5E7C046004800401403002014020020ED
:101C20000014014010B5144B1B88144A12889342CB
:101C300009D21349C85C1349886201339BB20E492B
:101C40000B809A4200D010BDEFF31080012181F388
:101C500010880C4B1A688024A2431A6080F3108805
:101C6000EFF3108081F310881A683F310A431A603D
:101C700080F31088E7E7C046160300201A0300200F
:101C80001C0300200048004010B51D4B1B689B063C
:101C900005D51B4BDB699B0601D5FFF7A1FF184B50
:101CA0001B681B0605D5164BDB691B0601D5FFF724
:101CB000B9FF134B1B685B061AD5114BDB695B063A
:101CC00016D50F4B40201862EFF31084012181F3E9
:101CD00010881A6882431A6084F31088EFF310802A
:101CE00081F310881A6803310A431A6080F3108860
:101CF000034BDB691B0702D5014B08221A6210BD9A
:101D00000048004082B0044B1B680193019B0130E6
:101D1000024B186002B0704710E000E0B8000020ED
:101D2000094B1B68DB0303D5084A1368013B1360AA
:101D3000064B1B68002B05D1054A1368013313605D
:101D4000012070470020FCE710E000E0B800002010
:101D5000B400002010B504000120FFF7D3FFFFF707
:101D6000DFFF002805D1044B9B699B0701D4C046C7
:101D7000F5E7014B9C6210BD0054004010B50C000B
:101D80000F494B680F4A1A400F4B13434B60FFF744
:101D9000E1FF200AFFF7DEFFE0B2FFF7DBFF0120E3
:101DA000FFF7B0FFFFF7BCFF002803D1044B9B698E
:101DB0009B06F7D5024AD36920210B43D36110BD9E
:101DC00000540040008000FC9020038270B5224C3B
:101DD0006268224D2A40224B13436360FFF7BAFF2B
:101DE00063681D401F4B2B4363600120FFF78AFF90
:101DF000FFF796FF002803D1174B9B695B07F7D5C8
:101E0000154B5D6AEDB2FFF78BFF002803D1124B33
:101E10009B695B07F7D5104B5C6AE4B25968802276
:101E2000D2010A435A600120FFF76CFFFFF778FFE9
:101E3000002803D1084B9B699B06F7D5064AD36956
:101E400020210B43D3612802201880B2064B9C4608
:101E5000604480B270BDC04600540040008000FC69
:101E600090200181902402800080FFFF10B5842122
:101E7000FF310143024B19800120FFF77FFF10BDA6
:101E8000BC00002010B504000120FFF79FFF0F4B9E
:101E9000184080B220430E49014389B20120FFF768
:101EA0006DFF0A2400E004000120FFF78FFF030408
:101EB00006D5601E80B2002CF5D1002802D110BDDD
:101EC0002000FAE70020FFF781FFF8E7FF8FFFFF10
:101ED0000080FFFF10B501000020FFF7D3FF10BD09
:101EE00010B504001C4B1A88E0231B011A40C023C4
:101EF000DB009A4222D00FD880239B009A4220D048
:101F00008023DB009A4202D1802000010EE0002AEB
:101F10001AD1C020400109E080231B019A4215D04C
:101F2000A0231B019A4214D1802040000B49484352
:101F3000C0136043FEF784F980B210BD8020C0005A
:101F4000F4E780204001F1E70020EFE780208000E7
:101F5000ECE70020EAE7C046BC00002010270000A4
:101F60001F4A1368013313601E4B1B88002B02D0DD
:101F7000013B1C4A13801C4B1B781E2B03D80133DA
:101F8000194A13707047194B01221A70164B002220
:101F90001A70174B1B78002B15D1164A01211170AE
:101FA00015490A7801204240D2B20A70002A0AD1AB
:101FB00012490A6801320A6011490A780132D2B224
:101FC0000A70782A04D001225340094A1370D9E7D5
:101FD0000A00002111700B4A01311170F3E7C0466D
:101FE000C80000202804002072050020D90000202D
:101FF00073050020DA000020C5000020C00000208A
:10200000C400002024000020014B18807047C04607
:102010008605002010B50023084A13700848962151
:102020004900425A0424A243425206490A80064A01
:102030001370064A1380064A138010BD88050020DD
:10204000400400208A050020920500208E05002013
:102050008605002010B5064B1B88012B03D9013BD8
:10206000034A138010BD012BFCD1FFF7D3FFF9E722
:1020700086050020074BC02292009A80F83ADA8049
:1020800000221A81044A5A810A225A86A022120189
:10209000DA8670474004002010270000094BEC222C
:1020A0000949995202320221FF319952ED3A113910
:1020B0005A523C315A521832FF321E39FF39995266
:1020C0007047C0464004002021200000234A962388
:1020D0005B00D35ADB073DD5214B1B78002B3CD04E
:1020E0001F4B00221A701F4B1978002922D01E4B5B
:1020F00002329A621D4A138801339BB213801C4836
:102100000288013292B20280952A09D9194A1288AE
:10211000632A02D8013217480280154A0020108035
:1021200000290BD0002B18D0104B00221A800D4B29
:102130001A7012E00C4B02229A61DBE70D4A1288FA
:10214000D318632B09DD094B00221A80054B01329D
:102150001A7002E0044B02229A6270474004002089
:1021600082050020DB00002000040050CE0000208B
:10217000D0000020CC00002010B5194A8C235B0051
:10218000D35A002B07D0174B1A680F239B1A1449F8
:102190008C2252008B52124A96235B00D35ADA07E4
:1021A00014D5104A12680E2A10DD012293430C4AFE
:1021B00002210B439621490053528C235B000021DE
:1021C000D152094A136802318B431360FFF742FF73
:1021D000034A96235B00D25A044B1A8010BDC046B6
:1021E00040040020C000002010E000E08A0500202C
:1021F0000D4B1B681B0702D50C4B02221A700B4BB0
:102200001B78094A106C5A0009498852012B06D9DB
:10221000084B01221A70054B00221A7070470133D7
:10222000024A1370FAE7C04600240140D80000209B
:10223000380400207505002070B5244B1888244C04
:102240006043244D6988FDF771FF234B1860AB880C
:1022500058432100FDF76AFF204B1A88831A642037
:1022600058431F4B1988891AFDF7EAFF8300C018ED
:1022700040002D30FF301B4E3080A0200001FFF7C2
:1022800029FE194C91256D006053FFF729FE0200CD
:10229000FE23E0520021735EFC216352615B134810
:1022A000FFF78EF91248FFF78BF9FFF7D9F8E388AB
:1022B000DB070AD50C4CF623E35A608E58430A21FB
:1022C000FDF7BEFF8A235B00E05070BD7800F81F69
:1022D000B80B000038040020200000207A00F81F0E
:1022E0007E00F81F7605002040040020343C0008E2
:1022F0009C3B000830B5050000240A480BE040086C
:10230000013B002B06D0C207F9D54008064A5040D1
:1023100080B2F5E701348C4203DA2B5D5840082384
:10232000EFE730BDFFFF000001A0FFFF124B1B785D
:10233000002B14D0114B01221A80114B1B78002B5B
:1023400011D01049962252008B5A042003438B521D
:102350000C4A96235B00D25A0B4B1A807047074BEE
:1023600000221A80E9E70749962252008B5A04207E
:1023700083438B52ECE7C046920500208E05002077
:1023800088050020400400208A0500200C490B68C5
:10239000020A1A7058700B4A1068027802320270F2
:1023A00009480288013A028002330B60074A137819
:1023B00002331370064A1388013313807047C046F6
:1023C000EC000020E4000020E0000020DE000020FF
:1023D000DC00002010B514000378137043785370AC
:1023E000294B82785A70C2781A70284B02795A7039
:1023F00042791A70E11C264A1160A11C254A11601D
:10240000254A032111700022A2701A88531E9BB224
:102410007C2B14D81C4B1B88802149018B4223D371
:102420001E498B4220D87A2A1ED89A181C498A4203
:102430001ADC1C4A94466344134A138010E0627805
:1024400080235B42134363700223A370032011E0D7
:102450000D4B1B88DB00144A9B581888FFF796FF2A
:102460000A4B1B88002BF3D1084B1B88002B02D191
:10247000094B187810BD627880235B421343637068
:102480000223A3700320F5E7DC000020E000002019
:10249000EC000020E4000020DE00002079100000A5
:1024A0007A10000000F0FFFF3C3D000810B514005A
:1024B0000378137043785370244B82785A70C27833
:1024C0001A70234B02795A7042791A70E11C214A22
:1024D0001160A11C204A1160204A032111700022C2
:1024E000A2701A88531E9BB27C2B15D8174B1B88E1
:1024F000312B1AD8322A18D89A18322A15DC144BE4
:102500001B88002B11D0114B1B889B00144A9B5831
:102510001888FFF73BFFF2E7627880235B421343A2
:1025200063700223A370032005E0094B1B88002B76
:1025300002D10A4B187810BD627880235B421343A6
:1025400063700223A3700320F5E7C046DC0000207F
:10255000E0000020EC000020E4000020DE0000206D
:102560000C4100080C4B1B681A7801684A705A78B5
:1025700001680A700279002A01D008490A700849E6
:102580000A8801320A8007490A88013A0A80023320
:10259000014A13607047C046EC000020E8000020AC
:1025A000DC000020E000002000B583B02A4B1B783F
:1025B000002B08D0294B1B78002B0AD1284B1A88F6
:1025C000284B9A4205D0264B1A8880235B019A42F9
:1025D0003ED1254B1A6811786B46D97152789A71A1
:1025E0001F4B1B881F4A934211D0802252019342F5
:1025F00022D0194B1B78002B03D1184B1B78002BD2
:1026000028D0F120FFF700FD012003B000BD6A468D
:102610000632128815498A4205D0002A07D10F4A8E
:1026200000211170E1E70D4A01211170DDE70B4A2D
:1026300010780028D9D1E8E76B4606331B885B0782
:1026400003D5054B01221A70D3E7FFF7E3FCD0E76F
:102650000020DAE70120D8E7880500209205002055
:10266000DC00002001100000EC000020CDFA00008A
:1026700000B583B0184B1A88184B9A4227D1184BD3
:102680001A6811786B46D97152789A7106331B8893
:10269000144A93421DD00DD8134A934210D0134AC6
:1026A000934214D11248FEF78BFFFEF7F7FDFFF7B8
:1026B00075F80CE00F4A934209D1FFF799F806E04C
:1026C0000D48FEF77DFFFEF7D5FDFFF767F803B075
:1026D00000BDFFF783F8FAE7DC00002001100000DE
:1026E000EC000020CEAB00005D180000C4640000C8
:1026F000643C00084BCE0000543C000870B5040058
:10270000150083781B02C2789B18304A1380021D83
:102710002F4B1A602F4B01221A800532010028002E
:1027200000F0D2FD2C4B00221A70FFF73DFF00286D
:1027300008D16A7880235B4213436B700423AB702B
:10274000033070BDFFF794FF204B1A8880235B0194
:102750009A420AD3214B9A4207D81E4B1B887A2BE8
:1027600003D8D3181E498B420CDD1A4B1B88002B53
:1027700020D06A7880235B4213436B700223AB70D6
:102780000320DEE7174B9C46624492B20F4E328024
:1027900021781548FEF714FF0D4B1B6819785A78FD
:1027A0001248FEF70DFF3088C000114BC018FFF72C
:1027B000D9FEDAE7FFF7BAFD074B1B78002B01D1F2
:1027C0000620BEE7FEF7EAFF0620BAE7DC0000209D
:1027D000EC000020E0000020E8000020791000005C
:1027E0007A10000000F0FFFF743C0008A43C0008D1
:1027F0003C3D000810B501001000062200F064FD09
:10280000062010BD10B582B06B468178D971C178B1
:10281000997106331B883F2B0FD800211F2915DC27
:102820006B4606331B88DB0188001B18094CA44645
:1028300063441B6813500131F0E7517880235B42F9
:102840000B43537003239370032000E0832002B0F6
:1028500010BDC0460060000830B583B0040015000C
:1028600083781B02C2789B183D4A138003791B02B0
:1028700042799B183B4A1380C21D3B4B1A600622CB
:102880000100280000F020FD384B00221A70FFF7ED
:102890008BFE002809D16A7880235B4213436B705A
:1028A0000423AB70033003B030BDFFF7E1FE2D4BC6
:1028B0001A88531E9BB27C2B1BD8294B1B88802166
:1028C00049018B4208D32A498B4205D87A2A03D87A
:1028D00099182848814215DD224B1B88002B33D0E4
:1028E0006A7880235B4213436B700223AB70032032
:1028F000D9E76A7880235B4213436B700223AB7085
:102900000320D0E71C498C4663449BB214490B80DA
:10291000217815480068007800901848FEF750FEAE
:102920000DE0114B1B6819785A781548FEF748FEE0
:102930000B4B1888C000134BC018FFF713FE094B50
:102940001B88002BEDD1C7E7FFF7F0FC074B1B7886
:10295000002B01D10620A6E7FEF720FF0620A2E704
:10296000DC000020E0000020EC000020E800002057
:10297000791000007A10000000F0FFFFB03C000862
:10298000A43C00083C3D000870B5140003781370A7
:1029900043785370033BDAB20D2A2ED893001D4AB8
:1029A000D3589F462200FFF715FD0500002D09D0E2
:1029B00029002000FFF79EFC60556B1C0004000EF0
:1029C000E0540235280070BD2200FFF76FFD0500BE
:1029D000ECE72200FFF792FE0500E7E72200FFF791
:1029E00009FF0500E2E72200FFF70CFF0500DDE725
:1029F0002200FFF731FF0500D8E70748FEF7E0FDAA
:102A0000627880235B42134363700123A370032524
:102A1000CEE7C046043D0008E83C000870B5204BF6
:102A20001B78002B0FD01E4B00221A701D4B1C88E8
:102A3000032C08D9A61E1C4D31002800FFF75AFCB4
:102A40002B78552B00D070BDAA5DC3B29A42FAD143
:102A5000631EEB5C0004000E8342F4D1134A210094
:102A60002800FFF791FF124B1880124B00221A80AA
:102A7000EFF31080012181F310880F4B1A680424B2
:102A8000A2431A6080F31088EFF3108081F310885E
:102A90001A687F310A431A6080F31088D3E7C04672
:102AA000B100002018030020140200201C030020A5
:102AB0001A03002016030020004800400D488546F8
:102AC0000D480E490E4A002302E0D458C450043386
:102AD000C4188C42F9D30B4A0B4C002301E013605D
:102AE0000432A242FBD3FEF70BFA00F0C9FBFEF75B
:102AF00089F8FEE700200020000000208C00002064
:102B0000184200088C000020A4050020FEE7000009
:102B100010B58368DB0711D4C368094A13404A68BB
:102B20008C682243CC6822431343C36003699B0033
:102B30009B080A6813430361002010BD0120FCE7D5
:102B4000C73FFFFF10B58368DB070FD4C368084A8F
:102B50001A400B684C6823438C682343CC6823439A
:102B600009690B431343C360002010BD0120FCE73B
:102B70003CC2FEFF10B503000079002850D01A684F
:102B8000002A57D05879012818D0022820D00028D0
:102B90000BD001209A79002A4BD0022A2CD0032A8C
:102BA00034D0012A1ED0012043E023494C689443CD
:102BB0004C600A681C6822430A60EBE71E490868FB
:102BC000904308604A68186802434A600020E1E7C1
:102BD0001949086802430A604A68186802434A6053
:102BE0000020D7E7144AD1681C68A143D1601B6854
:102BF00091680B4393601CE00F4A91681C68A143E5
:102C000091601B68D1680B43D36012E00A4A916857
:102C10001C68214391601B68D1680B43D36008E0B6
:102C2000054A11681C68A1431160196853688B43F9
:102C3000536010BD0020FCE700040140F0B5002205
:102C400027E083682C006C4366003619B3438E6816
:102C50007443234383600C684368A343CE68744382
:102C600023434360C6682B006B435F00FF18FC439F
:102C7000A446BE430F695F433E43C6604C68022CC6
:102C800016D0046865462C404D686B4323430360AF
:102C900001320C682300D34026D001239340250045
:102CA0001D401C42F4D04B68013B012BDAD8C8E729
:102CB000FF2D0BD8066A1C006C4365432C01641B76
:102CC000A6434C69654335430562DAE7466A2D0A37
:102CD0002C006C436C4365432C01641BA6434C6978
:102CE000654335434562CCE70020F0BD30B502684E
:102CF0000124A24302600368174A1340CA68120203
:102D00008D682A43134303604B68036103682343C0
:102D100003608368114A134083608368DB0ADB0227
:102D20000A698C692243134383600B69002B04D02A
:102D3000826880231B02134383600368084A1340A0
:102D40000A68134303604B69426804490A4013430D
:102D50004360002030BDC046FFE0FFFFFF7FFFFF64
:102D6000FFFFCFFFF8B504000D000368DB072CD48C
:102D70000368194A13404A68C9680A4329690A4323
:102D8000134303604368154A1340AA681343436022
:102D90008368134A13406A6913438360C0200001AB
:102DA00000F0E0F8002812D02A68002A11D0070E9F
:102DB000060250080021801979410023FDF72CFB01
:102DC0000003000BE060002000E00120F8BD0120BE
:102DD000FCE70120FAE7C046F3E9FFEFFFCFFFFF72
:102DE000FFFCFFFF044BDA6812090F231340034A6C
:102DF000D35CD8407047C04600100240A03B00089A
:102E0000044BDA68120A07231340034AD35CD84004
:102E10007047C04600100240B03B000810B50E4B92
:102E2000DB68DB0305D40C4B1B68DB0612D50B48B3
:102E300000E00B480849CA68920C0F231340094A66
:102E4000D35C5843CB689B0D032119400131FDF73A
:102E50006DF910BD0448EDE70010024000093D0087
:102E600000127A00B83B00080024F40010B5174B9C
:102E7000DA680C231340082B23D009D8002B0CD080
:102E8000042B14D1114B1B68DB061CD5104819E02C
:102E90000C2B0CD1FFF7C2FF14E00C4B5A68520BFD
:102EA0000723134001338020000298400AE0074BBB
:102EB0005A68520B072313400133802000029840C8
:102EC00000E0044810BD0448FCE7C0460010024082
:102ED00000093D0000127A000024F40010B50C280F
:102EE00001D0002010BD194BDB6C034000041843D7
:102EF000174B98420FD0174B984219D0164B984257
:102F000006D0FFF7B3FFFFF76DFFFFF779FFE9E7A3
:102F1000FFF7ACFFE6E70D4B1B68042210001840DA
:102F20001A42DFD0094B1B68DB060CD40B48D9E7EB
:102F3000064B1A6D80239B00100018401A42D1D016
:102F400080200002CEE70648CCE7C04600100240D1
:102F500008000C000C000C0004000C000024F4001D
:102F600000093D0010B5194BDB6C184080231B0194
:102F7000984211D0C0231B0198421AD08023DB0055
:102F8000984206D0FFF772FFFFF72CFFFFF738FFDC
:102F900001E0FFF76BFF10BD0C4B1B680422100013
:102FA00018401A42F7D0094B1B68DB060CD40848BE
:102FB000F1E7064B1A6D80239B00100018401A425F
:102FC000E9D080200002E6E70248E4E70010024072
:102FD0000024F40000093D0070B5036A0124A343F6
:102FE0000362036A456882697326B2430E683243FE
:102FF0000226B343CE683343A3434C682343456062
:1030000082618A6842630362002070BD70B5036A02
:103010001026B3430362036A456882690A4C224062
:103020000C68240222432024A343CC6824012343B8
:10303000B3434C6824012343456082618A688263FC
:103040000362002070BDC046FF8CFFFF70B5026AAE
:103050000C4E32400262036A4568C2697324A2437F
:103060000C682243084C2340CC682402234333409D
:103070004C68240223434560C2618A68C2630362CC
:10308000002070BDFFFEFFFFFFFDFFFF70B5026A6D
:103090000D4E32400262036A4568C2690B4C224001
:1030A0000C68240222430A4C2340CC6824032343A7
:1030B00033404C68240323434560C2618A6802643C
:1030C0000362002070BDC046FFEFFFFFFF8CFFFFD3
:1030D000FFDFFFFF03688022D205904205D0114A2E
:1030E000904202D0104A904203D1702293434A6822
:1030F00013438022D205904205D00A4A904202D062
:10310000094A904203D1094A1340CA681343036035
:103110008B68C3620B888362436901221343436156
:10312000002070470008014000140140FFFCFFFF31
:1031300010B50B00110080225200934215D008D820
:10314000012B0FD0102B02D1FFF760FF09E0012007
:1031500007E080225201934202D1FFF797FF00E07F
:10316000012010BDFFF738FFFBE7FFF76FFFF8E71F
:1031700070B504000D000368DB0740D40368234AE0
:103180001A404B68C9680B4329690B43A9690B4373
:103190001343036043681E4A1340AA681343436005
:1031A00083681C4A13406A69134383601A4B984230
:1031B00001D0012024E00C20FFF790FE002820D051
:1031C000296800291FD0AA6980231B029A4208D0CF
:1031D0004B08C018FCF7AAFF0004000CE0600020B8
:1031E0000EE040004B08C018FCF7A0FF0B4B03405B
:1031F0004008072210401843E060002000E0012052
:1032000070BD0120FCE70120FAE7C046F369FFEF3B
:10321000FFCFFFFFFFFCFFFF00440040F0FF000076
:1032200010B5FA218900FCF781FF0138034B586083
:1032300000229A6005321A6010BDC04610E000E01E
:1032400082B0084B1B680193019B431C00D00130E6
:10325000002805D0034B1B68DB03F9D50138F7E7DD
:1032600002B0704710E000E0014B18607047C046A4
:103270001C000020014B18687047C0462800002041
:1032800070B500260C4D0D4C641BA410A64209D14C
:10329000002600F05DFC0A4D0A4C641BA410A642F7
:1032A00005D170BDB300EB5898470136EEE7B30087
:1032B000EB5898470136F2E7104200081042000828
:1032C0001042000814420008002310B59A4200D1B1
:1032D00010BDCC5CC4540133F8E70300821893425C
:1032E00000D1704719700133F9E730B514000500BB
:1032F0001A009BB0002C05DA8B23036001204042AA
:103300001BB030BD822368469B008381002300915F
:1033100004919C4200D0631E0293059301236946E9
:103320005B42CB8128001E9B00F078F8431C01DA39
:103330008B232B60002CE3D00023009A1370DFE76F
:1033400007B5009313000A00010002480068FFF768
:10335000CCFF0EBD28000020F0B58E6885B00700B8
:103360000C00039201939E423CD890238A89DB0093
:103370001A4234D00325096923685B1A02936369F2
:1033800002985D43EB0F5D19019B6D1001331B1813
:10339000AB4200D91D00530532D52900380000F09A
:1033A00027FB061E09D10C233B6040230120A28984
:1033B00040421343A38105B0F0BD029A2169FFF793
:1033C00083FFA389144A1A4080231343A381029BDD
:1033D0002661F61826606561019EED1AA560019BC5
:1033E0009E4200D9019E32000399206800F0A3FAA2
:1033F000A36800209B1BA36023689E192660DAE760
:103400002A00380000F052FB061EE0D13800216986
:1034100000F0A4FAC7E7C0467FFBFFFFF0B5A1B0FC
:1034200003901D008B890F0016001B0611D50B6938
:10343000002B0ED1402100F0DBFA38603861002803
:1034400005D10C23039A0138136021B0F0BD40234D
:103450007B61002308AC6361203363761033A3766D
:10346000079535002B78002B01D0252B47D1AB1BBE
:103470000593B5420CD0320039000398FFF76CFF7A
:10348000431C00D1AEE06269059B944663446361CE
:103490002B78002B00D1A5E001220023524262606C
:1034A00004A9543252186E1C2360E360A3601370A9
:1034B000A36505223178544800F032FA751C0028C3
:1034C0001FD12268D30604D5532304A95B182021F9
:1034D0001970130704D5532304A95B182B21197005
:1034E00033782A2B16D0350000210A20E3682A7889
:1034F0006E1C303A092A4ED9002911D117E0013546
:10350000B0E7414B2268C01A0123834013432E00C9
:103510002360CEE7079B191D1B680791002B01DB79
:103520000B9304E05B42E3600223134323602B7898
:103530002E2B0AD16B782A2B35D1079B02351A1D09
:103540001B680792002B2BDB0993304E03223000BF
:10355000297800F0E5F9002806D04023801B83403D
:1035600022680135134323602978062228486E1CFF
:10357000217600F0D5F900283CD0264B002B25D130
:103580000722079B07339343083307936369049A21
:103590009B18636165E74343350001219B18A6E74B
:1035A00001235B42D0E700230A201A000135636043
:1035B00029786E1C3039092903D9002BC5D009920E
:1035C000C3E74243350001235218F1E707AB0093EC
:1035D0003A002100104B039800E000BF0490049BC8
:1035E0000133D3D1BB890D985B0600D42DE70120B0
:1035F00040422AE707AB00933A002100064B0398AC
:1036000000F07CF8EAE7C046D4410008DA4100083F
:10361000DE4100080000000059330008F7B515002E
:1036200001938A680B690C000090934200DA130042
:1036300022002B6043321278002A01D001332B6024
:1036400023689B0602D52B6802332B602268062371
:1036500017001F401A4227D0230043331B785A1EFD
:1036600093412268920630D4220001990098089E66
:103670004332B047431C25D0062320682A68E168FE
:1036800000250340042B03D18D1AEB43DB171D40AB
:10369000A3682269934201DD9B1AED180027BD4201
:1036A00020D1002010E00137E3682A689B1ABB4252
:1036B000D2DD2200012301990098089E1932B047FB
:1036C000431CF0D101204042FEBD3020E1184331BF
:1036D000087021005A1C45310978A2184332023380
:1036E0001170C1E72200012301990098089E1A3247
:1036F000B047431CE6D00137D1E70000F0B58BB0EE
:1037000006920A0043320793059004920A7E0C0049
:10371000109B782A06D8622A08D8002A00D1C0E077
:10372000582A52D026004236327022E01000633808
:103730001528F7D8FCF7F0FC16001F00F6FFF6FF7F
:10374000F6FFF6FF1F00F6FFF6FFF6FFF6FFA800F4
:1037500036009A00F6FFF6FFB900F6FF3600F6FFD6
:10376000F6FF9E0026001A684236111D1960136884
:1037700033700123A7E0086819680A1D05060BD5F8
:103780000D681A60002D03DA2D23049A6D42137020
:10379000614B0A27039332E00D681A604106F1D5A8
:1037A0002DB2EFE70D681968081D18602E0601D5C7
:1037B0000D6803E06D06FBD50D68ADB2564B0A27C8
:1037C00003936F2A17D1082715E045310A70524A32
:1037D00003921A68216820CA1A60080650D5CB07E0
:1037E00002D52023194321601027002D03D1202367
:1037F00022689A4322602300002243331A706368D0
:10380000A360002B03DB0422216891432160002D7B
:1038100002D1049E002B0CD0049E28003900FCF736
:103820000BFD039B013E5B5C33702B0005009F4248
:10383000F3D9082F09D12368DB0706D5636822690D
:10384000934202DC3023013E3370049B9B1B2361B7
:10385000079B210000930598069B09AAFFF7DEFE4F
:10386000431C35D1012040420BB0F0BD2022096835
:103870000A4322602200782145321170274AA7E7C7
:103880004806ACD5ADB2AAE71A680D68101D4969A3
:10389000186013682E0601D5196002E06D06FBD58D
:1038A00019800023049E2361D2E71A68111D196054
:1038B000166800213000626800F032F8002801D05C
:1038C000801B6060636823610023049A1370BFE764
:1038D0002369320006990598079DA847431CC1D06B
:1038E00023689B0715D4099BE0689842BCDA18004E
:1038F000BAE72200012306990598079E1932B047BE
:10390000431CAFD00135E368099A9B1AAB42F0DC47
:10391000E9E70025F7E7C046E5410008F641000861
:10392000C9B28218904201D10020704703788B42BF
:10393000FBD00130F6E710B5884202D98B189842C7
:1039400003D3002307E08B5C8354013AFBD210BD04
:10395000CC5CC45401339A42FAD1F8E770B5050043
:10396000002910D00C1F2368002B00DAE41828006F
:1039700000F0D4F81D4A1368002B05D16360146071
:10398000280000F0D3F870BDA34208D92168601860
:103990008342F3D118685B6841182160EEE71A0092
:1039A0005B68002B01D0A342F9D911685018A042DE
:1039B0000BD120680918501811608342E0D11868B3
:1039C0005B68411811605360DAE7A04202D90C230A
:1039D0002B60D5E721686018834203D118685B68C3
:1039E0004118216063605460CAE7C046F0000020BF
:1039F000F8B50323CD1C9D43083506000C2D1FD2BE
:103A00000C25A9421ED8300000F088F825490A6824
:103A10001400002C1AD1244F3B68002B04D1210044
:103A2000300000F069F838602900300000F064F8D8
:103A3000431C2BD10C233000336000F077F803E0F7
:103A4000002DDEDA0C2333600020F8BD23685B1BF9
:103A500019D40B2B03D92360E418256003E06368B5
:103A6000A2420ED10B60300000F060F82000072267
:103A70000B30231D9043C21A9842E6D01B1AA35064
:103A8000E3E75360EFE722006468C2E70323C41C46
:103A90009C43A042E1D0211A300000F02DF8431CD5
:103AA000DBD1C7E7F0000020F4000020F8B50700E4
:103AB0000D001600002905D11100FFF799FF040041
:103AC0002000F8BD002A03D1FFF748FF3400F7E7D4
:103AD00000F034F82C00B042F2D231003800FFF789
:103AE00087FF041EECD029003200FFF7EDFB290010
:103AF0003800FFF733FFE3E7002370B5064D0400FD
:103B000008002B60FDF7D8F9431C03D12B68002B6C
:103B100000D0236070BDC0469405002010B5024857
:103B200000F014F810BDC0469C05002010B50248F6
:103B300000F00DF810BDC0469C0500200B1F1B684F
:103B4000181F002B01DA0B58C018704770477047D8
:103B5000F8B5C046F8BC08BC9E467047F8B5C046EC
:083B6000F8BC08BC9E4670474A
:103B68000A0D55494420253032582D222573222D1F
:103B7800222573222D2530386C7800000A0D0A0D95
:103B880025732025730000000A0D534E2025303977
:103B98006C7500000A0D0000000000000000000025
:103BA80001020304060708090000000001020304DB
:103BB800030406080C10182030000000436F6E66DE
:103BC8006967207772697465000000000A0D466114
:103BD80063746F727920636F6E66696720777269A4
:103BE800746500000A0D4E6F2044617461204661BF
:103BF80063746F72790000000A0D4C6F616420468F
:103C08006163746F727900000A0D25536574446509
:103C1800660000000A0D436F6E66696742616E6B4D
:103C28002D25642C20434E542D2564004144432007
:103C38002D202530356420566F6C74202D202530BA
:103C480035642054656D703A256400000A0D43619F
:103C58006C6962205A65726F000000000A0D4361AA
:103C68006C696220436F6E63000000000A0D253006
:103C7800327820434D44204D6F646275732036209E
:103C88003A20777269746520616472202530337830
:103C9800203A206461746120000000002025303241
:103CA80078253032780000000A0D2530327820431C
:103CB8004D44204D6F6462757320313620282530BD
:103CC800326429203A207772697465206164722011
:103CD80025303378203A20646174612000000000A8
:103CE8000A0D0A0D204552524F525F496C6C6567A8
:103CF800616C5F46756E6374696F6E00A429000875
:103D0800C8290008FA290008D2290008FA29000859
:103D1800DC290008FA290008FA290008FA2900080D
:103D2800E6290008FA290008FA290008FA290008F3
:103D3800F02900088A050020000000008E050020F8
:103D48000000000044040020010000004604002098
:103D58000100000048040020010000004A0400207F
:103D6800010000004C040020010000004E04002067
:103D7800010000005004002001000000520400204F
:103D88000100000054040020010000005604002037
:103D98000100000058040020010000005A0400201F
:103DA800010000005C040020010000005E04002007
:103DB80001000000600400200100000062040020EF
:103DC80001000000640400200100000066040020D7
:103DD8000100000068040020010000006A040020BF
:103DE800010000006C040020010000006E040020A7
:103DF800010000007004002001000000720400208F
:103E08000100000074040020010000007604002076
:103E1800010000007A040020010000007C0400205A
:103E2800010000007E040020010000008004002042
:103E3800010000008E050020000000009005002011
:103E480000000000260500200100000024050020D5
:103E5800010000008204002001000000840400200A
:103E68000100000078040020010000001A0500206D
:103E7800010000001C050020010000001E050020B4
:103E88000100000020050020010000008C05002032
:103E9800000000008C050020000000008C050020B8
:103EA800000000008C050020000000008C050020A8
:103EB80000000000860400200100000088040020A3
:103EC800010000008A040020010000008C0400208A
:103ED800010000008E040020010000009004002072
:103EE800010000009204002001000000940400205A
:103EF8000100000096040020010000009804002042
:103F0800010000009A040020010000009C04002029
:103F1800010000009E04002001000000A004002011
:103F280001000000A204002001000000A4040020F9
:103F380001000000A604002001000000A8040020E1
:103F480001000000AA04002001000000AC040020C9
:103F580001000000AE04002001000000B0040020B1
:103F680001000000B204002001000000B404002099
:103F780001000000B604002001000000B804002081
:103F880001000000BA04002001000000BC04002069
:103F980001000000BE04002001000000C004002051
:103FA80001000000C204002001000000C404002039
:103FB80001000000C604002001000000C804002021
:103FC80001000000CA04002001000000CC04002009
:103FD80001000000CE04002001000000D0040020F1
:103FE80001000000D204002001000000D4040020D9
:103FF80001000000D604002001000000D8040020C1
:1040080001000000DA04002001000000DC040020A8
:1040180001000000DE04002001000000E004002090
:1040280001000000E204002001000000E404002078
:1040380001000000E604002001000000E804002060
:1040480001000000EA04002001000000EC04002048
:1040580001000000EE04002001000000F004002030
:1040680001000000F204002001000000F404002018
:1040780001000000F604002001000000F804002000
:1040880001000000FA04002001000000FC040020E8
:1040980001000000FE0400200100000000050020CF
:1040A80001000000020500200100000004050020B6
:1040B800010000000605002001000000080500209E
:1040C800010000000A050020010000000C05002086
:1040D800010000000E05002001000000100500206E
:1040E8000100000012050020010000001405002056
:1040F800010000001605002001000000180500203E
:10410800010000002C0500202E05002030050020AD
:104118002605002024050020360500206C05002017
:10412800380500203A0500203C0500203E05002007
:1041380040050020420500204405002046050020D7
:10414800480500204E0500204C050020520500209F
:104158005005002054050020560500205805002071
:104168005A0500205C0500205E0500203605002069
:104178008C050020600500204E040020500400201B
:1041880062050020640500208C0500208C050020B5
:104198008C0500208C0500208C0500208C05002053
:1041A8008C0500208C0500208C0500208C05002043
:1041B8008C0500208C0500208C0500208C05002033
:1041C8008C0500208C0500208C050020232D302B29
:1041D8002000686C4C006566674546470030313200
:1041E8003334353637383941424344454600303157
:1041F80032333435363738396162636465660000B6
:0842080050C2FF7F010000001D
:04421000E9000008B9
:04421400C1000008DD
:10421800417072203132203230323200000000000A
:1042280031363A30383A31330000000000002000BF
:10423800E40C0000010000002C0000200000000039
:104248000000000000000000000000000000000066
:104258000000000000000000000000000000000056
:104268000000000000000000000000000000000046
:104278000000000000000000000000000000000036
:104288000000000000000000000000000000000026
:0C4298000000000000000000000000001A
:0400000508002ABD08
:00000001FF
