:020000040800F2
:1000000000200020FD2C0008C50D0008C70D0008C9
:1000100000000000000000000000000000000000E0
:10002000000000000000000000000000C90D0008F2
:100030000000000000000000CB0D0008CD0D0008FE
:100040004D2D00084D2D00084D2D00084D2D0008A8
:100050004D2D00084D2D00084D2D0008D10D000834
:10006000000000004D2D00084D2D00084D2D00080A
:10007000E50D0008310E0008000000004D2D0008BD
:100080000000000000000000000000000000000070
:10009000510E000800000000590E00084D2D000808
:1000A000000000004D2D00080000000000000000CE
:1000B000810E00088D0E0008000000000000000006
:1000C00010B5064C2378002B07D1054B002B02D02E
:1000D000044800E000BF0123237010BD9000002001
:1000E00000000000CC3D0008044B10B5002B03D0ED
:1000F0000349044800E000BF10BDC04600000000F6
:1001000094000020CC3D00080023C25C0133002A8B
:10011000FBD1581E7047000003B4714649084000E7
:100120004900095E49008E4403BC70470022430821
:100130008B4274D303098B425FD3030A8B4244D3AF
:10014000030B8B4228D3030C8B420DD3FF220902F1
:1001500012BA030C8B4202D31212090265D0030BB0
:100160008B4219D300E0090AC30B8B4201D3CB03A6
:10017000C01A5241830B8B4201D38B03C01A5241E8
:10018000430B8B4201D34B03C01A5241030B8B42EA
:1001900001D30B03C01A5241C30A8B4201D3CB02D5
:1001A000C01A5241830A8B4201D38B02C01A5241BA
:1001B000430A8B4201D34B02C01A5241030A8B42BD
:1001C00001D30B02C01A5241CDD2C3098B4201D3D5
:1001D000CB01C01A524183098B4201D38B01C01A53
:1001E000524143098B4201D34B01C01A52410309CA
:1001F0008B4201D30B01C01A5241C3088B4201D379
:10020000CB00C01A524183088B4201D38B00C01A25
:10021000524143088B4201D34B00C01A5241411A4C
:1002200000D20146524110467047FFE701B5002059
:1002300000F0F0F802BDC0460029F7D076E770471D
:1002400003460B437FD4002243088B4274D3030937
:100250008B425FD3030A8B4244D3030B8B4228D3D8
:10026000030C8B420DD3FF22090212BA030C8B42FE
:1002700002D31212090265D0030B8B4219D300E09E
:10028000090AC30B8B4201D3CB03C01A5241830B23
:100290008B4201D38B03C01A5241430B8B4201D3D3
:1002A0004B03C01A5241030B8B4201D30B03C01AFC
:1002B0005241C30A8B4201D3CB02C01A5241830A76
:1002C0008B4201D38B02C01A5241430A8B4201D3A5
:1002D0004B02C01A5241030A8B4201D30B02C01ACF
:1002E0005241CDD2C3098B4201D3CB01C01A524136
:1002F00083098B4201D38B01C01A524143098B42BF
:1003000001D34B01C01A524103098B4201D30B01A7
:10031000C01A5241C3088B4201D3CB00C01A5241CC
:1003200083088B4201D38B00C01A524143088B4291
:1003300001D34B00C01A5241411A00D2014652412A
:10034000104670475DE0CA0F00D04942031000D349
:100350004042534000229C4603098B422DD3030A9E
:100360008B4212D3FC22890112BA030A8B420CD3AE
:10037000890192118B4208D3890192118B4204D3D7
:1003800089013AD0921100E08909C3098B4201D357
:10039000CB01C01A524183098B4201D38B01C01A91
:1003A000524143098B4201D34B01C01A5241030908
:1003B0008B4201D30B01C01A5241C3088B4201D3B7
:1003C000CB00C01A524183088B4201D38B00C01A64
:1003D0005241D9D243088B4201D34B00C01A52413B
:1003E000411A00D20146634652415B10104601D3C8
:1003F0004042002B00D54942704763465B1000D352
:10040000404201B5002000F005F802BD0029F8D0F7
:1004100016E770477047C046002B11D1002A0FD154
:10042000002900D1002802D00021C943081C07B4CC
:10043000024802A14018029003BDC046D9FFFFFF49
:1004400003B4684601B5029800F006F8019B9E4689
:1004500002B00CBC7047C046F0B557464E46454604
:10046000DE46E0B504000D009246994683B08B420B
:1004700030D82DD04946504600F0BAF82900060081
:10048000200000F0B5F8331A9846203B9B4633D441
:100490005A465346934042461F00534693401E001F
:1004A000AF423AD8AF4200D178E05B46A41BBD41D1
:1004B000002B00DA75E00022002300920193012353
:1004C0005A4693400193012342469340009328E00B
:1004D0008242CFD900220023009201930C9B002B73
:1004E00001D01C605D600098019903B0F0BCBB4670
:1004F000B246A946A046F0BD424620239B1A52466A
:10050000DA40414613004A468A40170042461F43DC
:10051000534693401E00AF42C4D9002200230092EC
:1005200001934346002BD9D0FB0772081A43464675
:100530007B080EE0AB4201D1A2420CD8A41A9D4127
:10054000012024196D410021013E24184D41002E47
:1005500006D0AB42EED9013E24196D41002EF8D1F0
:10056000009801995B4600196941002B24DB2B00A0
:100570005A464446D3402A00E2401C005B46150020
:10058000002B2ADB26009E40330026004746BE4053
:100590003200801A9941009001919FE7A342BCD894
:1005A00083E74246202300219B1A002200910192FA
:1005B0000122DA40019286E7424620239B1A2A0054
:1005C00046469A402300F340444613432A00E24043
:1005D0001C005B461500002BD4DA42462F00202376
:1005E000260097409B1ADE403B003343CDE7C046D0
:1005F00010B5002903D100F007F8203002E0081CF4
:1006000000F002F810BDC0461C2101231B049842D3
:1006100001D3000C10391B0A984201D3000A083993
:100620001B09984201D30009043902A2105C40184A
:100630007047C046040302020101010100000000EE
:1006400000000000F0B593B0142200210DA802F0C4
:1006500082FF1022002109A802F07DFF1022002154
:1006600005A802F078FF4C4B596B802080000143B5
:1006700059635A6B02400292029ADA6A01273A439E
:10068000DA62DB6A3B400193019B039703230493E7
:10069000002507956138FF3803A9C00502F0EEFB7D
:1006A0003E4BC32189005A58FF2082435A50802272
:1006B00052011A603A4CA36A3B43A362A26A8023A8
:1006C000DB021343A362374E3068374A1040802163
:1006D000090401433160A36A802189021943A162A0
:1006E00033681A408023DB03134333600D95802366
:1006F0005B020E930F95109511950DA9200002F045
:1007000041FB636907229343023A13436361236900
:10071000BB431F4327612369244A1A408E235B0091
:10072000134323612369224A13402361E3680421B0
:100730008B43E36033681F4A1A4080239B041343B2
:10074000336063688B43636063680822934363602C
:100750008023DB0509930A950B950C9509A92000C8
:1007600002F0F6FAA368144A1A4080235B0513438B
:10077000A360124B18681249FFF7D8FC03008000F1
:10078000C01840000A21FFF7D1FC002801D0013831
:10079000FBE713B0F0BDC0460010024000E100E0EE
:1007A0000024014008270140FFFF3FFF03FEFFFF39
:1007B000FFFDFFFFFFFFFFFDE8FFFF6F1C000020B4
:1007C000400D030082B00F4A116B802040010143AD
:1007D0001163136B03400193019B0B4B9A686021DB
:1007E0008A439A609A6820318A439A60074A5A611C
:1007F0009A6868398A439A60012252421A6102B0AB
:100800007047C0460010024000300240B71DC104CE
:1008100010B5094A936801242343936000238B4257
:1008200006D29A008458044A14600133DBB2F6E71A
:10083000014B186810BDC04600300240F0B5D646E6
:100840004F464646C0B58CB00AAE082399460822EA
:100850000021300002F07FFE002409942B4BD96A5E
:1008600004221143D962D96A0A400392039ADA6AD0
:1008700001252A43DA62DA6A2A400292029ADA6A87
:10088000022188460A43DA62DB6A0B400193019B2E
:10089000A027FF054B46BB621D4B9A4699624B460B
:1008A0000493059506940794089404A9380002F06F
:1008B000E5FA43460493059506940794089404A921
:1008C000504602F0DBFA134AD3680F218B43D36002
:1008D000FA6811490A40FA603B680B403B601023FC
:1008E0000A9335717471B571300002F063FA0B4AE6
:1008F000C121890053581B021B0A535080231360E7
:100900000CB0E0BCBA46B146A846F0BD00100240AB
:100910000004005000000140FFFCFFFF00E100E088
:10092000F0B5C64600B590B01C22002109A802F01F
:1009300012FE2A4CE36A02263343E362E36A334041
:100940000293029B4023039304963D3B98460593F4
:100950000125069507950895214F03A9380002F057
:100960008DFA8023039304964346059306950795D5
:10097000089503A9380002F081FAA26B802189034F
:100980000A43A263A36B0B400193019B154C626861
:1009900080239B0413436360E368134A1340E360BE
:1009A0002368124A134023602368114A13402360CE
:1009B000002309930F4A0A920B930C930D930E9305
:1009C0000F9309A9200002F0B1FAE3680A4A134024
:1009D000E36010B080BCB846F0BDC04600100240D5
:1009E0000004005000540040FF7FFFFFFFFFF7FFAF
:1009F000FFFFFDFF1E06000001F8FFFF82B01B4B4A
:100A0000996B802212060A439A639B6BDB0FDB070C
:100A10000193019B164BC32189005A581548024087
:100A20005A50802292011A60134BDA6801218A43DE
:100A3000DA60DA6811491140E02212010A43DA60F3
:100A4000DA680F490A40DA60DA680E4911408022FC
:100A5000D2030A43DA60DA680B490A40DA60DA68DE
:100A60000A490A40DA6002B07047C04600100240EE
:100A700000E100E0FF00FFFF007C0040FFF1FFFF0E
:100A8000FFFFDFFFFFFFBFFFFFFF7FFFFFFFF9FF5C
:100A900000B587B0002308E0144A1168DA00D1409D
:100AA0000222D21A05A881540133022BF4DD05ABD2
:100AB0000022DA70002308E00D4A1168DA00D14004
:100AC0000322D21A03A881540133032BF4DD03ABB4
:100AD00000221A71074AD178054A1268009205AAC5
:100AE000054800F0D7FB07B000BDC0465000F81F16
:100AF0005400F81F6400F81FE43D000810B5364AA2
:100B0000136801218B431360334B1B68DB07FBD455
:100B100032490B68324A1A4080231B0113430B6091
:100B2000304A116880235B000B4313602D4B1B6818
:100B30009B05FBD52B4B5A682B491140A022120272
:100B40000A435A605A681202120A5A60234801681E
:100B50008022520011430160196D2148014019653E
:100B6000196D0A431A651F4B1B6D9B05FBD51D4B69
:100B7000DA68F0218A43DA60DA681C490A40DA60F0
:100B8000DA681B490A40DA60DA6803218A43DA60CE
:100B9000144BDB680C221A42FAD1164C200002F0EA
:100BA0007DFC200002F09EFC0E4BDA6C0C218A4387
:100BB000DA64DA6C10491140C02212010A43DA6487
:100BC000DA6C0E490A40DA64DA6C0D491140C02231
:100BD00012030A43DA6410BD002002400070004096
:100BE000FFE7FFFF00100240FF1FFFFFFFF8FFFFBE
:100BF000FFC7FFFF68FF1F00FFF3FFFFFFCFFFFFEF
:100C0000FFFFF3FF70B582B05B4B596B01221143BC
:100C10005963596B0A400192019A9A6B80214905E8
:100C20000A439A639B6B0B400093009BFFF766FFA0
:100C3000FFF704FEFFF706FDFFF772FE00F004FA6F
:100C400000F06CFA00F0A2F9FFF7BCFD00F048F9E3
:100C5000FFF7D4FE00F0F0FA484A4949494800F04D
:100C600019FBFFF715FF484A116880231B040B434B
:100C7000136046498B68464A1A4080231B0613437B
:100C80008B60424B9B68002BFBDB022002F016FCC2
:100C900000F048FC01F010FA3E4AD023D1583E48FB
:100CA00000F0F8FA3D4800F0F5FA00F0C1FD3749D0
:100CB0008B68374A1340012003438B604B6804253F
:100CC0002B434B60364AD36802263343D360354BFF
:100CD0001C6904431C619A69120C120402439A6154
:100CE0009968314399601A6906218A432A431A6137
:100CF0002D4B1A682D4B1A6001F016F91CE02C4B95
:100D000000221A7001F0EEF91CE02A4B00221A7042
:100D10001E4A93681E490B4004210B439360264BE7
:100D20001B78002B13D1204B1A68204B1B68D31A59
:100D3000E12109018B4210D201F044FE1C4B1B78CB
:100D4000002BDCD11B4B1B78002BE8D0DDE71A4BC6
:100D500000221A7001F01EFAE5E7144B1A60174BD7
:100D60001A68501C18601821FFF766FA0029E3D1B1
:100D700000F046FAE0E7C0460010024010000020F4
:100D800000000020003E0008082701400024014028
:100D9000E8FFFF7F0C0500200C3E0008183E00080D
:100DA00000140140007C0040800100208C010020E4
:100DB00092010020910100202B060020C401002098
:100DC00072B6FEE7FEE7FEE7704770477047000027
:100DD000034B5B69DB0602D5014B10225A61704759
:100DE0000004014010B5C04601F0B0F90D4B1A687F
:100DF0001A681B685B0702D50A4B04221A60094B6C
:100E00001B681B0706D5074B08221A60064B0022F9
:100E10001A7010BD034A936804490B4004210B4328
:100E20009360F6E70024014090010020E8FFFF7F77
:100E300010B5064B1B689B0704D5044A5368022172
:100E40000B43536001F08CF810BDC046007C00409D
:100E500010B501F011FF10BD10B5084B1B699B07C1
:100E600003D5064B032252421A6100F0F7FC034AF5
:100E7000136801218B43136010BDC046001401406C
:100E800010B500F06BFA00F06BFF10BD10B500F06C
:100E90003BFD10BD10B503000C4A0D49521A0D4917
:100EA0000968002907D00B490868C318934206D87F
:100EB000084A136010BD074907480860F3E702F0CD
:100EC00017FB0C23036001204042F3E700200020C1
:100ED00000040000AC00002058060020704700000D
:100EE00070B586B000236A4653812449486B0422BA
:100EF00010434863496B0A400192019A204DC52175
:100F000089006A58FF2082436A50802676032E604B
:100F10006A46138103931B4A049205931A4C02A953
:100F2000200002F015FA236880229343236063684F
:100F300070218B436360A3689343A360A3696D39F9
:100F40008B4302390B43A361A3690B318B430B43E2
:100F5000A361A369E4318B43A361236AE6398B4320
:100F60002362236D35318B432F390B432365AE50FC
:100F7000BFF34F8FBFF36F8F06B070BD00100240FC
:100F800000E100E0FFFF000000080140F0B5C646A8
:100F900000B58AB000256B465D831022002102A8AF
:100FA00002F0D9FA224A516B202319435163526B44
:100FB00013400193019B1F4BC52189005A581E48BD
:100FC00002405A508022D2031A6004276B461F83C6
:100FD00007951A4B984608930995194C06A92000C5
:100FE00002F0B6F923688026B3432360A368154A4C
:100FF0001340A3600295039543460493059502AA06
:101000000121200002F0D2F9A369BB43A361236848
:1010100008229343134323606368683293436360F9
:10102000A368B343A3600AB080BCB846F0BDC04615
:101030000010024000E100E0FFFF00FF7707000022
:1010400000140140F8BFFFFF30B58FB01822002117
:1010500008A802F080FA2A4B996B8020C002014355
:1010600099639A6B02400192019ADA6A01252A4338
:10107000DA62DB6A2B400093009B04230293023B5D
:101080000393013304930595069503330793A0203A
:1010900002A9C00501F0F2FE1A4BC72189005A5877
:1010A000194802405A50802292051A6096239B01EB
:1010B0000893002309930A930B930C330C93134C5E
:1010C00008A9200001F06EFFA36808221343A36063
:1010D000A3680F4A1340A360A3680E4A1340A3609D
:1010E000A26880239B001343A360A368AB43A36063
:1010F000A368094A1340A360E3690FB030BDC0463E
:101100000010024000E100E0FF00FFFF0048004047
:10111000FFFEFFFFFFFBFFFFFFFDFFFFF0B5CE4629
:10112000474680B591B01C22002109A802F013FAAD
:101130002F4B996B80208002014399639A6B024088
:101140000292029ADA6A01252A43DA62DB6A2B40AC
:101150000193019B80239B000393FF3BFF3B994638
:1011600004930133984605930024069407940427BA
:101170000897A026F60503A9300001F07FFE802322
:10118000DB0003934B460493434605930694079470
:10119000089703A9300001F071FE164AC7218900A3
:1011A0005358FF2083437F380343535080235B050C
:1011B000136096239B0109930A940B940C940C23BF
:1011C0000D930E940F940C4C09A9200002F00EF917
:1011D00063680A4A13406360A3682A229343A360AA
:1011E00023682B43236011B0C0BCB946B046F0BDA4
:1011F0000010024000E100E000440040FFB7FFFFA4
:1012000010B50B4CA3881B04E1881943032000F0A0
:10121000DBFA084BE2229A5AA280E280E822985E2A
:101220000A21FFF70DF840B2A072E07210BDC0466F
:10123000C40100200C05002030B587B0114B5A685E
:1012400001210A435A605A6801310A435A605A68B8
:1012500002310A435A606A460023138053800133E7
:10126000FF339380084B936003AB190031CA31C13F
:10127000064A13CB13C2064A136820210B4313609E
:1012800007B030BD00580140D0010020D40200203A
:10129000004400400FB430B5AFB032AB04CB009384
:1012A000B42101A802F08AF901A8FEF72DFFC0B20F
:1012B000002205E001339BB20F490B80013292B24C
:1012C00083B293420DD901AB9C5C0B490B888D68AE
:1012D000EC540B889BB2898801398B42EAD10023F8
:1012E000EAE7064A136880210B4313602FB030BC35
:1012F00008BC04B01847C046D40200200044004097
:101300000F4B5A8892B21B889BB29A4210D00C4A5B
:1013100053889168C95C53889BB29288013A934282
:101320000CD001339BB2064A5380064B996270473A
:10133000044A136880218B431360F8E70023F2E727
:10134000D402002000440040024B5A6A024B1A703B
:101350007047C04600440040D002002010B50E4B3C
:101360001B681B0605D50C4BDB691B0601D5FFF777
:10137000C7FF094B1B689B0605D5074BDB699B061E
:1013800001D5FFF7E1FF044BDB691B0702D5024BD8
:1013900008221A6210BDC046004400400A22084BD1
:1013A0009B699B0708D4074B1B68DB03F7D5531ECB
:1013B000002A04D01A00F2E7014B02229A6170471A
:1013C0000020024010E000E010B5054B9C46604450
:1013D00003688B4200D110BD0160FFF7DFFFFAE721
:1013E00000000808F8B507000E0015000024A5420B
:1013F00007DDA300F158F81880B2FFF7E5FF0134CC
:10140000F5E7F8BD70B504000E4E35213000FFF74A
:10141000FFF9D423F050EFF3108372B60A4D0B4A54
:10142000EA600B4AEA6083F31088D820604380B2F8
:1014300036223100FFF7D6FF6B68012213436B6041
:1014400070BDC0460C05002000200240EFCDAB89E6
:101450000504030210B50A4A1368013313600948F2
:10146000FFF718FF084C2078FFF7CCFF0748FFF77D
:1014700011FF074B01221A7023785340237010BDCF
:101480000C050020183E0008B0000020403E000877
:101490002A06002010B50220FFF7B4FF0148FFF72D
:1014A000F9FE10BD503E000810B5B6B0002307E0AD
:1014B0009B001849591809686846C150013253B257
:1014C000DAB2352AF4D935216846FFF7A1F9D423D9
:1014D0006A46D358834206D000210F48FFF7DAFE50
:1014E000002036B010BD0D48FFF7D4FE0C4B1C6831
:1014F000002306E09B006946C8580949C8500132DC
:1015000053B2DAB2352AF5D9054B1C60FFF7A2FFBA
:101510000120E6E7B0010808683E00087C3E0008AC
:101520000C05002030B5EFB00023DAB26B2A08D8E2
:101530009B0043495918086802A9C850013253B2A8
:10154000F3E7002404E001AB01221A55013464B230
:10155000012C12DCD825654302AB58193521FFF761
:1015600057F902AB9C4665442B00D4331B68834279
:10157000E9D001AB00221A55E8E701AB1B78012B3B
:1015800010D0002B03D101AA5278012A1ED02D4A77
:1015900000211170002B50D101AB5B78002B19D0CA
:1015A000002339E001AA5278012AEAD1D7326946EC
:1015B000082009188A580299914203D2214A012130
:1015C0001170E7E71F4A00211170E3E71D4A01216E
:1015D0001170DFE7FFF768FF002827D100F05CFDFE
:1015E00000211948FFF756FE164C00252570FFF71D
:1015F00031FF25700021092000F0E6F816E01149BE
:101600000878D821414302A8844661449B00C85809
:101610000E49C850013253B2DAB2352AEFD90B4B1A
:101620001A68084B19780A48FFF734FE054A137800
:1016300001214B4013706FB030BD0023ECE7C04672
:1016400000000808B00000208C3E00080C050020B7
:10165000983E0008104B114ADA60114ADA605B6864
:10166000DB0709D5EFF3108272B60B4B0B49D9603B
:101670000B49D96082F31088074B5B689B0709D53B
:10168000EFF3108272B6044B0649196106491961DD
:1016900082F310887047C04600200240EFCDAB892E
:1016A00005040302BFAE9D8C16151413044B5A6833
:1016B00001210A435A605A6801310A435A6070474F
:1016C000002002400A22074B9B69DB0708D5064B26
:1016D0001B68DB03F7D5531E002A01D01A00F2E77E
:1016E0007047C0460020024010E000E00A22084B8C
:1016F0009B699B0708D4074B1B68DB03F7D5531E78
:10170000002A04D01A00F2E7014B02229A617047C6
:101710000020024010E000E070B50D4C62688023AC
:101720009B0013436360636808252B4363607F233A
:10173000984300230360FFF7C5FFFFF7D7FF6368F7
:10174000AB4363606368034A1340636070BDC04687
:1017500000200240FFFDFFFF70B504001500184A8D
:1017600053680820034353602368002B19D10906EE
:10177000FE23DB051940134B1B681B021B0A194390
:1017800021600026FFF7B2FF6368002B10D165606F
:10179000FFF7ACFF0A4A536808218B4353603000BF
:1017A00070BD226880231B06134323600126E9E7EE
:1017B000226880231B06134323600126E8E7C04606
:1017C00000200240C4010020F8B507000E00FFF71A
:1017D00041FF00250DE02000FFF79EFF12E00133DE
:1017E0009BB2104A13810135ADB2012816D10F2DDD
:1017F00014D80C4B1C89E4000B4B9C4664447F239B
:101800001C42E8D0320039002000FFF7A5FF054B4D
:101810001B89064A9342E2D90023E2E7FFF746FF1D
:10182000F8BDC046C401002000600008FE030000AF
:10183000084B00221A80084B1A6804210A431A60D8
:101840001A681C310A431A601A681F390A431A6061
:101850007047C046E003002000480040044B198850
:10186000044A118000221A80034B01321A7070471B
:10187000E0030020E4030020B10000200C4B596A73
:101880000C4B1B880C4AD154FE2B02D80133094A59
:101890001380084B1B88012B03D0084B00225A628F
:1018A0007047064A136801210B431360F5E7C046F1
:1018B00000480040E0030020E00200200014014046
:1018C0000D4B1B880D4A1288934209D20C49C85C03
:1018D0000C49886201339BB207490B809A4200D0C1
:1018E0007047084B1A6880218A431A601A68403989
:1018F0000A431A60F4E7C046E2030020E603002032
:10190000E80300200048004010B5174B1B689B06F9
:1019100005D5154BDB699B0601D5FFF7AFFF124BD1
:101920001B681B0605D5104BDB691B0601D5FFF7AD
:10193000C7FF0D4B1B685B060DD50B4BDB695B06C8
:1019400009D5094B402119621A688A431A601A683E
:101950003C390A431A60044BDB691B0702D5024B72
:1019600008221A6210BDC046004800400F4B5A883A
:1019700092B21B889BB29A4210D00C4A538891684D
:10198000C95C53889BB29288013A93420CD00133D0
:101990009BB2064A5380064B99627047044A13680B
:1019A00080218B431360F8E70023F2E7F80400205E
:1019B0000044004010B50400007801238B4203DA94
:1019C000E25C50400133F9E710BD70B5002301E03F
:1019D00001339BB2C45C002C09D0CD5C002D06D035
:1019E00096B29E4203D9AC42F2D0002003E092B2FC
:1019F0009A4201D1180070BD0020FCE770B586B096
:101A00000400002307E0013292B270494A80704A14
:101A100015540133DBB26D4A518889B2128892B2F3
:101A2000914224D06B4A1278002A0CD018006749E2
:101A30004A888D68AD5C4A8892B2898801399142A2
:101A4000E1D10022E1E7180060494A888D68AD5C69
:101A50004A8892B2898801398A4206D0013292B20C
:101A60005A494A8001AA1554D3E70022F8E7594B96
:101A70001D78002D0CD0584B1A6804218A431A6037
:101A80001A687C310A431A600025280006B070BD30
:101A90000322524901A8FFF798FF0028F5D104223C
:101AA0004F4901A8FFF791FF002803D0002CECD18B
:101AB0000125EAE704224B4901A8FFF786FF002829
:101AC00009D00222484909206844FFF77EFF002818
:101AD000DBD10125D9E70522444901A8FFF775FFAD
:101AE000002809D0022240490A206844FFF76DFF10
:101AF0000028CAD10125C8E704223D4901A8FFF703
:101B000064FF002809D0022237490D206844FFF7FE
:101B10005CFF0028B9D10125B7E70522354901A8A6
:101B2000FFF753FF0028B0D101AE04213000FFF7CA
:101B300041FF3379984207D0012C2AD0022C2FD0B4
:101B4000032C41D00125A0E701AA13781B0251788C
:101B50005B182948E221435293781B02D2789B18E4
:101B6000264A134208D001008C225200805A80235A
:101B7000DB0103438B5288E71F498C2252008B5AAA
:101B80001F4803408B5280E70133DBB2042BFBD9A3
:101B90007BE72B00FAE70133DBB2042BFBD974E7B8
:101BA0002B00FAE7590001A8425C12020131415CA6
:101BB00052181800103040000F4909184A800133AC
:101BC000DBB2032BEED960E72B00FAE7E804002034
:101BD000E8030020B200002000480040B03E0008AA
:101BE000B43E0008BC3E0008C43E0008C83E0008E1
:101BF000D03E0008D83E00080C050020860A0000F0
:101C0000FFBFFFFF10B50E4B5A6AD2B20D490B88C9
:101C10008868C2540B889BB2898801398B4206D0F0
:101C200001339BB207490B800D2A02D010BD00235F
:101C3000F8E7054B1878FFF7E1FE044B1870F5E75D
:101C400000440040E8040020B600002020000020EE
:101C500010B5124A1368202423431360104A8023CE
:101C600080246405D450BFF34F8FBFF36F8F0023E0
:101C700004E0C45C094A946201339BB28AB29A427E
:101C800004D9064AD2691206FBD5F2E7034BDB6999
:101C90001B06FBD5014B0D229A6210BD004400408B
:101CA00000E100E0174B05221A8000220AE0013310
:101CB0009BB215490B80154BDB691B0702D5134BF3
:101CC000082119620F4B1B88002B14D00D2A12D04B
:101CD0000E4BDB699B06EED50C4B5A6AD2B20A4911
:101CE0000B888868C2540B889BB2898801398B4263
:101CF000DDD10023DDE70D2A01D00020704701204F
:101D0000FCE7C046F4040020E80400200044004042
:101D1000F0B58BB001AB00211980598064229A8004
:101D20000B4A039207AA10001C00E0CCE0C009484F
:101D300070CA70C019805980074A039204AA110022
:101D400031CB31C1054B13CA13C30BB0F0BDC04634
:101D50001C010020F8040020B8000020E804002046
:101D600010B50E4B1B681B0605D50C4BDB691B061B
:101D700001D5FFF7FBFD094B1B689B0605D5074BFB
:101D8000DB699B0601D5FFF73DFF044BDB691B07B1
:101D900002D5024B08221A6210BDC0460044004022
:101DA000F0B585B00400524B01221A70514B1D78DA
:101DB000002D2DD10A2826D883004F4AD3589F469C
:101DC0004E4B1E884F236A4613700A3B53700833EC
:101DD00093702D3BD37005000FE006277F1B0A216F
:101DE0003000FEF729FA30316B46D9550A21300010
:101DF000FEF79CF986B20135EDB2032DEDD908212D
:101E00006846FFF725FFFFF74DFF002800D068E088
:101E100005B0F0BD03213A48FFF71AFFF3E70321AD
:101E20003848FFF715FFEEE705213748FFF710FFA9
:101E3000E9E706213548FFF70BFFE4E709213448BD
:101E4000FFF706FFDFE708213248FFF701FFDAE777
:101E500004213148FFF7FCFED5E705212F48FFF7A5
:101E6000F7FED0E72E4B9E89DB881B0707D5B00015
:101E7000801940002A4B598EFEF7E2F986B22B00FA
:101E800005E0B00036187600B6B20133DBB2012BA4
:101E9000F7D943236A461370023B53700B33937098
:101EA0000A3BD370223B13710FE008277F1B0A21E6
:101EB0003000FEF7C1F930316B46D9550A213000A8
:101EC000FEF734F986B20135EDB2032DEDD90921C3
:101ED0006846FFF7BDFE96E706211248FFF7B8FEF9
:101EE00091E72000FFF78AFD014B187090E7C0468C
:101EF00020000020B2000020183F0008B40000209D
:101F0000E03E0008E43E0008E83E0008F03E00081D
:101F1000F83E0008043F0008BC3E0008C83E000828
:101F20000C050020103F000810B5FFF7F1FE00245B
:101F3000042C09D8064B1B78012B05D10020FFF794
:101F40002FFF0134E4B2F3E70320FFF729FF10BDB0
:101F50002000002010B50720FFF722FF10BD000071
:101F6000264A136801331360254B1B88002B02D0CF
:101F7000013B234A1380234B1B781E2B03D80133CC
:101F8000204A13707047204B01221A701D4B00220B
:101F90001A701E4B1B78002B1CD11D4A0121117099
:101FA0001C490A7801204240D2B20A70002A11D19D
:101FB00019490A6801320A6018490A780132D2B216
:101FC0000A70032A0BD016490A780132D2B20A707D
:101FD000782A0BD0012253400C4A1370D2E70A0032
:101FE000002111700F4A01311170ECE70A00002145
:101FF00011700D4A01311170ECE7C04688010020D4
:10200000F404002028060020910100202906002069
:10201000920100208601002080010020850100201F
:10202000840100202900002028000020014B188096
:102030007047C0463806002010B50023084A1370C8
:1020400008488C214900425A0424A24342520649BE
:102050000A80064A1370064A1380064A138010BD90
:102060003A0600200C0500203C0600204406002013
:10207000400600203806002010B5064B1B88012BB7
:1020800003D9013B034A138010BD012BFCD1FFF79C
:10209000D3FFF9E738060020054B822292001A810F
:1020A000044A5A810A225A86C022D200DA86704730
:1020B0000C05002010270000084BD822084999522F
:1020C00002320221FF319952D93A25395A523C3114
:1020D0005A520432FF32DC39995270470C05002005
:1020E0001820000010B5164A82235B00D35A002B3B
:1020F00007D0144B1A683C239B1A114982225200C4
:102100008B520F4A8C235B00D35ADA070FD50D4A46
:1021100012683B2A0BDD01229343094A02210B433B
:102120008C214900535282235B000021D152FFF7DA
:10213000A3FF034A8C235B00D25A034B1A8010BDC5
:102140000C050020800100203C0600200D4B1B6880
:102150001B0702D50C4B02221A700B4B1B78094A45
:10216000106C5A0009498852012B06D9084B0122EC
:102170001A70054B00221A7070470133024A13701F
:10218000FAE7C04600240140900100200405002029
:102190002B06002070B582B02B4B18882B4C604367
:1021A0002B4D6988FDF7C2FF2A4B1860AB88584356
:1021B0002100FDF7BBFF284B1A88831A642058437F
:1021C000264B1988891AFEF73BF88300C018400097
:1021D0002D30FF30224B1880224B1B78002B05D16D
:1021E000214B1B78002B09D102B070BD1D4B002282
:1021F0001A7001A91D4800F0F5FCF1E71A4B002206
:102200001A700A20FFF7CCFD194BDB881B0708D595
:10221000174CE225635B608E58430A21FEF710F8E5
:102220006053002408E0124EE225705B0A21FDF79E
:102230007DFF70530134E4B2012CF4D9084B1988A6
:102240000B4AE823D152CFE77800F81FB80B000003
:1022500004050020240000207A00F81F7E00F81FEB
:102260002C0600202800002029000020204E00001D
:102270000C05002030B5050000240A480BE040089A
:10228000013B002B06D0C207F9D54008064A504052
:1022900080B2F5E701348C4203DA2B5D5840082305
:1022A000EFE730BDFFFF000001A0FFFF124B1B78DE
:1022B000002B14D0114B01221A80114B1B78002BDC
:1022C00011D010498C2252008B5A042003438B52A8
:1022D0000C4A8C235B00D25A0B4B1A807047074B79
:1022E00000221A80E9E707498C2252008B5A042009
:1022F00083438B52ECE7C046440600204006002092
:102300003A0600200C0500203C0600200C490B6812
:10231000020A1A7058700B4A106802780232027072
:1023200009480288013A028002330B60074A137899
:1023300002331370064A1388013313807047C04676
:10234000A40100209C01002098010020960100209B
:102350009401002010B51400037813704378537073
:10236000294B82785A70C2781A70284B02795A70B9
:1023700042791A70E11C264A1160A11C254A11609D
:10238000254A032111700022A2701A88531E9BB2A5
:102390007C2B14D81C4B1B88802149018B4223D3F2
:1023A0001E498B4220D8702A1ED89A181C498A428E
:1023B0001ADC1C4A94466344134A138010E0627886
:1023C00080235B42134363700223A370032011E058
:1023D0000D4B1B88DB00144A9B581888FFF796FFAB
:1023E0000A4B1B88002BF3D1084B1B88002B02D112
:1023F000094B187810BD627880235B4213436370E9
:102400000223A3700320F5E7940100209801002027
:10241000A40100209C010020960100206F10000004
:102420007010000000F0FFFF2C40000810B51400F1
:102430000378137043785370244B82785A70C278B3
:102440001A70234B02795A7042791A70E11C214AA2
:102450001160A11C204A1160204A03211170002242
:10246000A2701A88531E9BB27C2B15D8174B1B8861
:10247000312B1AD8322A18D89A18322A15DC144B64
:102480001B88002B11D0114B1B889B00144A9B58B2
:102490001888FFF73BFFF2E7627880235B42134323
:1024A00063700223A370032005E0094B1B88002BF7
:1024B00002D10A4B187810BD627880235B42134327
:1024C00063700223A3700320F5E7C0469401002047
:1024D00098010020A40100209C010020960100200A
:1024E000AC4300080C4B1B681A7801684A705A7894
:1024F00001680A700279002A01D008490A70084967
:102500000A8801320A8007490A88013A0A800233A0
:10251000014A13607047C046A4010020A0010020BA
:10252000940100209801002000B583B02A4B1B784D
:10253000002B08D0294B1B78002B0AD1284B1A8876
:10254000284B9A4205D0264B1A8880235B019A4279
:102550003ED1254B1A6811786B46D97152789A7121
:102560001F4B1B881F4A934211D080225201934275
:1025700022D0194B1B78002B03D1184B1B78002B52
:1025800028D0F120FFF752FD012003B000BD6A46BC
:102590000632128815498A4205D0002A07D10F4A0F
:1025A00000211170E1E70D4A01211170DDE70B4AAE
:1025B00010780028D9D1E8E76B4606331B885B0703
:1025C00003D5054B01221A70D3E7FFF735FDD0E79D
:1025D0000020DAE70120D8E73A0600204406002070
:1025E0009401002001100000A4010020CDFA000099
:1025F00000B583B01F4B1A881F4B9A4221D11F4B45
:102600001A6811786B46D97152789A7106331B8813
:102610001B4A934227D016D81A4A93421CD01A4A12
:10262000934202D1FFF796FC0BE0184A934208D17F
:102630001748FEF72FFE0720FFF7B2FB0820FFF731
:10264000AFFB03B000BD134A93420FD0124A93422E
:10265000F7D1FEF729FFF4E71048FEF71BFE09202B
:10266000FFF79EFBEDE7FEF715FFEAE70C4B0122B3
:102670001A70E6E79401002001100000A401002078
:10268000CEAB0000C4640000BE9300005D180000E3
:10269000443F000853BC00004BCE0000543F0008EC
:1026A000B200002070B50400150083781B02C278C8
:1026B0009B18304A1380021D2F4B1A602F4B0122AA
:1026C0001A8005320100280000F03CFF2C4B00224C
:1026D0001A70FFF729FF002808D16A7880235B422F
:1026E00013436B700423AB70033070BDFFF780FFA2
:1026F000204B1A8880235B019A420AD3214B9A42CD
:1027000007D81E4B1B88702B03D8D3181E498B4249
:102710000CDD1A4B1B88002B20D06A7880235B428B
:1027200013436B700223AB700320DEE7174B9C460C
:10273000624492B20F4E328021781548FEF7AAFD0E
:102740000D4B1B6819785A781248FEF7A3FD3088A4
:10275000C000114BC018FFF7C5FEDAE7FFF7A6FD72
:10276000074B1B78002B01D10620BEE7FEF772FE57
:102770000620BAE794010020A4010020980100205F
:10278000A00100206F1000007010000000F0FFFF9B
:10279000643F0008943F00082C40000810B5010079
:1027A0001000062200F0CEFE062010BD10B582B04B
:1027B0006B468178D971C178997106331B883F2B9C
:1027C0000FD800211F2915DC6B4606331B88DB015F
:1027D00088001B18094CA44663441B681350013140
:1027E000F0E7517880235B420B43537003239370CF
:1027F000032000E0832002B010BDC0460060000846
:1028000030B583B00400150083781B02C2789B1892
:102810003D4A138003791B0242799B183B4A13807F
:10282000C21D3B4B1A6006220100280000F08AFE00
:10283000384B00221A70FFF777FE002809D16A781A
:1028400080235B4213436B700423AB70033003B0EF
:1028500030BDFFF7CDFE2D4B1A88531E9BB27C2B4B
:102860001BD8294B1B88802149018B4208D32A4958
:102870008B4205D8702A03D899182848814215DD63
:10288000224B1B88002B33D06A7880235B42134392
:102890006B700223AB700320D9E76A7880235B4218
:1028A00013436B700223AB700320D0E71C498C46A6
:1028B00063449BB214490B80217815480068007866
:1028C00000901848FEF7E6FC0DE0114B1B681978E4
:1028D0005A781548FEF7DEFC0B4B1888C000134BE6
:1028E000C018FFF7FFFD094B1B88002BEDD1C7E790
:1028F000FFF7DCFC074B1B78002B01D10620A6E775
:10290000FEF7A8FD0620A2E7940100209801002010
:10291000A4010020A00100206F1000007010000032
:1029200000F0FFFFA03F0008943F00082C40000883
:1029300070B514000378137043785370033BDAB218
:102940000D2A2ED893001D4AD3589F462200FFF728
:1029500001FD0500002D09D029002000FFF78AFCA9
:1029600060556B1C0004000EE0540235280070BD59
:102970002200FFF75BFD0500ECE72200FFF792FE67
:102980000500E7E72200FFF709FF0500E2E7220064
:10299000FFF70CFF0500DDE72200FFF731FF050020
:1029A000D8E70748FEF776FC627880235B42134342
:1029B00063700123A3700325CEE7C046F43F0008EF
:1029C000D83F000870B5184B1B78002B0DD0164B64
:1029D00000221A70154B1E88B51E154C29002000C8
:1029E000FFF748FC2378552B00D070BD625DC3B261
:1029F0009A42FAD1731EE35C0004000E8342F4D1C4
:102A00000C4A31002000FFF793FF0B4B18800B4B53
:102A100000221A800A4B1A6804218A431A601A6835
:102A20007C310A431A60E0E7B1000020E403002093
:102A3000E0020020E8030020E6030020E20300207B
:102A40000048004088B000283ED12F4BD96A0122AF
:102A50001143D962D96A0A400792079AD96A0222B9
:102A60001143D962D96A0A400692069AD96A0422A9
:102A70001143D962D96A0A400592059A996B802060
:102A80008003014399639A6B02400492049A996B04
:102A900080208002014399639A6B02400392039A5B
:102AA000596B80208000014359635A6B02400292A7
:102AB000029A1A6B802149010A431A631B6B0B406F
:102AC0000193019B08B070470128FBD10E4BDA6AD5
:102AD00001218A43DA62DA6A01318A43DA62DA6A08
:102AE00002318A43DA629A6B08490A409A639A6B08
:102AF00007490A409A635A6B06490A405A631A6B9F
:102B000005490A401A63DDE700100240FFFFDFFFBE
:102B1000FFFFFDFFFFFDFFFFFFEFFFFF034A5368CD
:102B20001B021B0A0006034353607047001002405B
:102B300070B5244B002100201FE0234C7D328025FE
:102B40006D03A550BFF34F8FBFF36F8F1F4AD4683B
:102B50000225AC43D460146A013DAC43146214688E
:102B6000AC431460032464421461002903D0184A62
:102B70001268120380180131C9B232291AD801250E
:102B8000144A1560114AD46802263443D460146A8A
:102B90002C43146214682C4314600B4A8024640391
:102BA00014600C4A1268032AC7D0013B002BF8D1ED
:102BB000012070BD054B9C6A01343221FDF7B6FA45
:102BC0006043F6E7FFFFFF0000E100E0000801407E
:102BD000A8010020AC010020014B01221A607047BF
:102BE000B8010020F0B5DE4657464E464546E0B5F2
:102BF00085B081468B460120FFF724FFFFF7ECFFED
:102C0000684600F099FA009B9A468020FFF786FFFD
:102C10000126002500239846FF2703E0002B18DB40
:102C200027000135FF2D16D8012E14D14346FC187C
:102C30006408E0B2FFF772FFFFF77AFF5346C31A4A
:102C4000D9175A184A404A45E8D25B461860002610
:102C5000E7E7A046E5E7012E0AD00020FFF7F2FEE5
:102C6000300005B0F0BCBB46B246A946A046F0BD58
:102C70008020FFF753FFF0E710B51A4B1B699B0745
:102C800003D5184B032252421A61174B1B68012BC4
:102C900004D0154B1B68022B08D010BD114B5A6B8A
:102CA000124B1A60104B02221A60F6E70D4B5B6B59
:102CB0000F4A13600D4A12689A4206D29B1A0D4AB7
:102CC0001360094B03221A60E7E79A4206D99B1A60
:102CD000094A94466344074A1360F2E7FEF770F826
:102CE000EFE7C04600080140AC010020B001002021
:102CF000B4010020A8010020FFFF00000D48854618
:102D00000D480E490E4A002302E0D458C450043343
:102D1000C4188C42F9D30B4A0B4C002301E013601A
:102D20000432A242FBD3FEF7D9F800F0E7FBFDF72F
:102D300069FFFEE700200020000000209000002036
:102D4000B84400089000002058060020FEE700006C
:102D500010B58368DB0711D4C368094A13404A6879
:102D60008C682243CC6822431343C36003699B00F1
:102D70009B080A6813430361002010BD0120FCE793
:102D8000C73FFFFF10B58368DB070FD4C368084A4D
:102D90001A400B684C6823438C682343CC68234358
:102DA00009690B431343C360002010BD0120FCE7F9
:102DB0003CC2FEFF10B503000079002850D01A680D
:102DC000002A57D05879012818D0022820D000288E
:102DD0000BD001209A79002A4BD0022A2CD0032A4A
:102DE00034D0012A1ED0012043E023494C6894438B
:102DF0004C600A681C6822430A60EBE71E490868B9
:102E0000904308604A68186802434A600020E1E77E
:102E10001949086802430A604A68186802434A6010
:102E20000020D7E7144AD1681C68A143D1601B6811
:102E300091680B4393601CE00F4A91681C68A143A2
:102E400091601B68D1680B43D36012E00A4A916815
:102E50001C68214391601B68D1680B43D36008E074
:102E6000054A11681C68A1431160196853688B43B7
:102E7000536010BD0020FCE700040140F0B50022C3
:102E800027E083682C006C4366003619B3438E68D4
:102E90007443234383600C684368A343CE68744340
:102EA00023434360C6682B006B435F00FF18FC435D
:102EB000A446BE430F695F433E43C6604C68022C84
:102EC00016D0046865462C404D686B43234303606D
:102ED00001320C682300D34026D001239340250003
:102EE0001D401C42F4D04B68013B012BDAD8C8E7E7
:102EF000FF2D0BD8066A1C006C4365432C01641B34
:102F0000A6434C69654335430562DAE7466A2D0AF4
:102F10002C006C436C4365432C01641BA6434C6935
:102F2000654335434562CCE70020F0BD30B502680B
:102F30000124A24302600368174A1340CA681202C0
:102F40008D682A43134303604B680361036823437E
:102F500003608368114A134083608368DB0ADB02E5
:102F60000A698C692243134383600B69002B04D0E8
:102F7000826880231B02134383600368084A13405E
:102F80000A68134303604B69426804490A401343CB
:102F90004360002030BDC046FFE0FFFFFF7FFFFF22
:102FA000FFFFCFFFF8B504000D000368DB072CD44A
:102FB0000368194A13404A68C9680A4329690A43E1
:102FC000134303604368154A1340AA6813434360E0
:102FD0008368134A13406A6913438360C020000169
:102FE00000F0FEF8002812D02A68002A11D0070E3F
:102FF000060250080021801979410023FDF70CFAE0
:103000000003000BE060002000E00120F8BD01207B
:10301000FCE70120FAE7C046F3E9FFEFFFCFFFFF2F
:10302000FFFCFFFF044BDA6812090F231340034A29
:10303000D35CD8407047C046001002401C3E0008D8
:10304000044BDA68120A07231340034AD35CD840C2
:103050007047C046001002402C3E0008044BDA685E
:10306000D20A07231340034AD35CD8407047C046B6
:10307000001002402C3E000810B50E4BDB68DB034D
:1030800005D40C4B1B68DB0612D50B4800E00B483F
:103090000849CA68920C0F231340094AD35C58436D
:1030A000CB689B0D032119400131FDF73FF810BD9E
:1030B0000448EDE70010024000093D0000127A00CC
:1030C000343E00080024F40010B5174BDA680C23D6
:1030D0001340082B23D009D8002B0CD0042B14D17B
:1030E000114B1B68DB061CD5104819E00C2B0CD1CA
:1030F000FFF7C2FF14E00C4B5A68520B0723134032
:1031000001338020000298400AE0074B5A68520BB6
:1031100007231340013380200002984000E0044858
:1031200010BD0448FCE7C0460010024000093D0005
:1031300000127A000024F40010B50400FFF7C4FF69
:103140002060FFF76FFF6060FFF77AFFA0606068A4
:10315000FFF784FFE06010BD10B50C2801D00020FF
:1031600010BD194BDB6C034000041843174B984209
:103170000FD0174B984219D0164B984206D0FFF744
:10318000A3FFFFF74FFFFFF75BFFE9E7FFF79CFFA8
:10319000E6E70D4B1B680422100018401A42DFD0EE
:1031A000094B1B68DB060CD40B48D9E7064B1A6D9C
:1031B00080239B00100018401A42D1D080200002CA
:1031C000CEE70648CCE7C0460010024008000C00DD
:1031D0000C000C0004000C000024F40000093D0069
:1031E00010B5194BDB6C184080231B01984211D09D
:1031F000C0231B0198421AD08023DB00984206D0DE
:10320000FFF762FFFFF70EFFFFF71AFF01E0FFF77E
:103210005BFF10BD0C4B1B680422100018401A42C3
:10322000F7D0094B1B68DB060CD40848F1E7064BC6
:103230001A6D80239B00100018401A42E9D08020AC
:103240000002E6E70248E4E7001002400024F40030
:1032500000093D0070B5036A0124A3430362036AB9
:10326000456882697326B2430E6832430226B3432F
:10327000CE683343A3434C682343456082618A6828
:1032800042630362002070BD70B5036A1026B34329
:103290000362036A456882690A4C22400C68240272
:1032A00022432024A343CC6824012343B3434C6826
:1032B00024012343456082618A688263036200209F
:1032C00070BDC046FF8CFFFF70B5026A0C4E3240E5
:1032D0000262036A4568C2697324A2430C682243F0
:1032E000084C2340CC682402234333404C6824021A
:1032F00023434560C2618A68C2630362002070BDD7
:10330000FFFEFFFFFFFDFFFF70B5026A0D4E32406A
:103310000262036A4568C2690B4C22400C682402B1
:1033200022430A4C2340CC682403234333404C6897
:10333000240323434560C2618A680264036200205B
:1033400070BDC046FFEFFFFFFF8CFFFFFFDFFFFFF9
:1033500003688022D205904205D0114A904202D0E3
:10336000104A904203D1702293434A68134380224B
:10337000D205904205D00A4A904202D0094A9042B2
:1033800003D1094A1340CA68134303608B68C362C0
:103390000B88836243690122134343610020704715
:1033A0000008014000140140FFFCFFFF10B50B00B6
:1033B000110080225200934215D008D8012B0FD063
:1033C000102B02D1FFF760FF09E0012007E0802207
:1033D0005201934202D1FFF797FF00E0012010BD98
:1033E000FFF738FFFBE7FFF76FFFF8E770B5040062
:1033F0000D000368DB0740D40368234A1A404B687A
:10340000C9680B4329690B43A9690B431343036044
:1034100043681E4A1340AA681343436083681C4AEA
:1034200013406A69134383601A4B984201D001200C
:1034300024E00C20FFF790FE002820D02968002906
:103440001FD0AA6980231B029A4208D04B08C018DB
:10345000FCF76CFE0004000CE06000200EE0400071
:103460004B08C018FCF762FE0B4B034040080722D4
:1034700010401843E060002000E0012070BD0120F2
:10348000FCE70120FAE7C046F369FFEFFFCFFFFF3B
:10349000FFFCFFFF00440040F0FF000010B5FA21E0
:1034A0008900FCF743FE0138034B586000229A6004
:1034B00005321A6010BDC04610E000E082B0084B33
:1034C0001B680193019B431C00D00130002805D0EC
:1034D000034B1B68DB03F9D50138F7E702B07047EF
:1034E00010E000E0014B18607047C0461C0000204F
:1034F000014B18687047C0462C00002070B50026AC
:103500000C4D0D4C641BA410A64209D1002600F0FE
:103510005DFC0A4D0A4C641BA410A64205D170BD87
:10352000B300EB5898470136EEE7B300EB589847E5
:103530000136F2E7B0440008B0440008B044000887
:10354000B4440008002310B59A4200D110BDCC5CF1
:10355000C4540133F8E703008218934200D1704746
:1035600019700133F9E730B5140005001A009BB05B
:10357000002C05DA8B230360012040421BB030BDD4
:10358000822368469B0083810023009104919C4222
:1035900000D0631E02930593012369465B42CB81F1
:1035A00028001E9B00F078F8431C01DA8B232B6067
:1035B000002CE3D00023009A1370DFE707B50093D7
:1035C00013000A00010002480068FFF7CCFF0EBD9F
:1035D0002C000020F0B58E6885B007000C00039227
:1035E00001939E423CD890238A89DB001A4234D052
:1035F0000325096923685B1A0293636902985D4396
:10360000EB0F5D19019B6D1001331B18AB4200D904
:103610001D00530532D52900380000F027FB061E97
:1036200009D10C233B6040230120A289404213436F
:10363000A38105B0F0BD029A2169FFF783FFA3893A
:10364000144A1A4080231343A381029B2661F61873
:1036500026606561019EED1AA560019B9E4200D91E
:10366000019E32000399206800F0A3FAA3680020AD
:103670009B1BA36023689E192660DAE72A003800A6
:1036800000F052FB061EE0D13800216900F0A4FAD8
:10369000C7E7C0467FFBFFFFF0B5A1B003901D0058
:1036A0008B890F0016001B0611D50B69002B0ED15C
:1036B000402100F0DBFA38603861002805D10C2386
:1036C000039A0138136021B0F0BD40237B610023D1
:1036D00008AC6361203363761033A3760795350019
:1036E0002B78002B01D0252B47D1AB1B0593B5427E
:1036F0000CD0320039000398FFF76CFF431C00D157
:10370000AEE06269059B9446634463612B78002BAD
:1037100000D1A5E0012200235242626004A9543284
:1037200052186E1C2360E360A3601370A36505222A
:103730003178544800F032FA751C00281FD12268F5
:10374000D30604D5532304A95B182021197013074D
:1037500004D5532304A95B182B21197033782A2B25
:1037600016D0350000210A20E3682A786E1C303A12
:10377000092A4ED9002911D117E00135B0E7414B94
:103780002268C01A0123834013432E002360CEE732
:10379000079B191D1B680791002B01DB0B9304E0AD
:1037A0005B42E3600223134323602B782E2B0AD164
:1037B0006B782A2B35D1079B02351A1D1B6807929F
:1037C000002B2BDB0993304E03223000297800F0C8
:1037D000E5F9002806D04023801B8340226801358C
:1037E000134323602978062228486E1C217600F0B6
:1037F000D5F900283CD0264B002B25D10722079B6A
:1038000007339343083307936369049A9B186361F2
:1038100065E74343350001219B18A6E701235B427E
:10382000D0E700230A201A000135636029786E1C56
:103830003039092903D9002BC5D00992C3E7424387
:10384000350001235218F1E707AB00933A0021003D
:10385000104B039800E000BF0490049B0133D3D1C8
:10386000BB890D985B0600D42DE7012040422AE772
:1038700007AB00933A002100064B039800F07CF858
:10388000EAE7C046744400087A4400087E44000811
:1038900000000000D5350008F7B5150001938A68CF
:1038A0000B690C000090934200DA130022002B6099
:1038B00043321278002A01D001332B6023689B0623
:1038C00002D52B6802332B602268062317001F40A5
:1038D0001A4227D0230043331B785A1E9341226893
:1038E000920630D4220001990098089E4332B047D6
:1038F000431C25D0062320682A68E1680025034080
:10390000042B03D18D1AEB43DB171D40A3682269FA
:10391000934201DD9B1AED180027BD4220D1002003
:1039200010E00137E3682A689B1ABB42D2DD22000F
:10393000012301990098089E1932B047431CF0D129
:1039400001204042FEBD3020E118433108702100C3
:103950005A1C45310978A218433202331170C1E76D
:103960002200012301990098089E1A32B047431C97
:10397000E6D00137D1E70000F0B58BB006920A001F
:1039800043320793059004920A7E0C00109B782A1C
:1039900006D8622A08D8002A00D1C0E0582A52D09E
:1039A00026004236327022E0100063381528F7D81E
:1039B000FCF7B2FB16001F00F6FFF6FFF6FFF6FF5E
:1039C0001F00F6FFF6FFF6FFF6FFA80036009A008C
:1039D000F6FFF6FFB900F6FF3600F6FFF6FF9E0091
:1039E00026001A684236111D1960136833700123CE
:1039F000A7E0086819680A1D05060BD50D681A604E
:103A0000002D03DA2D23049A6D421370614B0A27AF
:103A1000039332E00D681A604106F1D52DB2EFE74D
:103A20000D681968081D18602E0601D50D6803E0A1
:103A30006D06FBD50D68ADB2564B0A2703936F2A6E
:103A400017D1082715E045310A70524A03921A68C7
:103A5000216820CA1A60080650D5CB0702D520235A
:103A6000194321601027002D03D1202322689A4397
:103A700022602300002243331A706368A360002B86
:103A800003DB0422216891432160002D02D1049EB2
:103A9000002B0CD0049E28003900FCF7CDFB039BC3
:103AA000013E5B5C33702B0005009F42F3D9082F69
:103AB00009D12368DB0706D563682269934202DCDB
:103AC0003023013E3370049B9B1B2361079B210025
:103AD00000930598069B09AAFFF7DEFE431C35D12B
:103AE000012040420BB0F0BD202209680A43226049
:103AF0002200782145321170274AA7E74806ACD545
:103B0000ADB2AAE71A680D68101D496918601368FC
:103B10002E0601D5196002E06D06FBD51980002341
:103B2000049E2361D2E71A68111D196016680021EE
:103B30003000626800F032F8002801D0801B60601D
:103B4000636823610023049A1370BFE7236932007E
:103B500006990598079DA847431CC1D023689B0779
:103B600015D4099BE0689842BCDA1800BAE7220035
:103B7000012306990598079E1932B047431CAFD020
:103B80000135E368099A9B1AAB42F0DCE9E70025AE
:103B9000F7E7C0468544000896440008C9B2821879
:103BA000904201D10020704703788B42FBD0013056
:103BB000F6E710B5884202D98B18984203D3002348
:103BC00007E08B5C8354013AFBD210BDCC5CC4543B
:103BD00001339A42FAD1F8E770B50500002910D0F8
:103BE0000C1F2368002B00DAE418280000F0D4F83A
:103BF0001D4A1368002B05D163601460280000F093
:103C0000D3F870BDA34208D9216860188342F3D16C
:103C100018685B6841182160EEE71A005B68002BAA
:103C200001D0A342F9D911685018A0420BD12068E5
:103C30000918501811608342E0D118685B68411878
:103C400011605360DAE7A04202D90C232B60D5E75C
:103C500021686018834203D118685B6841182160AD
:103C600063605460CAE7C046BC010020F8B5032376
:103C7000CD1C9D43083506000C2D1FD20C25A942F2
:103C80001ED8300000F088F825490A681400002C7E
:103C90001AD1244F3B68002B04D12100300000F0E2
:103CA00069F838602900300000F064F8431C2BD11B
:103CB0000C233000336000F077F803E0002DDEDAEB
:103CC0000C2333600020F8BD23685B1B19D40B2B39
:103CD00003D92360E418256003E06368A2420ED193
:103CE0000B60300000F060F8200007220B30231D2D
:103CF0009043C21A9842E6D01B1AA350E3E75360E0
:103D0000EFE722006468C2E70323C41C9C43A0427F
:103D1000E1D0211A300000F02DF8431CDBD1C7E7B9
:103D2000BC010020C0010020F8B507000D001600FE
:103D3000002905D11100FFF799FF04002000F8BD0C
:103D4000002A03D1FFF748FF3400F7E700F034F80A
:103D50002C00B042F2D231003800FFF787FF041E7A
:103D6000ECD029003200FFF7EDFB29003800FFF707
:103D700033FFE3E7002370B5064D040008002B6015
:103D8000FDF788F8431C03D12B68002B00D023607B
:103D900070BDC0464806002010B5024800F014F877
:103DA00010BDC0465006002010B5024800F00DF8C6
:103DB00010BDC046500600200B1F1B68181F002BAB
:103DC00001DA0B58C018704770477047F8B5C04605
:103DD000F8BC08BC9E467047F8B5C046F8BC08BCA5
:043DE0009E46704744
:103DE4000A0D55494420253032582D222573222DA1
:103DF400222573222D2530386C7800000A0D0A0D17
:103E040025732025730000000A0D534E20253039F8
:103E14006C7500000A0D00000000000000000000A6
:103E2400010203040607080900000000010203045C
:103E3400030406080C10182030000000436F6E665F
:103E44006967207772697465000000000A0D466195
:103E540063746F727920636F6E6669672077726925
:103E6400746500000A0D4E6F204461746120466140
:103E740063746F72790000000A0D4C6F6164204610
:103E84006163746F727900000A0D2553657444658B
:103E9400660000000A0D436F6E66696742616E6BCF
:103EA4002D25642C20434E542D2564004F454D0090
:103EB4005553455200000000494E4954000000008B
:103EC4004F4B00005A45524F3200000043414C42D0
:103ED40000000000415A45524F00000049443F0091
:103EE40052543F005352414C3F000000415A455246
:103EF4004F3F0000415A45524F204F4646000000B4
:103F0400415A45524F204F4E000000004441544155
:103F140045320000C01D0008141E00081E1E0008C3
:103F2400281E0008321E00083C1E0008461E000819
:103F3400501E00085A1E0008641E0008D81E0008FF
:103F44000A0D43616C6962205A65726F00000000BB
:103F54000A0D43616C696220436F6E6300000000C8
:103F64000A0D2530327820434D44204D6F6462752C
:103F7400732036203A207772697465206164722058
:103F840025303378203A20646174612000000000F9
:103F94002025303278253032780000000A0D253093
:103FA400327820434D44204D6F646275732031365E
:103FB40020282530326429203A20777269746520DC
:103FC4006164722025303378203A20646174612062
:103FD400000000000A0D0A0D204552524F525F495D
:103FE4006C6C6567616C5F46756E6374696F6E00B7
:103FF4004C29000870290008A22900087A29000821
:10400400A229000884290008A2290008A22900087E
:10401400A22900088E290008A2290008A229000864
:10402400A2290008982900083C060020000000008E
:1040340040060020000000001005002001000000E0
:1040440012050020010000001405002001000000FA
:1040540016050020010000001805002001000000E2
:104064001A050020010000001C05002001000000CA
:104074001E050020010000002005002001000000B2
:10408400220500200100000024050020010000009A
:104094002605002001000000280500200100000082
:1040A4002A050020010000002C050020010000006A
:1040B4002E05002001000000300500200100000052
:1040C400320500200100000034050020010000003A
:1040D4003605002001000000380500200100000022
:1040E4003A050020010000003C050020010000000A
:1040F4003E050020010000004005002001000000F2
:1041040042050020010000004605002001000000D7
:1041140048050020010000004A05002001000000BD
:104124004C050020010000004006002000000000B3
:104134004206002000000000DE050020010000000F
:10414400DC050020010000004E05002001000000F5
:10415400500500200100000044050020010000007B
:104164003E060020000000003E0600200000000083
:104174003E060020000000003E0600200000000073
:104184003E060020000000003E0600200000000063
:104194003E060020000000003E0600200000000053
:1041A4003E0600200000000052050020010000002F
:1041B4005405002001000000560500200100000005
:1041C40058050020010000005A05002001000000ED
:1041D4005C050020010000005E05002001000000D5
:1041E40060050020010000006205002001000000BD
:1041F40064050020010000006605002001000000A5
:1042040068050020010000006A050020010000008C
:104214006C050020010000006E0500200100000074
:10422400700500200100000072050020010000005C
:104234007405002001000000760500200100000044
:1042440078050020010000007A050020010000002C
:104254007C050020010000007E0500200100000014
:1042640080050020010000008205002001000000FC
:1042740084050020010000008605002001000000E4
:1042840088050020010000008A05002001000000CC
:104294008C050020010000008E05002001000000B4
:1042A400900500200100000092050020010000009C
:1042B4009405002001000000960500200100000084
:1042C40098050020010000009A050020010000006C
:1042D4009C050020010000009E0500200100000054
:1042E400A005002001000000A2050020010000003C
:1042F400A405002001000000A60500200100000024
:10430400A805002001000000AA050020010000000B
:10431400AC05002001000000AE05002001000000F3
:10432400B005002001000000B205002001000000DB
:10433400B405002001000000B605002001000000C3
:10434400B805002001000000BA05002001000000AB
:10435400BC05002001000000BE0500200100000093
:10436400C005002001000000C2050020010000007B
:10437400C405002001000000C60500200100000063
:10438400C805002001000000CA050020010000004B
:10439400CC05002001000000CE0500200100000033
:1043A400D005002001000000E4050020E6050020FF
:1043B400E8050020DE050020DC050020EE050020D5
:1043C40024060020F0050020F2050020F40500205A
:1043D400F6050020F8050020FA050020FC05002061
:1043E400FE0500200006002006060020040600202A
:1043F4000A060020080600200C0600200E060020F5
:1044040010060020120600201406002016060020C4
:10441400EE0500203E060020180600201A050020A4
:104424001C0500201A0600201C0600203E06002061
:104434003E0600203E0600203E0600203E060020E8
:104444003E0600203E0600203E0600203E060020D8
:104454003E0600203E0600203E0600203E060020C8
:104464003E0600203E0600203E0600203E060020B8
:10447400232D302B2000686C4C0065666745464749
:1044840000303132333435363738394142434445CC
:10449400460030313233343536373839616263643B
:0444A4006566000049
:0844A800B0BFFF7F010000001E
:0444B000E900000817
:0444B400C10000083B
:1044B8005365702032342032303231000000000061
:1044C80031363A35343A3533000000000000200018
:1044D80001000000E40C0000010100003000002091
:1044E80000000000000000000000000000000000C4
:1044F80000000000000000000000000000000000B4
:1045080000000000000000000000000000000000A3
:104518000000000000000000000000000000000093
:104528000000000000000000000000000000000083
:104538000000000000000000000000000000000073
:0400000508002CFDC6
:00000001FF
